:020000040800F2
:10000000103D0020A90100086F390008CD0100084B
:10001000713800085108000851480008000000002D
:1000200000000000000000000000000001010008C6
:10003000610A000800000000450100086D42000848
:10004000C3010008C3010008C3010008C301000880
:10005000C3010008C3010008C3010008C301000870
:10006000C3010008C3010008C3010008C301000860
:10007000C3010008C3010008C3010008C301000850
:10008000C3010008C3010008C3010008C301000840
:10009000C3010008C3010008C3010008C301000830
:1000A000C3010008C3010008C3010008C301000820
:1000B0000943000815430008C3010008C3010008F4
:1000C000C3010008C3010008C3010008C301000800
:1000D000C3010008614700086D4700087147000828
:1000E000C3010008C3010008C3010008DFF80CD0F9
:1000F00000F050FB00480047655C0008103D002000
:10010000224B19680868B0E8F00F80F30988BFF344
:100110006F8F4FF0000080F311884EF00D0E704786
:100120000000000006480068006880F3088862B696
:1001300061B6BFF34F8FBFF36F8F00DF00BF00BF0B
:1001400008ED00E0EFF30980BFF36F8F0F4B1A68E3
:1001500020E9F00F106008B54FF0500080F31188CF
:10016000BFF34F8FBFF36F8F06F0A8FB4FF0000077
:1001700080F31188BDE8084019680868B0E8F00FFE
:1001800080F30988BFF36F8F704700BF180000200D
:10019000EFF3058070470000EFF308807047EFF33E
:1001A0000980704768467047064880470648004700
:1001B000FEE7FEE7FEE7FEE7FEE7FEE7FEE7FEE717
:1001C000FEE7FEE705430008ED00000870466946BB
:1001D00005F082F9FFF7FEFF202A04DB203A21FA1E
:1001E00002F00021704721FA02F3D040C2F1200250
:1001F000914008431946704740EA01039B0703D02A
:1002000009E008C9121F08C0042AFAD203E011F855
:10021000013B00F8013B521EF9D27047D2B201E017
:1002200000F8012B491EFBD270470022F6E710B5FB
:1002300013460A4604461946FFF7F0FF204610BD54
:1002400030B505462A460B4612F8010B13F8014B50
:1002500008B1A042F8D01CB1002802D06D1CF1E713
:10026000284630BD10B5044604E00B7800F8013B89
:1002700003B1491C521EF8D2204610BD421C10F892
:10028000011B0029FBD1801A704710B5002200E045
:10029000521C835C8C5CA34201D1002BF8D1D8B2F4
:1002A000E1B2401A10BD30B504460020034600E01C
:1002B0005B1C934203D2E05CCD5C401BF8D030BDA8
:1002C0002DE9FE4F81EA030404F0004421F00041CF
:1002D00000944FF0000B23F0004350EA01045ED07D
:1002E00052EA03045BD0C3F30A54C1F30A552C4409
:1002F000A4F2F3340194A0FB0254C1F3130141F4BE
:100300008011C3F3130343F4801301FB024400FB89
:10031000034E840A970A44EA815447EA8357A4FBB0
:10032000076802958D0A05FB07854FEA932C04FBAD
:100330000C542705029D4FEA065847EA1637B5EBDD
:1003400008056EEB070C870E920E47EA811742EA0A
:100350008312A7FB0201B6EB0B0164EB00042B0D2B
:1003600043EA0C335E1844EB1C50DA465146E7FB77
:100370000201C5F313044FEA0B3343EA14534FEA67
:100380000432019C43EA0603A4F10C040294009C8D
:10039000CDE900B400F0D8F803B0BDE8F08F00203C
:1003A0000146F9E72DE9F04D81EA030404F0004B22
:1003B00021F0004514464FF0000A23F0004150EAB6
:1003C000050220D054EA01021DD0C5F30A570246A7
:1003D000C5F31303C1F31300C1F30A5640F48015AB
:1003E00043F48013A7EB0608101BD64608F2FD382D
:1003F00073EB050002D308F1010801E092185B419C
:10040000B8F1000F03DA00200146BDE8F08D0020AE
:100410004FF48011064684460EE0171B73EB050768
:1004200005D3121B63EB050306434CEA010C490894
:100430004FEA300092185B4150EA0107EDD152EAD1
:10044000030012D082EA040083EA0501084305D0C4
:10045000101BAB4106D20122002306E000224FF020
:10046000004302E06FF0010253101AEB06004CEB60
:10047000085110EB0A0041EB0B01BDE8F04D00F014
:1004800054B80EB540F2334102910021CDE900117C
:100490000A460B4600F058F803B000BD30B50B46D5
:1004A000014600202022012409E021FA02F59D42A4
:1004B00005D303FA02F5491B04FA02F52844151E78
:1004C000A2F10102F1DC30BD2DE9F05F054600200C
:1004D00092469B4688460646814640241BE02846B5
:1004E000414647462246FFF777FE53465A46C01A12
:1004F000914110D311461846224600F05DF92D1A9D
:1005000067EB01084F4622460120002100F054F914
:1005100017EB00094E41201EA4F10104DFDC484620
:1005200031462A464346BDE8F09F10B5141E73F1CC
:10053000000408DA401C41F1000192185B411A43A3
:1005400001D120F0010010BD2DE9F04D92469B46EF
:1005500011B1B1FA81F202E0B0FA80F22032904695
:1005600000F02AF904460F4640EA0A0041EA0B016E
:1005700053465A46084313D0114653EA010019D096
:10058000C8F140025046FFF727FE05460E4650468A
:100590005946424600F010F9084305D0012004E016
:1005A00020463946BDE8F08D0020054346EAE07656
:1005B0002C4337430A986305E40AA0EB08000022A5
:1005C000FD0A44EA47540A3002D500200146E9E713
:1005D000010510196941DDE9084500196941BDE8C7
:1005E000F04DA2E72DE9FE4F804681EA0300C00FDF
:1005F0000C46009021F0004123F00045B8EB0200CA
:10060000A94105D24046214690461C460B4602466B
:1006100023F00040104347D0270DC7F30A00C3F36F
:100620000A510290401A019040286BDAC3F313007C
:1006300040F4801B0098924620B10023D2EB030ABD
:1006400063EB0B0B01985946C0F14002504600F095
:10065000B3F806460D4650465946019A00F0BBF8DD
:1006600010EB08006141002487EA115284EAE77325
:100670001A4340D0009A62B3019A012A4FEA075206
:1006800015DC001B61EB02014FF0004202EA075249
:10069000CDE90042001C41F5801132462B46FFF7A0
:1006A00053FF03B0BDE8F08F40462146F9E7001B39
:1006B00061EB0201001C41F5801300185B4120181A
:1006C000A2F5001747EB030140EAD570B6196D415A
:1006D00011E06D084FEA360645EAC0754FEA075249
:1006E000001B61EB0201001C41F5801149084FEA33
:1006F00030000019514132462B4603B0BDE8F04F9F
:10070000FFF713BF0098012240000023D0EB020244
:1007100063EBE073009821464FEAE074B8EB000009
:1007200061EB0401E9E783F000435BE781F00041FE
:1007300058E7C1F30A52C1F3130140F2FF3341F409
:1007400080119A4202DA00200146704740F233439A
:100750009A42A2F2334202DC5242FFF73DBD00F062
:100760002BB8000030B5041E71F1000404DB4FF01B
:100770000044404264EB0101141E73F1000405DBE8
:100780001C464FF00043524263EB0403994208BFFA
:10079000904230BD064C074D06E0E06840F0010392
:1007A00094E8070098471034AC42F6D3FFF7A2FC58
:1007B000547E0008747E0008202A04DB203A00FAE8
:1007C00002F1002070479140C2F1200320FA03F3A8
:1007D000194390407047202A06DBCB17203A41FA94
:1007E00002F043EAE07306E041FA02F3D040C2F1BE
:1007F0002002914008431946704770B58C1810F8D4
:10080000015B15F0070301D110F8013B2A1106D155
:1008100010F8012B03E010F8016B01F8016B5B1E6F
:10082000F9D12B0705D40023521E0DD401F8013B4A
:10083000FAE710F8013BCB1A921C03E013F8015BB6
:1008400001F8015B521EF9D5A142D8D3002070BD3A
:10085000FEE770B5044600234FF6FF704AF201052B
:100860000DE0E25C50400022C60702D085EA50004D
:1008700000E04008521CD2B2082AF5D35B1C8B4220
:10088000EFD370BD1CB50AA004F0C4F90C490320D5
:10089000CDE9000100234FF480720AA10A4806F056
:1008A000C5FB012803D009A004F0B4F9FEE71CBD84
:1008B0000D0A2043726561744C65645461736B006A
:1008C0009C0000204C656400792D00080D0A204C26
:1008D00065645F5461736B20637265617420657237
:1008E000726F72001CB509A004F094F90021052074
:1008F000CDE900010B464FF4967209A10A4806F0B3
:1009000095FB012800D0FEE71CBD00000D0A204326
:10091000726561744C6F72615461736B000000000A
:100920004C6F7261000000005D3200081CB50AA027
:1009300004F070F900210620CDE900010B464FF4C8
:10094000C8720BA10D4806F071FB012803D00CA062
:1009500004F060F9FEE71CBD0D0A20437265617466
:10096000506C6174666F726D5461736B00000000AF
:10097000506C6174666F726D000000000D3A0008E3
:100980000D0A204372656174506C6174666F726DFC
:100990005461736B206372656174206572726F724B
:1009A000000000001CB508490120CDE9000100232A
:1009B000802206A1074806F039FB012803D006A0D3
:1009C00004F028F9FEE71CBD040000205374617296
:1009D00074000000954100080D0A20537461727480
:1009E0005F5461736B494420637265617420657262
:1009F000726F72001CB50BA004F00CF90E490420B4
:100A0000CDE90001002380220CA10E4806F00EFB68
:100A10000949091F0128086003D00BA004F0FAF867
:100A2000FEE71CBD0D0A2043726561745561727446
:100A30005461736B00000000A400002055617274C3
:100A400041707000E94700080D0A556172745461E5
:100A5000736B206372656174206572726F7200003F
:100A60007047000000B58BB0142105A8FFF7DDFB2F
:100A7000684600F043FA02980A21B0FBF1F11EA08B
:100A800005F07CF90198FFF7FCFC00221F4BFFF7F3
:100A900089FC02460B461EA005F070F90098FFF78E
:100AA000F0FC00221F4BFFF77DFC02460B461EA008
:100AB00005F064F90498FFF7E4FC00221F4BFFF7F0
:100AC00071FC02460B461EA005F058F99DF80D007A
:100AD00078B1002120A005F051F99DF80E1024A056
:100AE00005F04CF99DF80C1026A005F047F90BB065
:100AF00000BD0121EEE70000C4BFC7B0B5E7D1B922
:100B0000A3BA25642076200A0000000000408F4030
:100B1000C4BFC7B0B5E7C1F7A3BA252E3366206DB1
:100B200041200A0000002440C4BFC7B0B9A6C2CA11
:100B3000A3BA252E31662077200A00000000594014
:100B4000C4BFC7B0B5E7C1BFA3BA252E3166206BBD
:100B50007768200A00000000C4BFC7B0BCCCB5E76E
:100B6000C6F7D7B4CCACA3BA2564200A00000000B5
:100B7000C4BFC7B0B5F7B9E2D6B5A3BA2564200A99
:100B800000000000C4BFC7B0C9E8B1B8D7B4CCAC4E
:100B9000A3BA2578200A000070470000064900200B
:100BA000C8610648016941F004010161016941F031
:100BB0004001016170470000D00300200020024086
:100BC000064A0021D16106490A6942F002020A611F
:100BD0004861086940F0400008617047D003002078
:100BE00000200240044B0022DA61044A136943F0FA
:100BF0000103136101807047D003002000200240F0
:100C000014480022C168CB06134904D5CA6942F0D2
:100C10000202CA611022C3685B0705D5CB6943F0A5
:100C20000103CB6142F00402C369DB0707D0CB6943
:100C300043F00403CB61C16921F00101C161A2F558
:100C40008071013901D0C2607047C16921F0010192
:100C5000C161704700200240D003002070B50546F6
:100C600000F0C8FB0646114C09E0681C07D025B10E
:100C700000F0C0FB801BA84201D9032070BDE068D2
:100C8000C007F2D1E068800601D52020E060E0686E
:100C9000C00605D4E069C00702D1E068400703D56B
:100CA000FFF7AEFF012070BD002070BD00200240A4
:100CB00038B5044600208DF8000001233A22204672
:100CC00000F08EF8A0F57F41FF3909D020446A4634
:100CD0000421401C03F082FA10B19DF8000038BDD9
:100CE000FF2038BD70B515460446022307A203F065
:100CF0009FFAA0F57F41FF3907D021182846BDE8AB
:100D000070401022891CFFF777BA70BD3A3E000090
:100D100070B505460E46FF2413A005F02FF80F23EB
:100D200016A20D2118A002F005F920B11AA005F0B5
:100D300025F8204670BD082310A23146284603F04E
:100D400077FAA0F57F41FF3904D02844007A303883
:100D5000C4B2EEE7214617A005F010F829461CA002
:100D600005F00CF8E5E700000D0A676574204C6F8C
:100D70007261207361747475730000002B535441C9
:100D80005455533A0000000041542B5354415455DC
:100D9000533D3F0D0A0000000D0A204C6F72612088
:100DA00067657420736174747573206572726F72F5
:100DB000000000000D0A204C6F72612067657420EE
:100DC000736174747573206572726F723A25640072
:100DD0000D0A204C6F7261206275663A257300001F
:100DE00070B505460020044608E02E5C964203D10B
:100DF000641CE4B29C4205D0401CC0B28842F4D3CB
:100E00004FF6FF7070BD00001CB5044605F06EFB88
:100E1000002201A9244800F080FF002269462248F0
:100E200000F054FF9DF80300204900F5FA600880A7
:100E30009DF801208A709DF80220CA709DF8042058
:100E40004A719DF805208A719DF80620CA7120809C
:100E50008878A070C878E070487960718879A0714E
:100E6000C879E07145F2510201210F4800F026FFD8
:100E70009DF8032002210C4800F020FF9DF801207E
:100E80000321094800F01AFF9DF8022004210648BA
:100E900000F014FF9DF800200521034800F00EFF2C
:100EA00005F044FB1CBD0000603500201801002047
:100EB0001CB50446012201A90D4800F02EFF0122B5
:100EC00069460B4800F002FF9DF8030020809DF862
:100ED0000100A0709DF80200E0709DF804006071B0
:100EE0009DF80500A0719DF80600E0711CBD000092
:100EF00060350020A0F10060800A704770B50F4D8A
:100F000004464FF0FF31286905F09AFF0C48002392
:100F10008168A1600B494A7862730978A1730168FE
:100F200021600169216141686160007B207328694B
:100F3000BDE870401A46194605F0D8BD880000206B
:100F4000C8350020044F002070B5144D04464FF002
:100F5000FF31E86805F074FF114800231A46017854
:100F60002170417861700179217141886180C17976
:100F7000E171B0F80510A4F80510817AA172018919
:100F80002181417B6173B0F80B00A4F80B00E86885
:100F9000BDE87040194605F0A9BD0000880000209A
:100FA000EE2C002070B50B4C0D4606464FF0FF317D
:100FB000606905F045FF4EB1287820706069BDE892
:100FC000704000231A46194605F090BD207828701D
:100FD000F4E70000A800002010B590F821100024CC
:100FE000022903D00421816301243DE001680A68DD
:100FF00022F00E020A6001680A6822F001020A600B
:101000001A4A0168914201D1012121E0174A1432A4
:10101000914201D110211BE0144A2832914201D1A2
:10102000891515E0114A3C32914201D189140FE033
:101030000E4A5032914202D14FF4803108E00B4AFF
:101040006432914202D14FF4801101E04FF080717F
:10105000064A083A5160012180F82110002180F8E9
:101060002010416B01B18847204610BD08000240A6
:1010700070B5044600F0BEF90546601C02D0044875
:101080000078044400F0B6F9401BA042FAD370BDCA
:10109000080000202DE9F047054626480F460126A6
:1010A000017E01290FD00121814601762868DFF8F1
:1010B00088804CF25034022808D0A2462046FFF720
:1010C000CDFDA8B131E00220BDE8F0872046FFF752
:1010D000C5FD08BB0120FFF761FD2046FFF7BEFDFF
:1010E000D8F81010064621F00401C8F810101CE0D2
:1010F0004FF0FF303860AC6811E02046FFF760FD2C
:101100005046FFF7ABFDD8F81010060021F00201A1
:10111000C8F8101001D03C6007E004F58064D5E900
:10112000020100EB8120A042E7D8002189F81810C5
:101130003046C9E7D003002000200240034801697F
:1011400041F0800101610020704700000020024052
:101150002DE9F05F07461C4888460024017E1546AD
:101160001E46012909D00121814601764CF2503AF0
:101170005046FFF773FD18B122E00220BDE8F09F52
:10118000012F02D0022F00D00427D346DFF83CA065
:10119000220128463146FFF71FF881B208EB4400D0
:1011A000FFF720FD5846FFF759FDDAF8102022F02E
:1011B0000102CAF8102018B9641CE4B2BC42E7D39B
:1011C000002289F81820D9E7D0030020002002402F
:1011D000064900200A69120607D5054A4A60054AF1
:1011E0004A600969090600D50120704700200240C5
:1011F00023016745AB89EFCD2DE9F84FDFF8B891B2
:10120000002409F1040A0AF1040B23460F270BF10D
:10121000040EC9E00125A5402A40AA427DD1674EAF
:10122000D1F804C0ACEB0608B44532D014DCBCF1F4
:10123000030F3AD009DCBCF1000F2AD0BCF1010F3A
:101240001CD0BCF1020F31D11DE0BCF1110F17D041
:10125000BCF1120F2AD119E0B8F5881F19D006DCAD
:10126000B8F5803F15D0B8F5801F1FD111E0B8F553
:10127000001F0ED0B8F5041F18D10AE0CB6815E0A6
:10128000CB681B1D12E0CB6808330FE0CB680C3332
:101290000CE08B682BB1012B4FF0080303D04561A4
:1012A00004E0042302E0056100E00023FF2A01D8E6
:1012B000064601E000F104064FEA840501D9A5F1D4
:1012C0002005D6F8008007FA05FC28EA0C0803FA86
:1012D00005F548EA0508C6F800804D68ED0062D5BE
:1012E000374DAE6946F00106AE61AD6924F00306E4
:1012F00005F001050095334D06EB050CDCF80850B0
:10130000A607360F07FA06F825EA0805DFF8B880C1
:10131000404503D14FF0000817E044E0DFF8AC800F
:10132000404502D14FF001080FE0DFF8A4804045AE
:1013300002D14FF0020808E0DFF89880404502D162
:101340004FF0030801E04FF0040808FA06F848EAF5
:101350000508CCF808804D68D9F80060ED034D46CB
:1013600001D5164300E096432E604D68DAF8006020
:10137000AD03554601D5164300E096432E604D68F7
:10138000DBF80060ED025D4601D5164300E09643B0
:101390002E604D68DEF80060AD02754601D516433B
:1013A00000E096432E60641C0D682A46E5407FF4F9
:1013B00031AFBDE8F88F00000004014000001110BB
:1013C000001002400000014000080140000C0140F4
:1013D0000010014000140140C26821EA02030A40E3
:1013E00043EA0241016170470AB101617047090493
:1013F000FBE70000014880687047000008000020FB
:1014000070B5040011D021684CF6CC40086021680A
:1014100045F255500860D4E9000141602168A06898
:101420008860FFF7E7FF054609E0012070BD00BFB7
:10143000FFF7E0FF401B262801D9032070BD20687C
:10144000C0680028F4D121684AF6AA20086000206C
:1014500070BD0000024881680278114481607047C5
:1014600008000020074810B5016841F01001016034
:10147000032000F08DF8002000F006F800F03EF8A0
:10148000002010BD0020024000B5014687B00022B8
:101490001C2000F05DF81C2000F04CF81448C169D5
:1014A00041F00101C161C06905A900F00100069089
:1014B000684600F0F5F900F013FA0E494000B0FB61
:1014C000F1F10D484FF08042491E0260416040F248
:1014D000E7320021C0E90321816000F0CCFD10B1AA
:1014E000012007B000BD044800F010FEF9E700003D
:1014F0000010024040420F00840300200B4808B552
:10150000816941F001018161816901F0010100916E
:10151000C16941F08051C161C06900F08050009004
:101520000348416821F0E061416008BD00100240BD
:1015300000000140002809DB00F01F02012191405A
:101540004009800000F1E020C0F800117047000061
:10155000F0B40E4B1B680C46C3F30223C3F107051E
:10156000042D00D90425191D072901D2002300E00C
:10157000DB1E012606FA05F1491E214099409E40D6
:10158000761E16403143F0BC03F062BA0CED00E069
:10159000064900F0070208684FF6FF03184040EACA
:1015A0000220034A10430860704700000CED00E081
:1015B0000000FA05014901200862704700000E4250
:1015C00010B529A401461DCC86B08DE81D002AA0C7
:1015D0002A4C006804900020012923D002293AD027
:1015E00010291DD161682268D20119D5C1F3834247
:1015F000C9031DF8020009D5616804AAC1F340417E
:10160000515C1F4AB2FBF1F1484301E01D494843D8
:101610006168490204D440005FF00301B0FBF1F0BF
:1016200006B010BD226AC2F30121012903D192073D
:1016300001D5C803F4E7022905D1626A920702D5F1
:1016400049F64040ECE70329EAD121688903E7D550
:101650004FF22440E4E700F053F96168C1F38131AF
:10166000491C4900DAE700000203040506070809DF
:101670000A0B0C0D0E0F10100102000000100240AA
:1016800000127A0000093D002DE9F8430546007874
:10169000354CC00754D0E0690026C00008D4E0698A
:1016A00040F08050E061E069012600F08050009039
:1016B0002E480168C90512D40168804641F4807142
:1016C0000160FFF797FE074605E000BFFFF792FEB7
:1016D000C01B642823D8D8F80000C005F6D5206ABE
:1016E00010F4407021D0A98801F4407181421CD0CF
:1016F000206A1F49012220F440700A6000220A601B
:101700002062C00711D0FFF775FE074641F2883806
:1017100008E000BFFFF76EFEC11B414502D9032060
:10172000BDE8F883206A8007F4D5206A696820F450
:101730004070084320621EB1E06920F08050E061F3
:101740002878800705D56068A96820F440400843E0
:1017500060602878C00605D56068E96820F48000DC
:10176000084360600020DBE700100240007000408A
:10177000400442422DE9F0470F46050061D0434E38
:10178000306800F00700B84209D2306820F0070046
:1017900038433060306800F00700B84251D1286803
:1017A0003B4C810712D5400703D5606840F4E060E8
:1017B00060602878000703D5606840F4605060607E
:1017C0006068A96820F0F000084360602878C007CE
:1017D00028D06868012810D02168022810D0890715
:1017E00000292EDA616821F0030101436160FFF7EF
:1017F00001FE804641F288390DE021688903EFE758
:101800008901EDE7FFF7F6FDA0EB0801494502D994
:101810000320BDE8F0876068696800F00C00B0EB59
:10182000810FEFD1306800F00700B8420BD9306863
:1018300020F0070038433060306800F00700B842FD
:1018400001D00120E5E72878400705D56068E96800
:1018500020F4E060084360602878000706D56068DF
:10186000296920F4605040EAC100606000F058F837
:101870006168084AC1F30311515CC8400649086019
:1018800006480068FFF700FE0020C2E70020024083
:101890000010024030740008140000200C000020EA
:1018A0000F2202600C4A536803F00303436053683D
:1018B00003F0F0038360536803F4E063C36052688D
:1018C0004FF4E06303EAD20202610448006800F0CA
:1018D000070008607047000000100240002002402E
:1018E0000448054900684968044AC1F30221515C73
:1018F000C8407047140000200010024040740008E7
:101900000448054900684968044AC1F3C221515C92
:10191000C8407047140000200010024040740008C6
:1019200012A185B00FC98DE80F0014A0144A0068F9
:1019300004905168134801F00C03042B10D0082BBD
:101940000ED1C1F38343C9031DF803000AD55168C2
:1019500004AAC1F34041515C0A4A5043B0FBF1F084
:1019600005B0704708494843FAE700000203040540
:10197000060708090A0B0C0D0E0F101001020000DB
:101980000010024000127A0000093D002DE9F84FD6
:10199000040070D02078C04DC00749D06868C0F3FB
:1019A0008100012807D06868C0F38100022809D1AE
:1019B0006868C00306D52868800339D560680028A8
:1019C000E7D035E06068B0F5803F0BD010B1B0F5DE
:1019D000A02F11D0286820F480302860286820F4D7
:1019E000802002E0286840F480302860606890B170
:1019F000FFF700FD06460AE0286840F480202860D2
:101A0000F0E700BFFFF7F6FC801B642873D8286856
:101A10008003F7D50CE0FFF7EDFC064605E000BFBC
:101A2000FFF7E8FC801B6428F0D828688003F7D40F
:101A300020789A4E80074FF001094FF0000839D501
:101A4000686810F00C0F07D06868C0F381000228A6
:101A500009D16868C00306D42868800714D52069B6
:101A6000012808D110E02069B0B1C6F80090FFF756
:101A7000C1FC074605E00AE1FFF7BCFCC01B0228D9
:101A8000C4D828688007F7D52868616920F0F80075
:101A900040EAC10028600DE0C6F80080FFF7AAFC0C
:101AA000074604E0FFF7A6FCC01B022823D82868DD
:101AB0008007F7D4207800072CD57948A169D9B1DF
:101AC000C0F80090FFF796FC074604E0FFF792FC91
:101AD000C01B02280FD8686A8007F7D571484FF4F9
:101AE000FA510068B0FBF1F0009000BF0098411E71
:101AF0000091FAD20EE080E0C0F80080FFF77AFC97
:101B0000074604E0FFF776FCC01B022875D8686A18
:101B10008007F7D42078400760D5E8690027C00027
:101B200008D4E86940F08050E861E869012700F0D6
:101B3000805000905C480168C90513D40168834651
:101B400041F480710160FFF755FC824606E000BF5A
:101B5000FFF750FCA0EB0A0064284ED8DBF8000029
:101B6000C005F5D5E06801280AD008B1052813D0D2
:101B7000286A20F001002862286A20F0040002E0B0
:101B8000286A40F001002862E06841F2883B98B181
:101B9000FFF730FC82460BE0286A40F00400286220
:101BA000EEE700BFFFF726FCA0EB0A0159455AD823
:101BB000286A8007F6D50CE0FFF71CFC824605E09A
:101BC000FFF718FCA0EB0A0159454CD8286A80079A
:101BD000F6D41FB1E86920F08050E861E06988B36D
:101BE0006968C1F38101022944D00228C6F86080E7
:101BF00004D0FFF7FFFB044638E034E0FFF7FAFBC0
:101C0000074604E0FFF7F6FBC01B02282BD8286824
:101C10008001F7D4206AB0F5803F05D16868A168DB
:101C200020F4003008436860D4E90801084369687B
:101C300021F4741108436860C6F86090FFF7DAFB7E
:101C4000044606E025E000BFFFF7D4FB001B022896
:101C500009D828688001F7D51BE000BFFFF7CAFB51
:101C6000001B022802D90320BDE8F88F28688001F4
:101C7000F4D40EE00128F7D06868226A00F48031BD
:101C8000914204D1616A00F47010884201D00120B1
:101C9000EAE70020E8E700000010024000004242AE
:101CA000800442421400002000700040024850F8B6
:101CB000210080B270470000006C0040024800EB39
:101CC000810091B201607047006C0040F8B50500DA
:101CD0004FF0000016460C46009006D02CB10022B2
:101CE0006946284600F019F808B10120F8BD287BA4
:101CF0002070E87BE070697B6170A97BA17056B1B0
:101D000001F0EBFFE070607801F0E7FF6070A07811
:101D100001F0E3FFA0700020F8BD2DE9F0479146E7
:101D20000C465FEA00084AD084B3D8F80000406847
:101D3000400744D4404602F06FF84FF46162054614
:101D4000B0FBF2F1B0FBF2F302FB13503C23B0FB0B
:101D5000F3F0B5FBF2F6607002FB1650B0FBF3F245
:101D600003FB1200A070182931D31820B1FBF0F743
:101D7000B1FBF0F200FB12102070404602F045F873
:101D8000411C04D0A84202D9461B02E017E04FF0E4
:101D9000FF36A7EB071000EB4000C0EB001005EB8F
:101DA000C0152946404602F086F840B9701C01D0A3
:101DB000711900E03146404602F069F810B1012087
:101DC000BDE8F0873946404601F092FF00E02170FF
:101DD000B9F1000F0BD0207801F07FFF2070607800
:101DE00001F07BFF6070A07801F077FFA070002009
:101DF000E6E7000070B5040003D0607C002610B157
:101E000005E0012070BD2674204600F043F8022052
:101E10006074204600F010F9042578BB204601F0DC
:101E2000BEFF58BB2068416821F007014160A068EF
:101E300020B11748016821F0010101601448001F1A
:101E40000168A26821F46071114301606068411C5F
:101E500004D10120FFF7B4FB80B1401E21688A68DD
:101E600022F00F0242EA10428A602168CA6860F3D9
:101E70000F02CA60204601F0ADFF08B16574C0E7EB
:101E8000E67301206073A0736074002070BD0000D1
:101E9000306C004008B50068084988420DD1FFF752
:101EA00089FB0748C16941F00061C161C06905490A
:101EB00000F0006000900120086008BD002800408C
:101EC000001002403C0442422DE9F0410D4604005E
:101ED0003BD0C5B3207C01283AD04FF0010884F8EC
:101EE000108002206074E87872B301F0EDFEE073B8
:101EF000687801F0E9FE6073A87801F0E5FEA07350
:101F0000C2B2617BE07B01F097FF2073287020460E
:101F100001F082FF4FF46161B0FBF1F10025182957
:101F20002DD91822B1FBF2F1A1EB011101EB410116
:101F3000C1EB011100EBC1163146204601F0BBFF99
:101F40000427C8B90BE000E004E00120BDE8F081FF
:101F50000220FBE7E07368786073A878CFE720463B
:101F600001F053FF411C0AD0B04208D20649014497
:101F7000204601F08CFF10B167742574E5E784F802
:101F8000118025740020E1E7805101002DE9F04126
:101F90000D46040024D01DB3207C012823D04FF02F
:101FA000010884F81080022060742878EAB101F0FA
:101FB0008BFE4FF4616100FB01F6687801F084FE4E
:101FC000C0EB001006EB8006A87801F07DFE351806
:101FD0002946204601F06FFF0026042710BB0FE0C2
:101FE0000120BDE8F0810220FBE74FF46161484326
:101FF0006978C1EB011100EB8100A9784518E7E78A
:102000002068416821F005014160204601F0FDFE95
:10201000411C0AD0A84208D206490144204601F0DA
:1020200036FF10B167742674DAE784F811802674DD
:102030000020D6E78051010070B504000AD0206866
:10204000416821F008014160FFF7D4F905464FF4DB
:102050007A7608E0012070BDFFF7CCF9401BB04252
:1020600001D9032070BD206840680007F4D5002026
:1020700070BD7047704710B5040003D094F83D0060
:1020800010B107E0012010BD002084F83C0020467C
:1020900000F01EF8022084F83D00211D206802F0A7
:1020A0003FF9012084F8460084F83E0084F83F00A0
:1020B00084F8400084F8410084F8420084F843002A
:1020C00084F8440084F8450084F83D00002010BDE9
:1020D00008B500680B49884212D10B48C16941F02C
:1020E0000201C161C069002200F0020000900521D8
:1020F0001D20FFF72DFABDE808401D20FFF71ABA92
:1021000008BD0000000400400010024090F83D109F
:10211000012901D001207047022180F83D1001689B
:10212000CA6842F00102CA6000680B49884208D0C0
:10213000B0F1804F05D00949884202D00849884251
:1021400004D1816801F00701062903D0016841F03C
:102150000101016000207047002C01400004004094
:102160000008004070B5044690F83C00012817D0E4
:10217000012584F83C50022084F83D0020688268E4
:1021800022F0770222F47F4282600868502830D023
:102190000DDC20284DD005DC98B310283BD148E059
:1021A000022070BD302844D0402834D139E0602866
:1021B00028D0702806D0B0F5805F2CD0B0F5005F35
:1021C00029D10AE0CB68D1E90121206802F0EBF8BF
:1021D0002068816841F0770109E0CB68D1E90121ED
:1021E000206802F0E0F82068816841F48041816055
:1021F00011E0CA684968206802F090F9502120680F
:1022000007E016E0CA684968206802F098F9602182
:10221000206802F0D2F884F83D50002084F83C0099
:1022200070BDCA684968206802F078F940212068CA
:10223000EFE7226801461046EBE7704770B50446A9
:10224000006801694FF00005C943890715D4C168CA
:10225000C943890711D4E91E016101202077206854
:1022600080698007204602D0FFF7E7FF04E000F016
:10227000C1F8204600F050F9257720680169C9436C
:10228000490717D4C168C943490713D46FF0040143
:102290000161022020772068806910F4407F204689
:1022A00002D0FFF7CAFF04E000F0A4F8204600F0D7
:1022B00033F9257720680169C943090716D4C16835
:1022C000C943090712D46FF0080101610420207787
:1022D0002068C0698007204602D0FFF7AEFF04E007
:1022E00000F088F8204600F017F92577206801698A
:1022F000C943C90617D4C168C943C90613D46FF0CE
:1023000010010161082020772068C06910F4407F27
:10231000204602D0FFF791FF04E000F06BF8204662
:1023200000F0FAF8257720680169C943C90708D188
:10233000C168C943C90704D1891E0161204600F064
:102340003BF920680169C943090609D4C168C9433A
:10235000090605D46FF0800101612046FFF789FE70
:1023600020680169C943490609D4C168C9434906BF
:1023700005D46FF040010161204600F043F9206868
:102380000169C94389060BD4C168C943890607D4CA
:102390006FF0200101612046BDE87040FFF76ABE82
:1023A00070BD000000B585B000210091019102913F
:1023B000039100680C49884213D10C48816941F0AF
:1023C000040181618069694600F0040004904FF4C3
:1023D0008050009002200190032003900448FEF7F3
:1023E0000BFF05B000BD00000004004000100240DB
:1023F00000080140704770B5044690F83C000D4657
:1024000001280AD0012084F83C0042B1042A18D0E7
:10241000082A2AD00C2A4DD139E0022070BD20684C
:1024200001F0D4FF2068816941F0080181612068D2
:10243000816921F004018161206881692A69114361
:1024400011E0206801F0EAFF2068816941F4006131
:1024500081612068816921F48061816120688169DE
:102460002A6941EA0221816124E0206802F002F831
:102470002068C16941F00801C1612068C16921F08B
:102480000401C1612068C1692A69114311E0206813
:1024900002F01CF82068C16941F40061C161206844
:1024A000C16921F48061C1612068C1692A6941EA7A
:1024B0000221C161002084F83C0070BD10B5040009
:1024C00003D094F83D0010B107E0012010BD0020BA
:1024D00084F83C00204600F01EF8022084F83D00FD
:1024E000211D206801F01CFF012084F8460084F8BB
:1024F0003E0084F83F0084F8400084F8410084F8EE
:10250000420084F8430084F8440084F8450084F8CD
:102510003D00002010BD70477047000010B5044614
:10252000022249B104290ED0082913D094F84100A1
:10253000012816D0012010BD94F83E000128F9D1E1
:1025400084F83E200FE094F83F000128F2D184F88F
:102550003F2008E094F840000128EBD184F84020A7
:1025600001E084F841200122206801F00FFF0F49AB
:102570002068884203D1426C42F4004242642068E1
:10258000884208D0B0F1804F05D00949884202D076
:102590000849884204D1816801F00701062903D067
:1025A000016841F001010160002010BD002C0140D4
:1025B000000400400008004070B504460068B0F117
:1025C000804F01D1FEF746FF0C492068884214D1A4
:1025D0000B4C00256068401C60600A2808D3A06886
:1025E000401CC4E901502068401C206002F0C8F87B
:1025F000A068B0F57A7F00D3A56070BD00040040EC
:10260000E00000207047704770B50268044610680B
:10261000D168536910F00F0F52D003F0010501F497
:1026200090762E435FD0C20705D0CA0503D5E26B72
:1026300042F00102E263420705D5DA0703D0E26BFC
:1026400042F00202E263820705D5DA0703D0E26BAB
:1026500042F00402E263020707D501F020022A4398
:1026600003D0E26B42F00802E263E26B002A33D04F
:10267000800604D5880602D5204601F09DFF20681B
:102680004069E16BC0F38010090700D428B32046ED
:1026900001F084FF2068416949061AD5416921F09B
:1026A00040014161606BA0B12D494163606BFEF751
:1026B00093FC002810D0606B416BBDE87040084768
:1026C000830610D58B060ED52046BDE8704001F07C
:1026D00073BF2046FFF797FF70BD2046FFF793FFBB
:1026E0000020E06370BD03062BD50B0629D594F8B6
:1026F00039002128F6D1A068B0F5805F01D12069AA
:10270000B0B1206A411C2162216800784860E08CE9
:10271000401E0004000CE084E4D12068C16821F070
:102720008001C1602068C16841F04001C16070BD96
:10273000206A0088C0F308005060206A801C206274
:10274000E5E74006F3D54806F1D5D168204621F0EB
:102750004001D160202184F8391000F0D8F970BD13
:102760008D45000870B5040004D094F839000025A8
:1027700010B106E0012070BD84F83850204600F00A
:1027800023F8242084F839002068C16821F400511E
:10279000C160204601F056FF2068016921F4904194
:1027A00001612068416921F02A0141612068C16806
:1027B00041F40051C160E563202084F8390084F8B9
:1027C0003A00002070BD00002DE9F04786B00025DA
:1027D0000646009501950295039500684649DFF885
:1027E0001C91474C02274FF4806A4FF0030888423F
:1027F0002ED1A06940F48040A061A06900F480401F
:102800000490A06940F00800A061A069CDF80C8098
:1028100000F0080004904815CDE9000769464846D5
:10282000FEF7EAFCCDE900A5694648460295FEF7A9
:10283000E3FC3448416821F0040141F0E06141606B
:10284000002205212520FEF783FE2520FEF772FEDB
:102850002D493068884220D1E06940F40030E061C1
:10286000E06900F400300490A06940F00400A06129
:10287000A069694600F0040004900420CDE9000737
:10288000CDF80C804846FEF7B7FC0820CDE90005DE
:10289000694648460295FEF7AFFC1C4930688842FD
:1028A00027D1E06940F48020E061E06900F48020F5
:1028B0000490A06940F00800A061A069144C00F0E9
:1028C0000800CDE90380CDE900A769462046FEF760
:1028D00093FCE014CDE90005694620460295FEF719
:1028E0008BFC002205212720FEF732FE2720FEF771
:1028F00021FE06B0BDE8F087003801400008014025
:102900000010024000000140004400400048004028
:10291000000C014090F83A30202B22D1F9B1F2B1ED
:1029200090F83830012B1CD081628285C28500214D
:10293000C163222280F83A2080F838100168CA6802
:1029400042F48072CA6001684A6942F001024A6139
:102950000068C16841F02001C1600020704701207B
:10296000704702207047000070B506460068324983
:102970000025324C88421BD12078FE2811D02570CA
:10298000A088802808D3A58080212D48FDF74DFC24
:102990002CA002F03FF904E0294AE1781154401CD0
:1029A000A080264926480122C91C4038FFF7B2FF03
:1029B0002749306888421CD16078FE2813D06570A2
:1029C000E088802809D31E48E5808021C030FDF7CB
:1029D0002CFC1CA002F01EF905E0194AE178C03277
:1029E0001154401CE080154915480122C91C803053
:1029F0001CE0184988421DD1A078FE2811D0A5708E
:102A00002089FF2808D9258189151348FDF70DFC79
:102A10000CA002F0FFF804E00F4AE1781154401CCA
:102A2000208106490C480122C91C4038BDE870408D
:102A3000FFF770BF70BD000000380140D0000020DB
:102A4000F82E0020CAFDBEDDD2E7B3F6000000007C
:102A50000044004000480040783000202DE9F84351
:102A6000044690F839001F4616460D4620284CD1E2
:102A7000C5B1BEB194F83800012846D0012084F8D1
:102A800038004FF00008C4F83C80212084F8390059
:102A9000FEF7B0FCA6848146E684A068B0F5805FAE
:102AA00003D004E00120BDE8F883206928B12E4658
:102AB0005FF0000584F838800EE00026FAE78021F8
:102AC000204601F01BFEA0B9AEB116F8010B21683B
:102AD0004860E08C401EE084E08C4B464FF00002E2
:102AE00000970028EBD14FF04001204601F006FE90
:102AF00030B10320D7E735F8020BC0F30800E6E752
:102B0000202084F839000020CDE70220CBE7704771
:102B10002DE9FC47044600780E46AA285AD1B11E7A
:102B20002046FDF796FEA11931F8021C814251D1D1
:102B3000294F207A294D4FF0000907F10408D8B336
:102B4000FF2847D101202870608808F1040A40BAA4
:102B500068806068E17900BA20F0FF00084368608F
:102B600001222946504601F0EDFE01222946504639
:102B700002F022FC0222A91C384601F0E3FE0222E8
:102B8000A91C384602F018FC0422291D474640467D
:102B900001F0D8FE0422291D384602F00DFCFF2367
:102BA000CDE90094698800206A6800F043FF31464F
:102BB000BDE8FC4701F0E0BC08490222891C384608
:102BC00002F0FAFB05490422091D404602F0F4FB1D
:102BD0000023E5E7BDE8FC8700FC0008800000203A
:102BE0002DE9FF4702A8FEF70FF9BDF8080040F2F3
:102BF000E47188427FD302A802F0FCFDDFF808816F
:102C00000746424D98F802000026D8B92846FEF73C
:102C10009BF9BDF80800ADF800009DF80A008DF89A
:102C200002009DF80B008DF8030028788DF8050050
:102C300068788DF806008DF80760684602F0DAFDC6
:102C4000C8F80400D8F804203148324C4FF4007121
:102C50004FF00109974250D388F802906B88BA1A56
:102C6000C3EB0317B2EB870F07D80022FEF7BCFBBC
:102C700066702879207028A038E0B5F805703B44CC
:102C8000C3EB0317B2EB870F07D80022FEF7ACFBAC
:102C90006670E879207025A028E02F891F44C7EBD3
:102CA0000717B2EB870F07D80022FEF79DFB66706F
:102CB000A87A207022A019E0B5F80B703B44C3EB52
:102CC0000313B2EB830F08D80022FEF78DFB66706A
:102CD000687B20701FA009E00DE00122FEF784FB55
:102CE00084F80190267088F802601FA003F046F86F
:102CF000207800F0FBF8BDE8FF870122FEF774FBA7
:102D000084F801902670F6E788000020E02C00206F
:102D1000000C0140044F00200D0ACAB1BFD8C4A363
:102D2000CABDBDD7B6CED2BB000000000D0ACAB1E5
:102D3000BFD8C4A3CABDBDD7B6CEB6FE0000000042
:102D40000D0ACAB1BFD8C4A3CABDBDD7B6CEC8FD8F
:102D5000000000000D0ACAB1BFD8C4A3CABDBDD7C8
:102D6000B6CECBC4000000000D0ACAB1BFD8C4A3C0
:102D7000CABDBDE1CAF8000000208CB0444FDFF8A6
:102D800014918DF818000546044606464FF4007A63
:102D90004FF00A0806A90020FEF704F99DF8180074
:102DA00003280DD1B4FBF8F108FB114040B9012212
:102DB00010214846FEF718FB10214846FEF70CFB91
:102DC000322C00D2BCB9002403A8FEF71DF89DF8F0
:102DD00011009DF813209DF812108DE807009DF852
:102DE0000F309DF80E20BDF80C102BA002F0C6FF8E
:102DF00007A801F037FD641CE4B2002205A9B868F9
:102E000003F082FF012807D0012E2AD0B4FBF8F18D
:102E100008FB1140A0B336E00126002527A002F0F0
:102E2000ADFF9DF81400012823D0012251464846E9
:102E3000FEF7DAFA25A000BF02F0A0FF9DF81510FA
:102E400024A002F09BFF07A801F00CFD0DF1150175
:102E500005A801F02DFD9DF8150000F047F8FDF7DD
:102E600001FE6D1CADB2B5F5167F0CD300263546BC
:102E700009E0002251464846FEF7B6FA19A0DBE702
:102E8000FFE7FFF7ADFE642003F0CEFB82E7000012
:102E900088000020000C01400D0A253032642D25E9
:102EA0003032642D253032642020253032643A25BA
:102EB0003032643A25303264200000000D0A6C651F
:102EC00064D1DDCABEC4A3CABD0000000D0A20B98A
:102ED000D8B5C6000D0A20C1C1B6C8B5F7D5FBA349
:102EE000BA2564000D0A20BFAAB5C60003494A7876
:102EF000824202D0487001F00BBB7047880000206E
:102F000010B50A2307A20B2107A000F013F8002830
:102F100007D00A23BDE8104002A20B2102A000F056
:102F200009B810BD4F4B000041542B5245424F4F42
:102F3000540D0A002DE9F0471E4C0F4680461D46F1
:102F400091464FF0FF31206903F07AFF802003F0B3
:102F5000CFF906460021A06903F072FF0022314636
:102F6000E06903F0D1FE304603F0F4FA39464046FA
:102F700001F0F8FA00231A464946E06903F0B6FD6D
:102F8000012802D00CA002F0F9FE642005FB00F13C
:102F9000A06903F055FF012809D0012500231A4636
:102FA0001946206903F0A2FD2846BDE8F0870025F8
:102FB000F4E70000A80000200D0A7820517565751F
:102FC0006553656E64206572726F722C204C6F724F
:102FD000615F434D445F51756575650070B54F4D38
:102FE0000024641CE4B20A2C01D9112070BD0A200F
:102FF00003F01AFB0A234AA204214AA0FFF79AFF12
:1030000020B1214649A002F0B9FEEAE70A2003F008
:103010000BFB0A2342A211214CA0FFF78BFF08B142
:103020004FA010E00A2003F0FFFAA9885348FDF7EB
:103030003FFE687078B10A2339A2112150A0FFF732
:1030400079FF18B153A002F099FECAE7A9884B484E
:10305000FDF72EFE68700A2003F0E6FA47481022BA
:1030600052498030FDF71FF998B90A232CA20D218F
:103070004FA0FFF75FFF08B151A0E4E73F4A29796D
:1030800080323E48FDF72EFE3C4953A0803102F0CD
:1030900075FE0A2003F0C8FA3848102243499030E0
:1030A000FDF701F9002822D10A231DA20D214EA00F
:1030B000FFF740FF08B150A0C5E7304A29799032A8
:1030C0002E48FDF70FFE2D4851A19030FDF7DDF899
:1030D00040B14FA000F0FAFF284A297990322748E2
:1030E000FDF700FE25494FA0903102F047FE0A206F
:1030F00003F09AFA002001F011F8FF2885D00A2089
:1031000003F092FA0A2306A20F214AA0FFF712FF4A
:1031100008B14CA097E7102070BD0000A800002067
:103120004F4B000041540D0A000000000D0A4154AD
:1031300020636F6E74696E75652E205265436F6EE5
:10314000666967436E743A202564000041542B4140
:1031500043544956454D4F44453D3F0D0A0000003C
:103160000D0A20636865636B204143544956454D01
:103170004F4445206572726F72000000162E0020C9
:1031800041542B4143544956454D4F44453D300D24
:103190000A0000000D0A207365742041435449560B
:1031A000454D4F4445206572726F720048740008A7
:1031B00041542B4445564555493D3F0D0A000000FA
:1031C0000D0A2041542B4445564555493D3F206545
:1031D00072726F72000000000D0A2044455645557A
:1031E000492025730000000041542B4150504555A3
:1031F000493D3F0D0A0000000D0A2041542B41506B
:10320000504555493D3F206572726F7200000000C5
:1032100030303030303030303030303030303031AD
:10322000000000000D0A20415050455549202573EB
:103230000000000041542B444556434C4153533D3C
:10324000320D0A000D0A2041542B444556434C418F
:1032500053533D32206572726F720000002408B52E
:103260002646A246DFF8B4904FF47A7808E000BF13
:10327000FFF7B4FE8DF8000069460120FDF792FECD
:103280009DF800001028F3D10527C346761CF6B23E
:10329000B6FBF7F007FB1060A8B9C84699F8041010
:1032A0001F48FDF735FD0546FF280AD198F80210A2
:1032B000491CC9B288F802100A2902D29DF80050B0
:1032C00001E088F802A09DF80000854207D011288F
:1032D0000FD08DF8005069460120FDF763FE9DF880
:1032E000000030B1112804D002280CD0032810D0DF
:1032F00010E0FFF705FE584603F096F9FFF76EFE63
:103300008DF8000006E0641CE4B23C2C02D30024DB
:10331000EFE70024584603F087F9B7E7A80000203C
:10332000162E002010B5134C606A400102D512A081
:1033300001F070FC606A000102D516A001F06AFC81
:10334000606AC00002D518A001F064FC606A8000C9
:1033500001D519A008E0606A400001D51DA003E076
:10336000606A002802DA21A001F054FC25490120FE
:10337000086010BD001002400D0AB7A2C9FAC0B41F
:10338000D7D4204E52535420D2FDBDC5B5C4B8B4D5
:10339000CEBB00000D0AB7A2C9FA20504F522F50E1
:1033A000445220B8B4CEBB000D0AB7A2C9FAC8ED8A
:1033B000BCFEB8B4CEBB00000D0AB7A2C9FAC0B4B7
:1033C000D7D4B6C0C1A2BFB4C3C5B9B7B8B4CEBB19
:1033D000000000000D0AB7A2C9FAB4B0BFDABFB44A
:1033E000C3C5B9B7B8B4CEBB000000000D0AB7A280
:1033F000C9FAB5CDB9A6BAC4B9DCC0EDB8B4CEBB74
:1034000000000000E004424270B506460C46881CED
:1034100002F07EFC05460470200A687022463146A0
:10342000A81CFCF7E9FE0B4800231A462946006A4F
:1034300003F00CFC012807D007A001F0EBFB2846A5
:1034400002F090FB012070BD284602F08BFB0020AB
:1034500070BD0000A80000200D0A785175657565E3
:1034600053656E64206572726F722C204750525300
:103470005F524543454956455F5175657565000086
:103480002DE9F04F85B00024404800940194029447
:103490000394816941F010018161816901F010019B
:1034A0000491816941F020018161816901F020016D
:1034B0000491816941F004018161816901F0040195
:1034C0000491816941F0080181618069012200F065
:1034D0000800DFF8BCA05502049029465046FDF7CD
:1034E00083FF0122D70339465046FDF77DFFDFF801
:1034F000A4B04FF48078012241465846FDF774FF8E
:10350000012210215046FDF76FFF4FF4C0590022F1
:1035100049465846FDF768FF0095022601250396A7
:10352000CDE9015469465046FDF766FE00970396C3
:10353000CDE9015469465046FDF75EFECDF80080A6
:103540000396CDE9015469465846FDF755FEA80398
:10355000CDE90004694650460294FDF74DFE102067
:103560000326CDE90005CDE9024669465046FDF740
:1035700043FECDF800900396CDE9015469465846C4
:10358000FDF73AFE05B0BDE8F08F000000100240E4
:10359000000C014000080140094810B507490160CE
:1035A0000421416040F6FF718160FDF729FF00288A
:1035B00003D0BDE81040FDF7EFBA10BD0030004069
:1035C000BC35002030B589B00024434805944149FA
:1035D00003940160611EC0E90114FEF70BFC08B101
:1035E000FDF7DAFA07A8FDF763FC01213A48FEF778
:1035F0005DFBA0F5A041513921D08DF81440012583
:103600008DF815408DF816502A4605A93248FEF768
:10361000BDFC08B1FDF7C0FA8DF80C508DF80D50C7
:103620008DF80E408DF80F40012203A92A48FEF7BD
:103630004BFC002801D0FDF7AFFA09B030BD0022E5
:1036400004A92548FEF769FB002206A92248FEF7D7
:103650003DFB9DF810009DF812209DF811108DE89B
:1036600007009DF81B109DF81A309DF819201BA02B
:1036700001F5FA6101F0CEFA02211748FEF716FBB8
:103680008DF80F0003211448FEF710FB8DF80D0094
:1036900004211148FEF70AFB8DF80E0005210E48A3
:1036A000FEF704FB8DF80C009DF810009DF8122029
:1036B0009DF811108DE807009DF80F109DF80E3051
:1036C0009DF80D2010A001F5FA6101F0A3FA002287
:1036D000ABE7000000280040603500200D0AC9CF8C
:1036E000B5E7CAB1BCE4A3BA253032642D25303227
:1036F000642D253032642020253032643A25303262
:10370000643A2530326420000D0AB1B8B7DDCAB181
:10371000BCE4A3BA253032642D253032642D253027
:1037200032642020253032643A253032643A253024
:103730003264200010B58CB00024079408940994DA
:103740001C2168460A94FCF770FDFEF7C9F8410099
:103750001B481A4A02601B4AB1FBF2F1491EC0E93C
:1037600001146321C0E9031480218161FEF783FC09
:1037700008B1FDF711FA4FF48050079007A91048DF
:10378000FEF7F0FC08B1FDF707FA0D48FEF796FECC
:1037900008B1FDF701FA6020CDE900040220029093
:1037A0000422694604940648FEF725FE08B1FDF799
:1037B000F3F90348FEF7F6FD0CB010BD000400401D
:1037C0007435002040420F000C4810B50A490160D2
:1037D0004FF4E1314160002181600C22C160C0E9F9
:1037E00004128161C161FEF7BDFF002803D0BDE86E
:1037F0001040FDF7D1B910BD00380140B82E0020AF
:103800000C4810B50A4901604FF4E13141600021D4
:1038100081600C22C160C0E904128161C161FEF7C0
:10382000A1FF002803D0BDE81040FDF7B5B910BDD9
:1038300000440040782F00200C4810B50A49016070
:103840004FF4E1314160002181600C22C160C0E988
:1038500004128161C161FEF785FF002803D0BDE835
:103860001040FDF799B910BD0048004038300020E5
:10387000FEE770B50546002486B00E46012080F3B1
:10388000108800F01FF82846FDF734FB0020009058
:1038900002953046FDF72EFB06462846FDF72AFB2B
:1038A000301A401C039004A96846FDF7F3FB00B1F1
:1038B0000124FDF743FC002080F3108806B0204669
:1038C00070BD000010B5FDF783FC02493520C860CB
:1038D000002010BD002002402DE9F05F17460025B2
:1038E0008B4680462E46044600EB070A3AE000BFAE
:1038F000AAEB0400012816D002281BD0032821D0EF
:10390000A4EB08001BF800205844D0F8010042EA5C
:10391000002081460246002321460220FDF718FCC4
:10392000C0B1012620E0A4EB08011BF8010060F003
:10393000FF00EEE7A4EB080101EB0B000088A0F507
:103940008030E6E7A4EB080101EB0B00006840F0D3
:103950007F40DEE758F80510494501D0022603E014
:10396000241D2D1DBD42C3D33046BDE8F09F7047D6
:1039700070B521A001F036F84FF496742046FDF79B
:1039800077FB1FA11F48FCF75BFC1BA001F02AF886
:103990002046FDF76DFB1AA11A48FCF751FC0546BD
:1039A00000F058FFCDB90122174E150229463046C6
:1039B000FDF71AFD2046FDF75BFB2046FDF758FB9F
:1039C0002046FDF755FB2046FDF752FB0022294615
:1039D0003046FDF709FD00F03DFF07A001F002F8B9
:1039E0002046FDF745FB00F035FFBDE8704004A11F
:1039F0000448FCF725BC000041540D0A00000000FB
:103A00004F4B0000F82E00200008014003A001F0F9
:103A100001F9642002F008FEFBE700000D0A537470
:103A200061727420506C6174666F726D5F54617363
:103A30006B0000002DE9F04114464ABA21BADDE9D5
:103A40000656124CAA2700F03F0027706070A27043
:103A5000100AE0702171080A6071080CA071080E4C
:103A6000E071237265722A46314604F10A00FCF7C0
:103A7000C3FB264605F10A013046FCF7EAFE611950
:103A80008872000AC8723046BDE8F081162D002009
:103A900010B5012002F0B6FF3D490028086052D061
:103AA000012002F0AFFF3B49002808604FD0012001
:103AB00002F0A8FF3849002808604CD002210022FB
:103AC000084602F0AAFF35490028086047D00322C3
:103AD0000021012002F0A1FF31490028086042D0F6
:103AE000002103F0ADF903220021012002F095FF2F
:103AF0002C49002808603AD0002103F0A1F90120E8
:103B000002F080FF28490028086034D0012002F02C
:103B100079FF26490028086031D000228021032047
:103B200002F07BFF2249002808602CD0002282216D
:103B3000032002F072FF1F490028086027D11EA051
:103B400001F068F8FEE723A001F064F8FEE727A083
:103B500001F060F8FEE72CA001F05CF8FEE732A06F
:103B600001F058F8FEE737A002F008F9FEE73CA0A4
:103B700002F004F9FEE741A002F000F9FEE745A0DB
:103B800002F0FCF8FEE74AA001F044F8FEE710BDA1
:103B9000DC0000209400002098000020900000200D
:103BA000C0000020CC000020B8000020BC00002095
:103BB000C4000020C80000200D0A204C6F72615F15
:103BC000524543454956455F517565756520657297
:103BD000726F72000D0A205072696E744D757465B3
:103BE00078206572726F720D0A0000000D0A205471
:103BF000696D65436F6E74726F6C4D757465782076
:103C00006572726F720D0A000D0A20456C6563744F
:103C1000726963446174614D757465782065727270
:103C20006F720D0A000000000D0A204C6564536895
:103C30006F775F5175657565206572726F720D0AD9
:103C4000000000000D0A204C6F72615F434D445F1D
:103C500053656D6170686F7265206572726F720076
:103C60000D0A204C6F72615F41434B5F53656D617C
:103C700070686F7265206572726F72000D0A204C59
:103C80006F72615F434D445F4D7574657820657256
:103C9000726F72000D0A204C6F72615F5354415471
:103CA00055535F4D75746578206572726F720000B0
:103CB0000D0A204C6F72615F434D445F517565750D
:103CC00065206572726F7200010901EB810100F0DD
:103CD0000F0000EB4100C0B27047002102E00A383B
:103CE000C0B2491C0A28FAD2090740EA116070479D
:103CF0002DE9F04104460025C07B627BA37B42E0B6
:103D0000012A16D0032A14D0052A12D0072A10D06F
:103D1000082A0ED00A2A0CD00C2A0AD0042A10D065
:103D2000062A0ED0092A0CD00B2A0AD0022A0DD05E
:103D300028E01F2B0CD30C2A05D101221346401C6E
:103D400020E01E2B04D30123521C1BE01C2B02D2AB
:103D500003F1010316E011D183B29E0710D164264E
:103D6000B3FBF6F706FB173636B94FF4C876B3FB4C
:103D7000F6F706FB17331BB91D2303E01D2B01D1FA
:103D8000032201236D1C8D42BAD3D1B2E07361735B
:103D9000DAB2A27300F050F82073BDE8F08170B57C
:103DA0000446FDF727FB05464FF47A7606E0FDF75B
:103DB00021FB401BB04201D9032070BD2068406840
:103DC0008006F4D52068416841F010014160002070
:103DD00070BD000070B504460068416821F0100114
:103DE0004160FDF707FB05464FF47A7607E000BF18
:103DF000FDF700FB401BB04201D9032070BD2068D5
:103E000040688006F4D5002070BD0168086A496AE0
:103E100089B241EA00407047006881698AB2C1698D
:103E20008BB2816989B28A4203D0C06961F31F40B5
:103E3000704743EA02407047F0B56424C1EBC10308
:103E40000927A500072603EB01130329B3FBF7F1AC
:103E500000F5FA60114401440AD2401EB0FBF4F2AE
:103E600001EB9001B0FBF5F0891A0844001D08E051
:103E7000B0FBF4F201EB9001B0FBF5F0891A0844B5
:103E8000801CB0FBF6F106FB1100C0B2F0BD70B5AE
:103E90000D4606460024FFF782FF48B93168280C1A
:103EA00008623168A8B248623046FFF793FF00B15C
:103EB0000124204670BD70B50D4606460024FFF76C
:103EC0006EFF48B93168280C88613168A8B2C861B2
:103ED0003046FFF77FFF00B10124204670BD00008F
:103EE0002DE9F0478CB001225B495C4801F064FA8F
:103EF000594F00243878012856D03C7041F60120F3
:103F000078807C60DFF85891DFF85881564DD9F8F9
:103F10000010564E4FF0010A414555D154A001F012
:103F20002DFF3078307029782970FF2901D064285E
:103F300002D985F800A034702A784FF400714F48F8
:103F4000FDF752FA3078FEF7D1FF2878D8B3002178
:103F500032784BA001F012FF40480E2207A908302A
:103F600001F02AFA9DF81C106320182903D29DF84D
:103F70001D103C2930D312218DF81C108DF81D40E6
:103F80004FF4B4718DF82000ADF81E10ADF821107B
:103F90003220ADF824408DF823008DF82640ADF88E
:103FA00027408DF829402FE02B492C480222891CFC
:103FB000083801F001FA284928480422091D001F89
:103FC00001F0FAF99EE705E034A001F0D7FEC9F848
:103FD0000080AEE70121BBE79DF82010632901D9DD
:103FE0008DF820009DF82310632901D98DF8230056
:103FF0009DF82610632901D98DF826009DF8291017
:10400000632901D98DF8290007A800F06DFC798893
:1040100026A07A6801F0B2FEBDF8240003AC9DF83A
:104020002930BDF827209DF8261084E80F009DF860
:1040300020009DF82320BDF821108DE80700BDF871
:104040001E309DF81D209DF81C101F4801F096FEA3
:104050000CB0BDE8F08700008000002008FC0008DC
:10406000004F0020CDAB3412054F0020044F00203C
:104070000D0AC8EDB8B4CEBB21212100000C0140CF
:104080000D0A4C65645374617475733A25642C4C45
:10409000656450776D3A2564000000000D0AC9CFB1
:1040A000B5E7B8B4CEBB2121210000000D0AB2FA59
:1040B000C6B7C0E0D0CD3A30782532582CC9E8B127
:1040C000B849443A256400005475000810B58EB014
:1040D000044634216846FCF7A8F822460AA168463F
:1040E00000F090FCC4B20A230BA221466846FEF7FA
:1040F00021FF002805D00A2307A221466846FEF7C3
:1041000019FF0EB010BD000041542B4150504555D1
:10411000493D3E25730D0A004F4B000030B58DB070
:104120000546FF2434216846FCF77FF82A460EA195
:10413000684600F067FCC1B2322912D80A230FA2E8
:104140006846FEF7F7FE58B12A460DA1684600F012
:1041500059FCC1B20A2309A26846FEF7EBFE00B97A
:104160002C460DB0204630BD41542B4445464155A8
:104170004C5450573D25640D0A0000004F4B000081
:1041800041542B43555252454E5450573D25640DD2
:104190000A00000010B5FFF7A3FE0E4C01202070AE
:1041A00002F0A4F92078012801D048B10AE0FCF718
:1041B00069FBFCF71FFCFCF795FBFCF7B7FB01E084
:1041C000FCF718FC0448406802F054FABDE81040BF
:1041D00002F0ACB98000002000000020F0B50446D9
:1041E000002318466FF02F060EE0255CA5F130077E
:1041F0000A2F02D300280AD008E003EB830306EB62
:104200004303401C2B44C0B28842EED31360F0BD80
:1042100030B5002307E0C45CCD5CAC4201D0002087
:1042200030BD5B1C9BB29342F5D3012030BD000032
:104230002DE9F0431E46914680464FF6FF778B42AC
:1042400012D800248D1B6D1C0CE000BF08EB04008D
:1042500032464946FFF7DCFF10B12046BDE8F08347
:10426000641CA4B2A542F1DC3846F7E710B5502033
:1042700080F31188BFF34F8FBFF36F8F02F042FFBF
:1042800018B104494FF080500860002080F3118875
:1042900010BD000004ED00E070B594B02821684620
:1042A000FBF7C3FF14210AA8FBF7BFFF00250F95FA
:1042B0000D2000904FF4803001AA109511951295B1
:1042C0004100012482E81300049402260694CDE9FB
:1042D00007604FF4601009906846FDF757FB0F2008
:1042E000CDE90A06A002CDE90C5002210AA80E95DC
:1042F000FDF740FA2002CDE90F400FA8FDF7C4F901
:1043000014B070BD704700000148FDF797BF000072
:10431000840300200148FDF791BF000074350020A0
:10432000F0B50268164B174C174D4FF08047984276
:1043300005D0B84203D0A04201D0A84203D122F058
:1043400070064A683243984205D0B84203D0A04272
:1043500001D0A84203D122F44074CA6822434C69B8
:1043600022F08002224302608A68C2620A68826286
:10437000984201D10969016301214161F0BD00004A
:10438000002C0140000400400008004010B501F07E
:104390001F030121046A99408C430462016A9A4018
:1043A0001143016210BD10B5846842EA032224F46F
:1043B0007F440A432243826010BD826822F070026B
:1043C0000A4342F0070181607047000030B5026A7D
:1043D00022F001020262026A4368846924F07305D4
:1043E0000C682C4322F002058A682A430A4DA84231
:1043F0000BD122F00805CA6823F440732A434D69A3
:1044000022F004021D438B692B4343608461496899
:104410004163026230BD0000002C014030B5026AE9
:1044200022F010020262026A436884690D6824F473
:10443000E64444EA05248D6822F0200242EA05128F
:104440000B4DA8420ED1CD6822F0800242EA05123F
:104450004D6923F4406343EA85038D6922F04002ED
:1044600043EA85034360846149688163026230BD29
:10447000002C014030B5026A22F480720262036AA5
:104480004268C46923F4007324F073050C682C435C
:104490008D6843EA05230C4DA8420ED1CD6823F464
:1044A000006343EA05234D6922F4405242EA0512B3
:1044B0008D6923F4806342EA05124260C461496851
:1044C000C163036230BD0000002C014030B5026AB8
:1044D00022F480520262046A4268C3690D6823F4C0
:1044E000E64343EA05238D6824F4005444EA053486
:1044F000064DA84204D14D6922F4804242EA851259
:104500004260C36149680164046230BD002C01400F
:1045100001490860704700003804004010B5036A84
:10452000046A24F001040462846924F0F00444EA7B
:10453000021423F00A020A438461026210BD10B51E
:10454000036A23F0100303628369046A23F470434F
:1045500043EA023224F0A00343EA011182610162BE
:1045600010BD00000A4601464FF47A730148FEF779
:1045700075BA0000B82E00200A4601464FF47A733F
:104580000148FEF76BBA0000782F002010B5406A92
:104590000021C185C184FEF736F810BD0168CA68E4
:1045A00022F49072CA6001684A6922F001024A61ED
:1045B000202180F83A10704710B590F83A1022295F
:1045C00001D0022010BD82684FF480539A4201D17D
:1045D000016921B1816A9A421BD04AB10AE002689E
:1045E000816A5268C2F308020A80816A891C08E065
:1045F000026972B10268526802F07F020A70816A31
:10460000491C8162C18D491E0904090CC18503D072
:1046100016E002685268F1E70168CA6822F02002D9
:10462000CA600168CA6822F48072CA6001684A6977
:1046300022F001024A61202180F83A10FEF794F935
:10464000002010BD70B5044600680169E26821F4DD
:104650004051114301612169A06808436169084321
:104660002168CA6841F20C639A430243CA60206819
:104670004169A26921F44071114341611E492068DA
:10468000884202D1FDF73CF901E0FDF729F900EB82
:10469000C00101EB0012606864218000B2FBF0F3FE
:1046A000B3FBF1F36FF018067343B2FBF0F5B2FB06
:1046B000F0F605EB8305322303EB0515B5FBF1F5A9
:1046C000B6FBF1F605F0F00505EB0615B2FBF0F6CA
:1046D000B2FBF0F0B0FBF1F06FF01802504306EBC4
:1046E000800003EB0010B0FBF1F0216800F00F0038
:1046F0002844886070BD0000003801402DE9F04179
:10470000984617460E460446069D1DE0681C1BD0C1
:104710002DB1FCF76FFEA0EB0800A84214D9206869
:10472000C16821F4D071C1602068416921F00101A4
:104730004161202084F8390084F83A00002084F890
:1047400038000320BDE8F0812068006836EA0000E8
:1047500004D00020B842D9D00020F3E70120F9E7C7
:104760000148FDF751BF0000B82E0020704700003F
:104770000148FDF749BF000038300020FEF7C8B9F6
:1047800070B5144CFE252078F0280ED2401CC0B223
:1047900020700A2809D3104E257010483188FEF782
:1047A00033FE00203080F02020700D480178F02981
:1047B00005D2491CC9B201700A2900D30570094805
:1047C0000178F02905D2491CC9B201700A2900D329
:1047D000057070BDD0000020D4000020F82E00200D
:1047E000D1000020D2000020134DDFF85090144E6D
:1047F000DFF85080144F4FF0000AF0242878FE288C
:1048000000D12C703078FE2808D1B9F8001021B101
:104810000E48FFF7B3FFA9F800A034703878FE28DF
:1048200005D1B8F8001009B1A8F800A03C706420C8
:1048300001F0FAFEE2E70000D0000020D6000020E0
:10484000D1000020D8000020D2000020B82F002086
:10485000FEE7000002494AF6AA20086070470000FF
:104860000030004070B50F4D04464FF0FF3128690D
:1048700002F0E6FA0C49A068002388600B484278F1
:104880004A7300788873206808602069086160684E
:104890004860207B08732869BDE870401A461946B5
:1048A00002F024B988000020C8350020044F002001
:1048B00070B50C46054601F019FE094B2A784FF4F5
:1048C00000715A702078187006480AB1002200E082
:1048D00001225A70FCF788FDBDE8704001F026BE49
:1048E000044F0020000C014070B5144D04464FF0F9
:1048F000FF31E86802F0A4FA114821780023017022
:10490000617841702179017161884180E179C171DB
:10491000B4F80510A0F80510A17A817221890181EF
:10492000617B4173B4F80B10A0F80B10E868BDE888
:1049300070401A46194602F0D9B8000088000020DD
:10494000EE2C00202DE9F0471646804687192348B3
:104950008946874218D8A6B1404600F00BFD041ED8
:1049600010D0522001F0D4F905000DD0DFF870A06E
:1049700001465222504600F01FFD184900204942CE
:104980000DE00020BDE8F0870120FBE708EB000206
:104990002A4419F800300A44401C82F80034B0421E
:1049A000F4D3022C03D139464046FEF762FF0120C2
:1049B00080F31088FEF786FF022C0BD03246494662
:1049C0004FEA0800FEF788FFFCF7B8FB002080F3F1
:1049D0001088D6E7522229465046F3E70000010826
:1049E00000FC00080FB4054B10B503A9044A029857
:1049F00000F024F910BC5DF814FB00004D5B0008CA
:104A0000200100200FB4084B10B504A902AA039896
:104A100000F014F9044602A9002000F0A6FC20468C
:104A200010BC5DF814FB00006B53000837B514464A
:104A30000846064B6A46214600F000F904466946DE
:104A4000002000F092FC20463EBD00006B530008A1
:104A50000907090E002804DB00F1E02080F80014AB
:104A6000704700F00F0000F1E02080F8141D70473F
:104A700002E008C8121F08C1002AFAD17047704727
:104A8000002001E001C1121F002AFBD17047000085
:104A90002DE9FF5F82B00021DDE90430020DDDF871
:104AA00040B0034318D044F61050A2F2FF32424304
:104AB0001514119801281FD0A5EB0B00401C5FEACC
:104AC000000A4FF000064E4FDFF83891B0465046CE
:104AD00015D5CAF1000413E0119801244AA3012856
:104AE00001D16FEA0B010298119AC0E90031C0E9C7
:104AF000024206B0BDE8F09FCBF10000DFE70446BC
:104B00000021404A491842EB0450CDE9001012E060
:104B1000E00707D032463B4640464946FBF7D0FB0C
:104B20008046894632463B4610461946FBF7C8FB8D
:104B300006460F466410002CEAD1DDE90401DDE9E8
:104B40000023BAF1000F06DAFBF7BAFB42464B46E8
:104B5000FBF7B6FB05E0FBF725FC42464B46FBF7AF
:104B600021FC04460E460022284BFBF7FBFD03D830
:104B70004FF0FF30014607E00022254B204631462A
:104B8000FBF730FDFBF7D5FD102409E0002C0ADB14
:104B90000A220023FBF798FC039B30321A55641E4F
:104BA00050EA0102F2D1641C039AC4F111031444C7
:104BB000119A012A03D0012208430DD10AE00843CB
:104BC00004D000204FF0110B119072E7A3EB0B05FE
:104BD0006D1E0DE05B4504DD4FF0000205F101059F
:104BE00004E003DA4FF00002A5F10105002AECD041
:104BF00002981199C0E90231C0E9004579E7000047
:104C0000000014400000F03F300000000000F043BE
:104C10000000E03F0FB4084810B503AA0299FFF75F
:104C200005FF0548FBF72AFB81B20348FFF7A4FC08
:104C300010BC5DF814FB0000783100202DE9FF4F17
:104C400095B09B468946064600250FE2252877D178
:104C500000242746F84A0121059400E0044316F891
:104C6000013F203B01FA03F01042F7D130782A28A7
:104C700011D06FF02F033078A0F13002092A16D836
:104C8000059A44F0020402EB820203EB4202104454
:104C9000761C0590EFE759F8042B0592002A03DAF9
:104CA000504244F40054059044F00204761C3078DD
:104CB0002E2816D116F8010F44F004042A280DD02E
:104CC0006FF02F023078A0F13003092B09D807EBE1
:104CD000870302EB4303C718761CF3E759F8047BFC
:104CE000761C30786C280FD006DC4C2817D068284A
:104CF0000DD06A2814D104E0742810D07A280FD17E
:104D00000DE044F400140AE044F4801401E044F49B
:104D100040147278824202D104F58014761C761C0D
:104D2000307866280BD013DC582877D009DC0028AF
:104D300075D04528F6D04628F4D047281AD19DE1F1
:104D400018E0632835D0642879D0652812D195E120
:104D5000702873D008DC6728F1D069286FD06E28DE
:104D60000DD06F2806D1B5E073282CD0752875D0EA
:104D7000782874D05A46179990476D1C75E1C4F392
:104D80000250022809D003280DD0D9F800100428B9
:104D90000DD00D6009F1040967E1D9F80010EA1798
:104DA000C1E90052F6E7D9F800100D80F2E70D7066
:104DB000F0E719F8041B8DF8001000208DF80100B1
:104DC000EA46012003E059F804AB4FF0FF306107D9
:104DD0004FF0000102D40DE008F101018846B9420C
:104DE0000FDA8045F8DB1AF808100029F4D108E042
:104DF00008F1010188468142FADB1AF808100029FF
:104E0000F6D105985B46A0EB080721463846179A6D
:104E100000F094FA284400EB080507E04DE029E192
:104E20000DE01AF8010B5A4617999047B8F101089E
:104E3000F7D25B4621463846179A13E142E00A2230
:104E40000092C4F302524FF0000A022A08D059F827
:104E500004CB032A4FEAEC710AD00DE029E02AE0E6
:104E600009F1070121F00702F2E802C1914609E0C9
:104E70000FFA8CFC4FEAEC71042A03D14FFA8CFC38
:104E80004FEAEC71002907DA0A460021DCF1000C38
:104E900061EB02012D2202E0220504D52B228DF8C0
:104EA0000420012203E0E20701D02022F7E7904628
:104EB00059E00A2102E010220DE010214FF0000A13
:104EC00000910BE010224FF0000A44F00404082780
:104ED000009203E008224FF0000A0092C4F302524D
:104EE000022A05D059F804CB0021032A08D009E092
:104EF00009F1070121F00702F2E802C1914605E03D
:104F00001FFA8CFC042A01D10CF0FF0C4FF00008B2
:104F1000220728D5702806D0009B83F0100353EA9F
:104F20000A0305D00EE040228DF80420012208E09B
:104F30005CEA010206D030228DF804208DF80500CD
:104F400002229046009B83F0080353EA0A030AD129
:104F50005CEA010201D1620705D530228DF80420F8
:104F60004FF001087F1E582804D034A003900EA8EB
:104F700002900DE036A0F9E753466046009AFBF731
:104F8000A3FA84460398825C0298401E0290027045
:104F90005CEA0100F0D1029806A9081A00F1200A83
:104FA000600702D524F4803400E00127574502DD74
:104FB000A7EB0A0000E0002000EB0A010090059832
:104FC0004144401A0590E00306D45B462146179AF7
:104FD000059800F0B3F90544002706E001A85A46F9
:104FE000C05D179990476D1C7F1C4745F6DBE003B9
:104FF0000CD55B462146179A059800F09FF90544A9
:1050000004E030205A46179990476D1C0099481EBD
:1050100000900029F5DC08E0029802995A460078D1
:10502000491C0291179990476D1CBAF10001AAF131
:10503000010AF1DC65E1000009280100303132335A
:1050400034353637383961626364656600000000C4
:1050500030313233343536373839414243444546AE
:105060000000000000F058F90544761C3078002854
:105070007FF4ECAD19B02846BDE8F08F620700D48C
:10508000062709F1070222F0070CFCE80223E1469B
:1050900003F000485FEA080C02D00FF2702C0DE01C
:1050A0005FEA045C02D50FF2682C07E05FEAC47C7B
:1050B00002D00FF2602C01E0AFF2700C4FF0FF381D
:1050C00023F00043CDF850C065280CD006DC4528FD
:1050D00009D046281DD047283DD13DE0662818D08C
:1050E00067287ED138E00021112F01DB112000E07C
:1050F000781CCDE9000106A90EA8FFF7C9FCDDE97F
:105100000F010E9A03910021009207F1010A049108
:105110004DE04FF000400097CDE9011006A90EA820
:10512000FFF7B6FCDDE90F0203920E9B11990022F6
:10513000DDF80CA00093049211B9791C00EB010A70
:10514000B7EB0A0004D4C0F1FF3007F1010A049064
:10515000AAEB0700019044E0012F00DA01270021AB
:10516000112F01DD112000E03846CDE9000106A92C
:105170000EA8FFF78DFCDDE90F010E9A03910021C7
:1051800004910092BA4621070CD40399514500DAE4
:105190008A46BAF1010F05DD009AAAF10101515CBE
:1051A000302908D0B84202DA10F1040F06DA0121E2
:1051B000CDE9011015E0AAF10101E9E7002805DCBD
:1051C000049901440491AAEB000102E0411C5145FD
:1051D00000DD8A460499401A401C01904FF00040BF
:1051E0000290200704D40198504501DBCDF80480DB
:1051F00000208DF84F0002980DF14F07B0F1004FDD
:1052000025D02B200E9002984FF0020800280CDACF
:10521000404202902D200E9007E00A210298FBF7F1
:105220003DF93031029007F8011DB8F10001A8F1F5
:105230000108F2DC02980028EFD1791E0E98087060
:10524000307800F0200040F0450007F8020D12A869
:10525000C01B00F107081498007800B1012000EB92
:105260000A01019801EBE07105984144401A401E83
:105270000590E00306D45B462146179A059800F096
:105280005DF805441498007818B15A46179990476C
:105290006D1CE00324D55B462146179A059800F063
:1052A0004DF805441CE00498002807DBDDE9030104
:1052B000884203DD0098405C179901E0179930207F
:1052C0005A469047049805F10105401C0490019846
:1052D000401E019004D12E205A46179990476D1C0C
:1052E000BAF10001AAF1010ADDDC05E017F8010BB3
:1052F0005A46179990476D1CB8F10001A8F10108B2
:10530000F4DC5B462146179A0598ABE62D000000B9
:105310002B000000200000002DE9F041044600258C
:105320001E461746880404D405E039462020B047BD
:105330006D1C641EF9D52846BDE8F0812DE9F041C9
:10534000044600251E469046C80301D5302700E0DC
:105350002027880404D505E041463846B0476D1C37
:10536000641EF9D52846BDE8F0810A68531C0B601D
:105370001070704770B50F4C8318A34201D90320F9
:1053800070BDA2B1012400230BE005780E78AE4277
:1053900004D0FF2D01D0022070BD0024401C491C08
:1053A0005B1C9342F1D3012C01D0012070BD002081
:1053B00070BD00000000010810B5094C8318A3421D
:1053C00002D80AB1002306E0012010BD10F8014BFD
:1053D00001F8014B5B1C9342F8D3002010BD000084
:1053E000000001082DE9F047394C8AB0804660681A
:1053F0000390A06800900026607815468A46B14662
:10540000D0B1A078A8B9334801268269C8F8002035
:105410004069E168401E88420BD3226911448142F1
:1054200007D3BAF1010F04D902264FF00109C8F8D9
:105430000400E07838B90BE0FAF7B4FE0746FAF753
:10544000AEFE874204D16A4603A9284600F0B8FBA5
:10545000A07838B10398854203D300990844A84244
:1054600000D20546D4E90313009A03981044A842D9
:105470002AD92868C20725D0401E884222D3CA18DC
:1054800082421FD3102E1DD230F8022C30F8044C6B
:105490001F27B7EBD22F03D11E27B7EBD42F03D092
:1054A0004724B4EB122F0DD156450BD2022E06D154
:1054B000B9F1000F03D0D8F80420824202D048F896
:1054C0002600761C2D1DCFE70AB03046BDE8F087D8
:1054D000EC000020CC3600202DE9F04190B00646CB
:1054E0000D462022664906A8FAF786FE654C6068DC
:1054F0000E90A0680590207858B1607898B1604A05
:1055000061A1163A63A0FFF76DFA6AA0FFF76AFA85
:10551000FEE75B4A68A1163A5EA0FFF763FA65A052
:10552000FFF760FAFEE74FF0010884F8018064A0FD
:10553000FFF758FA5FA0FFF755FA00F001F9504F56
:10554000C6F38000E070DC3FB0B101F0F7F810B1B5
:1055500001F0F4F800E05BA0BA6A01461046FFF7DC
:1055600041FA54A0FFF73EFAFAF719FE054605AADC
:105570000EA900F025FB05E0F86AFFF733FA4DA00D
:10558000FFF730FA0E9805F12006864203D30599FD
:105590000144B14201D284F802803246059900F0FC
:1055A0006DF9A078494C00283ED1386BFFF71AFA04
:1055B00040A0FFF717FA2F68276069686160A86844
:1055C000A060EA68E2602B6923616B696361AB6983
:1055D000A361EB69E361DDE908350091CDE90130B4
:1055E000CDE90352DDE906133A4639A0FFF7FAF98F
:1055F00030A0FFF7F7F90DF104080C98E3690D9A54
:10560000A16988E80F00606900900B9B226930A0B7
:105610000A99FFF7E7F927A0FFF7E4F937A0FFF7AA
:10562000E1F924A0FFF7DEF94448006844F8200FB0
:105630004248001D00782071404810300068A0608A
:105640003E48401D007820733C48143000682061BB
:105650003A48801D0088A082384808300068A06160
:1056600036480C300088E0613448183000882062E9
:1056700000F062F9304600F0A3FB10B0BDE8F08105
:1056800034750008EC000020216F6E5F6661756C58
:1056900074000000282573292068617320617373EA
:1056A000657274206661696C65642061742025737D
:1056B0002E0000000D0A0000696E69745F6F6B00B8
:1056C000000000004E4F5F4E414D4500CC3600209B
:1056D000202025733A2025303878202025733A2061
:1056E00025303878202025733A202530387820203E
:1056F00025733A2025303878000000003D3D3D3DBF
:105700003D3D3D3D3D3D3D3D3D3D3D3D3D3D3D3DC9
:105710003D3D3D3D3D3D3D3D3D3D3D3D3D3D3D3DB9
:105720003D3D3D3D3D3D3D3D3D3D3D3D3D3D3D3DA9
:105730003D3D3D3D3D3D3D3D3D3D000024ED00E016
:1057400010B50748074BA3F120024068A2F12001E1
:10575000FFF748F9BDE8104003A0FFF743B9000088
:10576000587400081C3600200D0A000070B50C4665
:105770001546014620221448FAF774FD12482022EB
:1057800021462030FAF76EFD0F482022294640308E
:10579000FAF768FD0E480D490E4A4160521A0E494B
:1057A0000E4BC0E90221A3EB0101016102D00121EE
:1057B000017070BD0A480068FFF714F9BDE8704039
:1057C00008A0FFF70FB90000DC35002010390020D9
:1057D000EC000020103D002000000008747E00084E
:1057E000587400080D0A0000014900200860704745
:1057F000E00000202DE9F0410024054640F2B27798
:1058000026460AE0384600F019FA10B104F5B774DC
:1058100001E004F26D147F1CBFB22888B842F1D8B1
:10582000144FA7F10C08A878401EB0420BDD288861
:1058300000F004FA08B1B85D01E018F80600761C23
:105840000444B6B2EFE7E878641E0B4920444843AD
:105850006979C1EB4112C2EB012100EB0110A9797A
:10586000C1EB011100EB8100E9790844A0F5E140AA
:10587000BDE8F0810C010020805101002DE9F041CC
:10588000064619481446194F827875188AB1C078AF
:1058900008B1B86900E0F8692146FFF7A3F814A041
:1058A000FFF7A0F8B44201D2344602E0A54200D28C
:1058B0002C463869FFF796F80DA0FFF793F808E03B
:1058C00021460CA02268FFF78DF809A0FFF78AF89F
:1058D000241DA542F4D80EA0FFF784F8BDE8F041DE
:1058E00003A0FFF77FB80000EC0000205874000808
:1058F0000D0A00002020616464723A202530387857
:1059000020202020646174613A202530387800001E
:105910003D3D3D3D3D3D3D3D3D3D3D3D3D3D3D3DB7
:105920003D3D3D3D3D3D3D3D3D3D3D3D3D3D3D3DA7
:105930003D3D3D3D0000000070B5814D814C95F826
:105940003800800705D5606BFFF74CF87EA0FFF7A5
:1059500049F8A86B400079D595F82400A8B3C00792
:1059600005D0A06BFFF73EF877A0FFF73BF895F85E
:105970002400800705D5E06BFFF734F872A0FFF72D
:1059800031F895F82400000705D5206CFFF72AF8B8
:105990006DA0FFF727F895F82400C00605D5606CC8
:1059A000FFF720F868A0FFF71DF895F8240001061E
:1059B0000BD5C10701D1800707D5A96AD4F890009B
:1059C000FFF710F860A0FFF70DF895F82C00E0B392
:1059D000C00705D0E06CFFF705F85BA0FFF702F801
:1059E00095F82C00800705D5206DFEF7FBFF56A02B
:1059F000FEF7F8FF95F82C00400705D5606DFEF71F
:105A0000F1FF51A0FEF7EEFF95F82C00000705D539
:105A1000A06DFEF7E7FF4CA0FEF7E4FF95F82C0021
:105A2000C00605D5E06DFEF7DDFF47A0FEF7DAFF03
:105A300095F82C0001060CD580070AD5296BD4F8FF
:105A40009400FEF7CFFF40A001E002E03BE0FEF74C
:105A5000C9FFA88EB8B3C00705D0606EFEF7C2FFBD
:105A600039A0FEF7BFFF95F83400800705D5A06E7A
:105A7000FEF7B8FF34A0FEF7B5FF95F834004007F5
:105A800005D5E06EFEF7AEFF2FA0FEF7ABFF95F851
:105A90003400000705D5206FFEF7A4FF2AA0FEF70B
:105AA000A1FFA88EC00505D5606FFEF79BFF26A05D
:105AB000FEF798FFA88E800505D5A06FFEF792FF30
:105AC00021A0FEF78FFFA86B002838DAE86B0028CA
:105AD00035D0C00705D0E06FFEF784FF1AA0FEF7AF
