:020000040800F2
:1000000028400020A90100083D490008CD01000852
:10001000AD440008D91500086D5B00080000000021
:1000200000000000000000000000000001010008C6
:10003000111900080000000045010008CD56000815
:10004000C3010008C3010008C3010008C301000880
:10005000C3010008C3010008C3010008C301000870
:10006000C3010008C3010008C3010008C301000860
:10007000C3010008C3010008C3010008C301000850
:10008000C3010008C3010008C3010008C301000840
:10009000C3010008C3010008C3010008C301000830
:1000A000C3010008C3010008C3010008C301000820
:1000B0006957000875570008C3010008C30100080C
:1000C000C3010008C3010008C3010008C301000800
:1000D000C3010008FD590008095A0008155A000814
:1000E000C3010008C3010008C3010008DFF80CD0F9
:1000F00000F00CFC00480047A96F000828400020D1
:10010000224B19680868B0E8F00F80F30988BFF344
:100110006F8F4FF0000080F311884EF00D0E704786
:100120000000000006480068006880F3088862B696
:1001300061B6BFF34F8FBFF36F8F00DF00BF00BF0B
:1001400008ED00E0EFF30980BFF36F8F0F4B1A68E3
:1001500020E9F00F106008B54FF0500080F31188CF
:10016000BFF34F8FBFF36F8F07F074FD4FF00000A8
:1001700080F31188BDE8084019680868B0E8F00FFE
:1001800080F30988BFF36F8F704700BF180000200D
:10019000EFF3058070470000EFF308807047EFF33E
:1001A0000980704768467047064880470648004700
:1001B000FEE7FEE7FEE7FEE7FEE7FEE7FEE7FEE717
:1001C000FEE7FEE765570008ED0000087046694647
:1001D00006F028FBFFF7FEFF202A04DB203A21FA75
:1001E00002F00021704721FA02F3D040C2F1200250
:1001F000914008431946704740EA01039B0703D02A
:1002000009E008C9121F08C0042AFAD203E011F855
:10021000013B00F8013B521EF9D27047D2B201E017
:1002200000F8012B491EFBD270470022F6E710B5FB
:1002300013460A4604461946FFF7F0FF204610BD54
:1002400010B5044604E00B7800F8013B03B1491CEB
:10025000521EF8D2204610BD421C10F8011B002986
:10026000FBD1801A704780EA010210B502F000430A
:10027000400022D04A001FD0010E01EB1261C0F3F2
:100280005600C2F3560240F4000042F40002A0FB04
:10029000022000047F39140400D0401C50EA1240B0
:1002A00001D44000491EC2B20C0604EBD010401C21
:1002B0004008802A02D003E0002010BD20F0010099
:1002C000002900DA0020184310BD30B480EA010292
:1002D00002F0004530F0004221F0004013D090B110
:1002E000C30DD40DC2F31601C0F31600E41A41F495
:1002F000000140F400027D34914201D3641C00E00F
:100300004900002C02DA30BC002070474FF4000096
:100310000023914201D3891A034340084FEA410167
:10032000F7D151B1914202D14FF0004105E002D224
:100330004FF0010101E06FF0010103EBC4502844CC
:1003400030BC00F078B92DE9FE4F81EA030404F0D7
:10035000004421F0004100944FF0000B23F00043D3
:1003600050EA01045ED052EA03045BD0C3F30A549E
:10037000C1F30A552C44A4F2F3340194A0FB0254B7
:10038000C1F3130141F48011C3F3130343F4801349
:1003900001FB024400FB034E840A970A44EA81549D
:1003A00047EA8357A4FB076802958D0A05FB07857A
:1003B0004FEA932C04FB0C542705029D4FEA065884
:1003C00047EA1637B5EB08056EEB070C870E920E61
:1003D00047EA811742EA8312A7FB0201B6EB0B0141
:1003E00064EB00042B0D43EA0C335E1844EB1C5005
:1003F000DA465146E7FB0201C5F313044FEA0B331B
:1004000043EA14534FEA0432019C43EA0603A4F181
:100410000C040294009CCDE900B400F052F903B042
:10042000BDE8F08F00200146F9E72DE9F04D81EAA3
:10043000030404F0004B21F0004514464FF0000A7D
:1004400023F0004150EA050220D054EA01021DD0F9
:10045000C5F30A570246C5F31303C1F31300C1F3F2
:100460000A5640F4801543F48013A7EB0608101BCE
:10047000D64608F2FD3873EB050002D308F10108F7
:1004800001E092185B41B8F1000F03DA0020014649
:10049000BDE8F08D00204FF48011064684460EE042
:1004A000171B73EB050705D3121B63EB050306430C
:1004B0004CEA010C49084FEA300092185B4150EABF
:1004C0000107EDD152EA030012D082EA040083EA68
:1004D0000501084305D0101BAB4106D201220023C1
:1004E00006E000224FF0004302E06FF001025310DB
:1004F0001AEB06004CEB085110EB0A0041EB0B0124
:10050000BDE8F04D00F0CEB80EB540F23341029197
:100510000021CDE900110A460B4600F0D2F803B0E5
:1005200000BD20F00040C10DC0F3160040F40000F3
:100530007F2901DA00207047962903DCC1F196017A
:10054000C840704796398840704700F0004230F04C
:1005500000400AD0C10D01F56071C0F3160042EAF7
:100560000151C208400711437047002001467047FF
:1005700001F0004330B421F0004150EA010206D0FE
:100580000A0DA2F56072C1F31301002A02DC30BC2F
:1005900000207047440F44EAC104C100E01830BC99
:1005A00000EBC25000F047B830B50B4601460020C2
:1005B0002022012409E021FA02F59D4205D303FA25
:1005C00002F5491B04FA02F52844151EA2F10102A6
:1005D000F1DC30BD2DE9F05F0546002092469B46D8
:1005E00088460646814640241BE028464146474649
:1005F0002246FFF7F1FD53465A46C01A914110D3E7
:1006000011461846224600F093F92D1A67EB0108AF
:100610004F4622460120002100F08AF917EB00091D
:100620004E41201EA4F10104DFDC484631462A4633
:100630004346BDE8F09F0029A8BF7047401C490011
:1006400008BF20F00100704710B4B0FA80FC00FA37
:100650000CF050EA010404BF10BC704749B1CCF162
:10066000200421FA04F411FA0CF118BF01212143EE
:100670000843A3EB0C01CB1D4FEA00614FEA1020A9
:1006800042BF002010BC704700EBC350104400294B
:10069000A4BF10BC7047401C490008BF20F00100F7
:1006A00010BC704710B5141E73F1000408DA401C2A
:1006B00041F1000192185B411A4301D120F0010081
:1006C00010BD2DE9F04D92469B4611B1B1FA81F271
:1006D00002E0B0FA80F22032904600F029F9044698
:1006E0000F4640EA0A0041EA0B0153465A460843C6
:1006F00013D0114653EA010019D0C8F14002504608
:10070000FFF76AFD05460E4650465946424600F040
:100710000FF9084305D0012004E020463946BDE822
:10072000F08D0020054346EAE0762C4337430A98D3
:100730006305E40AA0EB08000022FD0A44EA4754DE
:100740000A3002D500200146E9E701051019694188
:10075000DDE9084500196941BDE8F04DA2E72DE942
:10076000FE4F804681EA0300C00F0C46009021F046
:10077000004123F00045B8EB0200A94105D24046F4
:10078000214690461C460B46024623F0004010438B
:1007900047D0270DC7F30A00C3F30A510290401A4D
:1007A000019040286BDAC3F3130040F4801B0098DB
:1007B000924620B10023D2EB030A63EB0B0B0198A6
:1007C0005946C0F14002504600F0B2F806460D46C8
:1007D00050465946019A00F0BAF810EB0800614102
:1007E000002487EA115284EAE7731A4340D0009A42
:1007F00062B3019A012A4FEA075215DC001B61EB34
:1008000002014FF0004202EA0752CDE90042001C0B
:1008100041F5801132462B46FFF753FF03B0BDE888
:10082000F08F40462146F9E7001B61EB0201001CF6
:1008300041F5801300185B412018A2F5001747EB23
:10084000030140EAD570B6196D4111E06D084FEA19
:10085000360645EAC0754FEA0752001B61EB0201FC
:10086000001C41F5801149084FEA30000019514140
:1008700032462B4603B0BDE8F04FFFF713BF009898
:10088000012240000023D0EB020263EBE0730098EA
:1008900021464FEAE074B8EB000061EB0401E9E7A0
:1008A00083F000435BE781F0004158E7C1F30A524F
:1008B000C1F3130140F2FF3341F480119A4202DA8E
:1008C00000200146704740F233439A42A2F233427D
:1008D00002DC5242FFF780BC00F02AB830B5041E9B
:1008E00071F1000404DB4FF00044404264EB01016D
:1008F000141E73F1000405DB1C464FF00043524206
:1009000063EB0403994208BF904230BD064C074D8B
:1009100006E0E06840F0010394E8070098471034CF
:10092000AC42F6D3FFF7E6FBDC910008FC9100082F
:10093000202A04DB203A00FA02F10020704791409F
:10094000C2F1200320FA03F3194390407047202A94
:1009500006DBCB17203A41FA02F043EAE07306E0E7
:1009600041FA02F3D040C2F12002914008431946F7
:10097000704770B58C1810F8015B15F0070301D1B2
:1009800010F8013B2A1106D110F8012B03E010F8F2
:10099000016B01F8016B5B1EF9D12B0705D4002315
:1009A000521E0DD401F8013BFAE710F8013BCB1AB7
:1009B000921C03E013F8015B01F8015B521EF9D5AC
:1009C000A142D8D3002070BD1CB507490520CDE950
:1009D00000010648AA2302680548018805480078F6
:1009E00004F058F91CBD0000C9000020840000205C
:1009F000820000208800002010B5084C86B002203C
:100A0000207060700020A070684601F0A3F90520F6
:100A1000E0709DF80C00207106B010BDC9000020E8
:100A2000FF21A0F13002092A01D8D1B20BE0A0F1D8
:100A30004102192A01D8373804E0A0F16102192ACD
:100A400001D85738C1B208467047000010B50323DB
:100A50000CA204210CA003F081FE032309A20421AF
:100A600009A003F07BFE032306A2042106A003F0E5
:100A700075FE0323BDE8104002A2042102A003F08A
:100A80006DBE00004F4B000041540D0A00000000F5
:100A900010B58EB0044634216846FFF7C6FB2246E7
:100AA00008A1684605F054F9C4B2032309A22146FF
:100AB000684603F053FE0028F7D009A006F008FBB3
:100AC0000EB010BD41542B5149434C4F53453D2569
:100AD000640D0A00434C4F5345204F4B000000006B
:100AE0000D0AB7FECEF1C6F7B6CFBFAAC1ACBDD3D3
:100AF00000000000F0B593B0064600200D461290AD
:100B00001746342105A8FFF790FB0024012E02D0E0
:100B1000022E02D004E01FA000E01FA00068129087
:100B2000E878A9786A78CDE90210019204972878CC
:100B3000009012AB324619A105A805F009F9C1B21F
:100B4000032322A205A803F009FEE0B9234D4FF6C6
:100B5000FF764FF47A77641CE4B2052C07D312A910
:100B60001FA006F0B5FA4FF0FF3013B0F0BD0C2314
:100B700016A229881F4804F08BFDB04203D13846E5
:100B800006F01EFFE7E712A91BA006F0A1FA00205D
:100B9000EBE70000544350005544500041542B51A2
:100BA000494F50454E3D25642C302C222573222C74
:100BB0002225642E25642E25642E2564222C25648E
:100BC0002C313233342C310D0A0000002B51494FA7
:100BD00050454E3A20302C3000000000D00000205C
:100BE0000D0A2573B7FECEF1C6F7C1ACBDD3CAA7B7
:100BF000B0DC00004E3000200D0A2573B7FECEF1A8
:100C0000C6F7C1ACBDD3B3C9B9A6000038B500243E
:100C1000641CE4B2052C05D947A006F059FA4FF040
:100C2000FF3038BD4FF47A7006F0CAFE032345A2A8
:100C3000042145A003F092FD0028E9D0032341A23E
:100C4000062143A003F08AFD0028E1D003233DA242
:100C5000052141A003F082FD03233AA20B2140A00D
:100C600003F07CFD0028D3D0032336A20E213FA041
:100C700003F074FD322341A20A2144A003F06EFD6B
:100C80000028C5D0032344A2092144A003F066FD37
:100C90000028BDD003232BA20B2143A003F05EFD4F
:100CA0000028B5D043480188434800F0AFFC40B16C
:100CB000214642A006F00CFA40F6B83006F080FE5D
:100CC000A6E703231FA20C2146A003F047FD322311
:100CD00048A20B214AA003F041FD002898D003232D
:100CE0004AA20B214CA003F039FD002890D0032329
:100CF0004CA20D214EA003F031FD002888D0032323
:100D000010A21B214EA003F029FD002880D000F086
:100D100027FF8DF80000632801D00A2805D20020A3
:100D20008DF801004DA006F0D3F96946012001F0CD
:100D30001BF9002038BD00004154204572726F72CB
:100D4000210D0A004F4B000041540D0A0000000025
:100D5000415445300D0A00004154490D0A0000007D
:100D600041542B4346554E3D310D0A0041542B5101
:100D700049434C4F53453D300D0A00002B43504929
:100D80004E3A2052454144590000000041542B4343
:100D900050494E3F0D0A00003436300041542B4379
:100DA000494D490D0A00000041542B434752454725
:100DB0003F0D0A00D00000204E3000200D0A4154A3
:100DC0002B43475245472062616B206E6F74203180
:100DD000206F7220352E207265636E743A20256470
:100DE0000000000041542B43474154543D310D0A4B
:100DF000000000002B43474154543A2031000000CA
:100E000041542B43474154543F0D0A002B43455254
:100E100045473A20302C310041542B434552454739
:100E20003F0D0A002B434750414444523A203100C1
:100E300041542B434750414444523F0D0A000000A7
:100E400041542B51494346473D2264617461666FAA
:100E5000726D6174222C312C310D0A00D0C5BAC5D7
:100E6000CBD1CBF7CAA7B0DCA3ACC7EBB2E9BFB418
:100E7000D4ADD2F2210D0A00F0B5A1B00E4607465E
:100E800080216846FFF7D1F9324611A1684604F087
:100E90005FFFC5B26C460DEB05023146384600F0E7
:100EA00007FD05EB46010D2060540A190A20507019
:100EB000881C802805D90BA006F00AF9002021B073
:100EC000F0BD03230CA26846891C03F047FCF6E73B
:100ED00041542B514953454E4445583D302C2564CF
:100EE0002C0000000D0AB7A2CBCDCAFDBEDDB3A415
:100EF000B6C8B9FDB3A4000053454E44204F4B0083
:100F00000178427811448278C07810440844C04384
:100F1000C0B2704710B50024152000F057FA3328EE
:100F200000D00124204610BD70B5224D4FF48074CE
:100F300000222146284601F047FA0A2001F088F8ED
:100F400001222146284601F03FFA1E2001F080F8D8
:100F500000231A4655213E2000F06AFA012001F0D4
:100F600077F8202300220121142000F061FA0120EB
:100F700001F06EF800231A463321152000F058FACC
:100F8000012001F065F800231A462821392000F0DD
:100F90004FFA012001F05CF8012001F059F800231C
:100FA0001A4619463E2000F043FABDE87040012081
:100FB00001F04EB8000C01402DE9F04F044699B005
:100FC0003A2000F003FA17903E2000F0FFF9069057
:100FD000142000F0FBF90790152000F0F7F90890B5
:100FE000392000F0F3F90990372000F0EFF90A906A
:100FF000072000F0EBF90C90052000F0E7F90D90C8
:10100000062000F0E3F90E90132000F0DFF901460E
:1010100013907CA006F05CF80D2000F0D7F9169034
:101020000C98FFF771FA7D4A7D4BFFF7FEF9FFF749
:101030009FFA00900D98FFF767FA7A4E7A4F324682
:101040003B46FFF7F2F9FFF793FA05460E98FFF7D4
:101050005BFA32463B46FFF7E8F9FFF789FA834629
:1010600029460098FFF7FFF8824659460098FFF797
:10107000FAF801901398FFF747FA6C4A6C4BFFF7A8
:10108000D4F9FFF775FA07461698FFF73DFA0646BA
:1010900088463846FFF759FA0022664BFFF753F9A6
:1010A00002460B4630464146FFF7BFF9FFF760FAAC
:1010B000614E804631462846FFF7D5F8FFF731FAF2
:1010C00000250A2801D2656000E06060314658467C
:1010D000FFF7C9F8FFF725FA0A2801D2656000E09A
:1010E000606031460098FFF7BEF8FFF71AFA4FF438
:1010F0007A77B84201D2A56000E0A0603146504640
:10110000FFF7B1F8FFF70DFADFF83091B84201D2DE
:10111000256006E049465046FFF7A5F8FFF701FABB
:10112000206031460198FFF79EF8FFF7FAF906466E
:10113000B84201D2256006E049460198FFF793F8CE
:10114000FFF7EFF920603E4D40462946FFF78BF848
:10115000FFF7E7F920613BA005F0BAFF44A017991B
:1011600005F0B6FF49A0069905F0B2FF4EA0079919
:1011700005F0AEFF53A0089905F0AAFF58A0099901
:1011800005F0A6FF5DA00A9905F0A2FF62A00B99E9
:1011900005F09EFF67A00C9905F09AFF6BA00E99D1
:1011A00005F096FF6FA0169905F092FFD4E9012192
:1011B000334672A005F08CFF29464046FFF785F8BC
:1011C000FFF7C3F981468A460198FFF7BEF9074643
:1011D00088465846FFF7B9F905460E460098FFF7CE
:1011E000B4F98DE8E00702460B466DA005F070FFEC
:1011F00014A005F06DFF214606A800F031F919B0E2
:10120000BDE8F08F424C3635323347315F57415499
:1012100054203D2025640D0A00000000363CBD52DC
:10122000FE64C540105839B4B4541E413F575BB1F9
:10123000BF3C3E40882AD14000007A440000204153
:101240000000C8422D2D2D2D2D2D2D2D2D2D2D2D78
:101250002D2D2D2D2D2D2D2D2D2D2D2D2D2D2D2DBE
:101260002D2D2D2D2D2D2D2D2D2D0D0A00000000A5
:10127000424C3635323347315F5354415455532035
:101280003D203058253032580D0A0000424C36358A
:10129000323347315F575250524F54203D203078FF
:1012A000253032580D0A0000424C36353233473172
:1012B0005F4D4F4445203D203078253032580D0A8F
:1012C00000000000424C3635323347315F47414918
:1012D0004E203D203078253032580D0A00000000A5
:1012E000424C3635323347315F4D41534B203D2020
:1012F0003078253032580D0A00000000424C363557
:1013000032334731565F504B4C564C203D2030789D
:10131000253032580D0A0000424C36353233473101
:101320005F495F504B4C564C203D20307825303281
:10133000580D0A00424C3635323347315F565F5202
:101340004D53203D2025640D0A000000424C3635E7
:10135000323347315F495F524D53203D2025640DA4
:101360000A000000424C3635323347315F5641485F
:1013700052203D2025640D0A000000005631203D1A
:10138000202564206D562C4931203D202564206D98
:10139000412C50203D202564206D570A000000009C
:1013A00056203D20252E3166562C41203D20252EED
:1013B0003266412C50203D20252E3266572C452088
:1013C0003D202566A1E3200A0000000010B5A2B070
:1013D00035218DF880108DF800008DF881000024F3
:1013E000022120A804F002FA10484FF496720DF181
:1013F0000101006806F054FE012802D0002022B04E
:1014000010BD6846FFF77CFD9DF8041081420AD1AB
:101410009DF803009DF8021044EA00409DF8014049
:1014200040EA012004432046E9E7000004010020CF
:101430001CB5CA248DF800408DF801008DF802100B
:101440008DF803208DF804300DF10100FFF758FDF1
:101450008DF805000621684604F0C8F91CBD00009F
:101460008268332A05D0087B40F0010008730FA082
:1014700013E090F84400800603D5087B40F002009A
:1014800000E00020087310F0FF0008D0022808D008
:10149000042808D0082808D113A005F019BE22A0FE
:1014A000FBE72FA0F9E73DA0F7E770470A2A2A2AB1
:1014B0002A2A2A2A2A2A2A2A2A2A2A2A2A2A2A4274
:1014C0004C363532334758CDA8D1B6D2ECB3A32A27
:1014D0002A2A2A2A2A2A2A2A2A2A2A2A2A2A2A2A6C
:1014E0002A2A2A0A000000000A2A2A2A2A2A2A2A44
:1014F0002A2A2A2A2A2A2A2A2A2A2A424C363532F3
:10150000334758B5E7C1F7B9FDD1B9B9FDC1F72ADD
:101510002A2A2A2A2A2A2A2A2A2A2A2A2A2A2A2A2B
:101520002A2A2A0A000000000A2A2A2A2A2A2A2A03
:101530002A2A2A2A2A2A2A2A2A2A2A424C363532B2
:10154000334758D5FDB3A32A2A2A2A2A2A2A2A2A27
:101550002A2A2A2A2A2A2A2A2A2A2A0A00000000B3
:101560000A2A2A2A2A2A2A2A2A2A2A2A2A2A2A2AFB
:101570002A2A2A424C363532334758B5E7C1F7B9E3
:10158000FDD1B92A2A2A2A2A2A2A2A2A2A2A2A2AB2
:101590002A2A2A2A2A2A2A0A000000000A2A2A2A93
:1015A0002A2A2A2A2A2A2A2A2A2A2A2A2A2A2A4283
:1015B0004C363532334758B5E7C1F7B9FDC1F72A84
:1015C0002A2A2A2A2A2A2A2A2A2A2A2A2A2A2A2A7B
:1015D0002A2A2A0A00000000FEE770B5044600230C
:1015E0004FF6FF704AF201050DE0E25C5040002228
:1015F000C60702D085EA500000E04008521CD2B273
:10160000082AF5D35B1C8B42EFD370BD10B504469E
:10161000052308A204F03CF8A0F57F41FF3905D06E
:101620002044807A312803D0352801D0012010BD14
:10163000002010BD2B4347524547000010B5002441
:10164000FFF768FC10B1012408A000E00DA005F030
:101650003FFDFFF7FBF928B110A000BF05F038FDF2
:10166000204610BD44F0020411A0F7E70D0AB5E7CB
:10167000C1BFBCC6204552524F52A3A1A3A1A3A1F2
:10168000000000000D0AB5E7C1BFBCC6205355439A
:1016900043455353A3A1A3A1A3A100000D0A204ECB
:1016A000422053554343455353A3A1A3A1A3A100F3
:1016B0000D0A204E42204552524F52A3A1A3A1A38E
:1016C000A10000001CB50AA004F04AFC0C4903204C
:1016D000CDE9000100234FF480720AA10A4806F008
:1016E00071FE012803D009A004F03AFCFEE71CBDFE
:1016F0000D0A2043726561744C65645461736B001C
:10170000A40000204C656400ED3C00080D0A204C4C
:1017100065645F5461736B206372656174206572E8
:10172000726F72001CB509A004F01AFC002105209C
:10173000CDE900010B464FF4967208A1084806F067
:1017400041FE012800D0FEE71CBD00000D0A204329
:10175000726561744E425461736B00004E4200002A
:10176000014800081CB50AA004F0FAFB002106207D
:10177000CDE900010B464FF4C8720BA10D4806F0ED
:1017800021FE012803D00CA004F0EAFBFEE71CBDFB
:101790000D0A204372656174506C6174666F726DDE
:1017A0005461736B00000000506C6174666F726D61
:1017B00000000000294D00080D0A20437265617485
:1017C000506C6174666F726D5461736B20637265E7
:1017D0006174206572726F72000000001CB50849C8
:1017E0000120CDE900010023802206A1074806F070
:1017F000E9FD012803D006A004F0B2FBFEE71CBD02
:10180000040000205374617274000000E155000868
:101810000D0A2053746172745F5461736B494420E4
:101820006372656174206572726F72001CB50BA0E3
:1018300004F096FB0E490420CDE90001002380222C
:101840000CA10E4806F0BEFD0949091F01280860D9
:1018500003D00BA004F084FBFEE71CBD0D0A20435F
:1018600072656174556172745461736B000000009D
:10187000AC0000205561727441707000E95A000894
:101880000D0A556172745461736B206372656174E3
:10189000206572726F72000000210F2801D908467E
:1018A00070470A2801D3373000E03030C0B27047AB
:1018B00070B50D46064600230FE0F15C080901F003
:1018C0000F04FFF7E9FF02F813002046FFF7E4FFDB
:1018D00002EB43015B1C48709BB2AB42EDD370BD81
:1018E000F0B517460E46044600230EE014F8130028
:1018F000FFF796F8054604EB43004078FFF790F8B1
:1019000040EA0510F8545B1C9BB2B342EED3F0BD25
:101910007047000000B58BB0142105A8FEF785FCC8
:10192000684600F017FA02980A21B0FBF1F11EA0F8
:1019300005F0CEFB0198FEF7E7FD00221F4BFEF7F6
:1019400074FD02460B461EA005F0C2FB0098FEF790
:10195000DBFD00221F4BFEF768FD02460B461EA072
:1019600005F0B6FB0498FEF7CFFD00221F4BFEF7F3
:101970005CFD02460B461EA005F0AAFB9DF80D007B
:1019800078B1002120A005F0A3FB9DF80E1024A043
:1019900005F09EFB9DF80C1026A005F099FB0BB0FE
:1019A00000BD0121EEE70000C4BFC7B0B5E7D1B963
:1019B000A3BA25642076200A0000000000408F4072
:1019C000C4BFC7B0B5E7C1F7A3BA252E3366206DF3
:1019D00041200A0000002440C4BFC7B0B9A6C2CA53
:1019E000A3BA252E31662077200A00000000594056
:1019F000C4BFC7B0B5E7C1BFA3BA252E3166206BFF
:101A00007768200A00000000C4BFC7B0BCCCB5E7AF
:101A1000C6F7D7B4CCACA3BA2564200A00000000F6
:101A2000C4BFC7B0B5F7B9E2D6B5A3BA2564200ADA
:101A300000000000C4BFC7B0C9E8B1B8D7B4CCAC8F
:101A4000A3BA2578200A000070470000064900204C
:101A5000C8610648016941F004010161016941F072
:101A6000400101617047000008040020002002408E
:101A7000064A0021D16106490A6942F002020A6160
:101A80004861086940F04000086170470804002080
:101A900000200240044B0022DA61044A136943F03B
:101AA00001031361018070470804002000200240F8
:101AB00014480022C168CB06134904D5CA6942F014
:101AC0000202CA611022C3685B0705D5CB6943F0E7
:101AD0000103CB6142F00402C369DB0707D0CB6985
:101AE00043F00403CB61C16921F00101C161A2F59A
:101AF0008071013901D0C2607047C16921F00101D4
:101B0000C1617047002002400804002070B50546FE
:101B100000F060FC0646114C09E0681C07D025B1B6
:101B200000F058FC801BA84201D9032070BDE0687A
:101B3000C007F2D1E068800601D52020E060E068AF
:101B4000C00605D4E069C00702D1E068400703D5AC
:101B5000FFF7AEFF012070BD002070BD00200240E5
:101B60002DE9FF4163208DF80C00FF208DF8000067
:101B70008DF80400032329A209212AA002F0EEFD1A
:101B8000044602A9002000F0EFF9012C41D1284CB5
:101B900001233A222188274800F04EF84FF6FF76BD
:101BA000B04236D0234F03AA38440221801C03F0F0
:101BB00045FD9DF80C008DF8080004232C22218897
:101BC000384600F039F80546B04222D005232C22D1
:101BD0002188384600F030F80646401BC1B278191B
:101BE0006A46401C03F02AFD9DF800008DF80A00AB
:101BF000207801AA801B0938C1B2B819401C03F033
:101C00001DFD9DF804008DF80B0002A9012000F0D5
:101C1000ABF99DF80C0004B0BDE8F0812B434553AF
:101C20005100000041542B434553510D0A00000060
:101C3000D00000204E30002070B50546002004463C
:101C400008E02E5C964203D1641CE4B29C4205D0AD
:101C5000401CC0B28842F4D34FF6FF7070BD000044
:101C60001CB5044605F00EFE002201A9244801F02F
:101C700044F800226946224801F018F89DF8030054
:101C8000204900F5FA6008809DF801208A709DF8CF
:101C90000220CA709DF804204A719DF805208A71BF
:101CA0009DF80620CA7120808878A070C878E070FE
:101CB000487960718879A071C879E07145F2510264
:101CC00001210F4800F0EAFF9DF8032002210C4893
:101CD00000F0E4FF9DF801200321094800F0DEFF39
:101CE0009DF802200421064800F0D8FF9DF800204E
:101CF0000521034800F0D2FF05F0E4FD1CBD000003
:101D00008C380020500100201CB50446012201A996
:101D10000D4800F0F2FF012269460B4800F0C6FFB3
:101D20009DF8030020809DF80100A0709DF802003E
:101D3000E0709DF8040060719DF80500A0719DF8A9
:101D40000600E0711CBD00008C380020A0F100608E
:101D5000800A704770B50F4D04464FF0FF31686937
:101D600006F03AFA0C4800238168A1600B494A78D2
:101D700062730978A173016821600169216141687A
:101D80006160007B20736869BDE870401A4619469F
:101D900006F078B88C00002050310020044F00205D
:101DA00070B50C46054605F06DFD0648417839B121
:101DB0000021297000782070BDE8704005F082BDD8
:101DC0000121F6E7044F00207CB51E2340A21D210F
:101DD00041A002F0C3FC4FF0FF34002853D0494823
:101DE000082345A20188484803F052FCB0EB144197
:101DF00049D045494FF4F4640844817AC37A3039B4
:101E000001EB810104EB41011944ADF80010417B65
:101E1000837B303901EB81046FF02F0101EB440427
:101E200023448DF80230037C447C303B03EB830376
:101E300001EB430323448DF80330C37C047D303B26
:101E400003EB830301EB43032344DBB28DF805303E
:101E5000847DC57D303C04EB840401EB44042C44B8
:101E6000E4B28DF80640457E867E303D05EB850563
:101E700001EB450535448DF80750C57E2D2D04D066
:101E80002B2D0CD014E020467CBD427F007F3038E3
:101E900000EB800001EB40001044404207E0427F2D
:101EA000007F303800EB800001EB40001044C2B2EC
:101EB00003EB92008DF8050002F00300C0EB001068
:101EC00020448DF80600684603F054FB00207CBDDA
:101ED0002B514E54503A000041542B514E54503D1A
:101EE000312C226E7470312E616C6979756E2E639F
:101EF0006F6D220D0A0000002B514E54503A2030D5
:101F000000000000D00000204E30002070B5144DBD
:101F100004464FF0FF31286906F05EF911480023AE
:101F20001A460178217041786170017921714188E8
:101F30006180C179E171B0F80510A4F80510817ACB
:101F4000A17201892181417B6173B0F80B00A4F873
:101F50000B00AC781946286905F094FF204670BD47
:101F60008C000020262D002070B5124D0C46064630
:101F70004FF0FF31686906F02FF905F12C027EB1B0
:101F80002078107060785070A0789070E078D070F1
:101F90006869BDE8704000231A46194605F072BF13
:101FA00010782070507860709078A070D078E070D1
:101FB000EEE70000D000002010B590F821100024BA
:101FC000022903D00421816301243DE001680A68ED
:101FD00022F00E020A6001680A6822F001020A601B
:101FE0001A4A0168914201D1012121E0174A1432B5
:101FF000914201D110211BE0144A2832914201D1B3
:10200000891515E0114A3C32914201D189140FE043
:102010000E4A5032914202D14FF4803108E00B4A0F
:102020006432914202D14FF4801101E04FF080718F
:10203000064A083A5160012180F82110002180F8F9
:102040002010416B01B18847204610BD08000240B6
:1020500070B5044600F0BEF90546601C02D0044885
:102060000078044400F0B6F9401BA042FAD370BDDA
:10207000080000202DE9F047054626480F460126B6
:10208000017E01290FD00121814601762868DFF801
:1020900088804CF25034022808D0A2462046FFF730
:1020A00035FDA8B131E00220BDE8F0872046FFF7FA
:1020B0002DFD08BB0120FFF7C9FC2046FFF726FDD8
:1020C000D8F81010064621F00401C8F810101CE0E2
:1020D0004FF0FF303860AC6811E02046FFF7C8FCD5
:1020E0005046FFF713FDD8F81010060021F002014A
:1020F000C8F8101001D03C6007E004F58064D5E911
:10210000020100EB8120A042E7D8002189F81810D5
:102110003046C9E708040020002002400348016956
:1021200041F0800101610020704700000020024062
:102130002DE9F05F07461C4888460024017E1546BD
:102140001E46012909D00121814601764CF2503A00
:102150005046FFF7DBFC18B122E00220BDE8F09FFB
:10216000012F02D0022F00D00427D346DFF83CA075
:10217000220128463146FEF72FF881B208EB4400D1
:10218000FFF788FC5846FFF7C1FCDAF8102022F070
:102190000102CAF8102018B9641CE4B2BC42E7D3AB
:1021A000002289F81820D9E7080400200020024006
:1021B000064900200A69120607D5054A4A60054A01
:1021C0004A600969090600D50120704700200240D5
:1021D00023016745AB89EFCD2DE9F84FDFF8B891C2
:1021E000002409F1040A0AF1040B23460F270BF11E
:1021F000040EC9E00125A5402A40AA427DD1674EC0
:10220000D1F804C0ACEB0608B44532D014DCBCF104
:10221000030F3AD009DCBCF1000F2AD0BCF1010F4A
:102220001CD0BCF1020F31D11DE0BCF1110F17D051
:10223000BCF1120F2AD119E0B8F5881F19D006DCBD
:10224000B8F5803F15D0B8F5801F1FD111E0B8F563
:10225000001F0ED0B8F5041F18D10AE0CB6815E0B6
:10226000CB681B1D12E0CB6808330FE0CB680C3342
:102270000CE08B682BB1012B4FF0080303D04561B4
:1022800004E0042302E0056100E00023FF2A01D8F6
:10229000064601E000F104064FEA840501D9A5F1E4
:1022A0002005D6F8008007FA05FC28EA0C0803FA96
:1022B00005F548EA0508C6F800804D68ED0062D5CE
:1022C000374DAE6946F00106AE61AD6924F00306F4
:1022D00005F001050095334D06EB050CDCF80850C0
:1022E000A607360F07FA06F825EA0805DFF8B880D2
:1022F000404503D14FF0000817E044E0DFF8AC8020
:10230000404502D14FF001080FE0DFF8A4804045BE
:1023100002D14FF0020808E0DFF89880404502D172
:102320004FF0030801E04FF0040808FA06F848EA05
:102330000508CCF808804D68D9F80060ED034D46DB
:1023400001D5164300E096432E604D68DAF8006030
:10235000AD03554601D5164300E096432E604D6807
:10236000DBF80060ED025D4601D5164300E09643C0
:102370002E604D68DEF80060AD02754601D516434B
:1023800000E096432E60641C0D682A46E5407FF409
:1023900031AFBDE8F88F00000004014000001110CB
:1023A000001002400000014000080140000C014004
:1023B0000010014000140140C26821EA02030A40F3
:1023C00043EA0241016170470AB1016170470904A3
:1023D000FBE700000148806870470000080000200B
:1023E00070B5040011D021684CF6CC40086021681B
:1023F00045F255500860D4E9000141602168A068A9
:102400008860FFF7E7FF054609E0012070BD00BFC7
:10241000FFF7E0FF401B262801D9032070BD20688C
:10242000C0680028F4D121684AF6AA20086000207C
:1024300070BD0000024881680278114481607047D5
:1024400008000020074810B5016841F01001016044
:10245000032000F08DF8002000F006F800F03EF8B0
:10246000002010BD0020024000B5014687B00022C8
:102470001C2000F05DF81C2000F04CF81448C169E5
:1024800041F00101C161C06905A900F00100069099
:10249000684600F0F5F900F013FA0E494000B0FB71
:1024A000F1F10D484FF08042491E0260416040F258
:1024B000E7320021C0E90321816000F0CCFD10B1BA
:1024C000012007B000BD044800F010FEF9E700004D
:1024D0000010024040420F00BC0300200B4808B52A
:1024E000816941F001018161816901F0010100917F
:1024F000C16941F08051C161C06900F08050009015
:102500000348416821F0E061416008BD00100240CD
:1025100000000140002809DB00F01F02012191406A
:102520004009800000F1E020C0F800117047000071
:10253000F0B40E4B1B680C46C3F30223C3F107052E
:10254000042D00D90425191D072901D2002300E01C
:10255000DB1E012606FA05F1491E214099409E40E6
:10256000761E16403143F0BC03F018BC0CED00E0C1
:10257000064900F0070208684FF6FF03184040EADA
:102580000220034A10430860704700000CED00E091
:102590000000FA05014901200862704700000E4260
:1025A00010B529A401461DCC86B08DE81D002AA0D7
:1025B0002A4C006804900020012923D002293AD037
:1025C00010291DD161682268D20119D5C1F3834257
:1025D000C9031DF8020009D5616804AAC1F340418E
:1025E000515C1F4AB2FBF1F1484301E01D494843E9
:1025F0006168490204D440005FF00301B0FBF1F0D0
:1026000006B010BD226AC2F30121012903D192074D
:1026100001D5C803F4E7022905D1626A920702D501
:1026200049F64040ECE70329EAD121688903E7D560
:102630004FF22440E4E700F053F96168C1F38131BF
:10264000491C4900DAE700000203040506070809EF
:102650000A0B0C0D0E0F10100102000000100240BA
:1026600000127A0000093D002DE9F8430546007884
:10267000354CC00754D0E0690026C00008D4E0699A
:1026800040F08050E061E069012600F08050009049
:102690002E480168C90512D40168804641F4807152
:1026A0000160FFF797FE074605E000BFFFF792FEC7
:1026B000C01B642823D8D8F80000C005F6D5206ACE
:1026C00010F4407021D0A98801F4407181421CD0DF
:1026D000206A1F49012220F440700A6000220A602B
:1026E0002062C00711D0FFF775FE074641F2883817
:1026F00008E000BFFFF76EFEC11B414502D9032071
:10270000BDE8F883206A8007F4D5206A696820F460
:102710004070084320621EB1E06920F08050E06103
:102720002878800705D56068A96820F440400843F0
:1027300060602878C00605D56068E96820F48000EC
:10274000084360600020DBE700100240007000409A
:10275000400442422DE9F0470F46050061D0434E48
:10276000306800F00700B84209D2306820F0070056
:1027700038433060306800F00700B84251D1286813
:102780003B4C810712D5400703D5606840F4E060F8
:1027900060602878000703D5606840F4605060608E
:1027A0006068A96820F0F000084360602878C007DE
:1027B00028D06868012810D02168022810D0890725
:1027C00000292EDA616821F0030101436160FFF7FF
:1027D00001FE804641F288390DE021688903EFE768
:1027E0008901EDE7FFF7F6FDA0EB0801494502D9A5
:1027F0000320BDE8F0876068696800F00C00B0EB6A
:10280000810FEFD1306800F00700B8420BD9306873
:1028100020F0070038433060306800F00700B8420D
:1028200001D00120E5E72878400705D56068E96810
:1028300020F4E060084360602878000706D56068EF
:10284000296920F4605040EAC100606000F058F847
:102850006168084AC1F30311515CC8400649086029
:1028600006480068FFF700FE0020C2E70020024093
:1028700000100240C8870008140000200C0000204F
:102880000F2202600C4A536803F00303436053684D
:1028900003F0F0038360536803F4E063C36052689D
:1028A0004FF4E06303EAD20202610448006800F0DA
:1028B000070008607047000000100240002002403E
:1028C0000448054900684968044AC1F30221515C83
:1028D000C84070471400002000100240D88700084C
:1028E0000448054900684968044AC1F3C221515CA3
:1028F000C84070471400002000100240D88700082C
:1029000012A185B00FC98DE80F0014A0144A006809
:1029100004905168134801F00C03042B10D0082BCD
:102920000ED1C1F38343C9031DF803000AD55168D2
:1029300004AAC1F34041515C0A4A5043B0FBF1F094
:1029400005B0704708494843FAE700000203040550
:10295000060708090A0B0C0D0E0F101001020000EB
:102960000010024000127A0000093D002DE9F84FE6
:10297000040070D02078C04DC00749D06868C0F30B
:102980008100012807D06868C0F38100022809D1BE
:102990006868C00306D52868800339D560680028B8
:1029A000E7D035E06068B0F5803F0BD010B1B0F5EE
:1029B000A02F11D0286820F480302860286820F4E7
:1029C000802002E0286840F480302860606890B180
:1029D000FFF700FD06460AE0286840F480202860E2
:1029E000F0E700BFFFF7F6FC801B642873D8286867
:1029F0008003F7D50CE0FFF7EDFC064605E000BFCD
:102A0000FFF7E8FC801B6428F0D828688003F7D41F
:102A100020789A4E80074FF001094FF0000839D511
:102A2000686810F00C0F07D06868C0F381000228B6
:102A300009D16868C00306D42868800714D52069C6
:102A4000012808D110E02069B0B1C6F80090FFF766
:102A5000C1FC074605E00AE1FFF7BCFCC01B0228E9
:102A6000C4D828688007F7D52868616920F0F80085
:102A700040EAC10028600DE0C6F80080FFF7AAFC1C
:102A8000074604E0FFF7A6FCC01B022823D82868ED
:102A90008007F7D4207800072CD57948A169D9B1EF
:102AA000C0F80090FFF796FC074604E0FFF792FCA1
:102AB000C01B02280FD8686A8007F7D571484FF409
:102AC000FA510068B0FBF1F0009000BF0098411E81
:102AD0000091FAD20EE080E0C0F80080FFF77AFCA7
:102AE000074604E0FFF776FCC01B022875D8686A29
:102AF0008007F7D42078400760D5E8690027C00038
:102B000008D4E86940F08050E861E869012700F0E6
:102B1000805000905C480168C90513D40168834661
:102B200041F480710160FFF755FC824606E000BF6A
:102B3000FFF750FCA0EB0A0064284ED8DBF8000039
:102B4000C005F5D5E06801280AD008B1052813D0E2
:102B5000286A20F001002862286A20F0040002E0C0
:102B6000286A40F001002862E06841F2883B98B191
:102B7000FFF730FC82460BE0286A40F00400286230
:102B8000EEE700BFFFF726FCA0EB0A0159455AD833
:102B9000286A8007F6D50CE0FFF71CFC824605E0AA
:102BA000FFF718FCA0EB0A0159454CD8286A8007AA
:102BB000F6D41FB1E86920F08050E861E06988B37D
:102BC0006968C1F38101022944D00228C6F86080F7
:102BD00004D0FFF7FFFB044638E034E0FFF7FAFBD0
:102BE000074604E0FFF7F6FBC01B02282BD8286835
:102BF0008001F7D4206AB0F5803F05D16868A168EC
:102C000020F4003008436860D4E90801084369688B
:102C100021F4741108436860C6F86090FFF7DAFB8E
:102C2000044606E025E000BFFFF7D4FB001B0228A6
:102C300009D828688001F7D51BE000BFFFF7CAFB61
:102C4000001B022802D90320BDE8F88F2868800104
:102C5000F4D40EE00128F7D06868226A00F48031CD
:102C6000914204D1616A00F47010884201D00120C1
:102C7000EAE70020E8E700000010024000004242BE
:102C8000800442421400002000700040024850F8C6
:102C9000210080B270470000006C0040024800EB49
:102CA000810091B201607047006C0040F8B50500EA
:102CB0004FF0000016460C46009006D02CB10022C2
:102CC0006946284600F019F808B10120F8BD287BB4
:102CD0002070E87BE070697B6170A97BA17056B1C0
:102CE00002F047FAE070607802F043FA6070A07872
:102CF00002F03FFAA0700020F8BD2DE9F0479146A0
:102D00000C465FEA00084AD084B3D8F80000406857
:102D1000400744D4404602F0CBFA4FF461620546C6
:102D2000B0FBF2F1B0FBF2F302FB13503C23B0FB1B
:102D3000F3F0B5FBF2F6607002FB1650B0FBF3F255
:102D400003FB1200A070182931D31820B1FBF0F753
:102D5000B1FBF0F200FB12102070404602F0A1FA25
:102D6000411C04D0A84202D9461B02E017E04FF0F4
:102D7000FF36A7EB071000EB4000C0EB001005EB9F
:102D8000C0152946404602F0E2FA40B9701C01D055
:102D9000711900E03146404602F0C5FA10B1012039
:102DA000BDE8F0873946404602F0EEF900E02170B8
:102DB000B9F1000F0BD0207802F0DBF920706078B9
:102DC00002F0D7F96070A07802F0D3F9A07000206B
:102DD000E6E7000070B5040003D0607C002610B167
:102DE00005E0012070BD2674204600F043F8022063
:102DF0006074204600F010F9042578BB204602F0EC
:102E00001AFA58BB2068416821F007014160A068A8
:102E100020B11748016821F0010101601448001F2A
:102E20000168A26821F46071114301606068411C6F
:102E300004D10120FFF7B4FB80B1401E21688A68ED
:102E400022F00F0242EA10428A602168CA6860F3E9
:102E50000F02CA60204602F009FA08B16574C0E7A3
:102E6000E67301206073A0736074002070BD0000E1
:102E7000306C004008B50068084988420DD1FFF762
:102E800089FB0748C16941F00061C161C06905491A
:102E900000F0006000900120086008BD002800409C
:102EA000001002403C0442422DE9F0410D4604006E
:102EB0003BD0C5B3207C01283AD04FF0010884F8FC
:102EC000108002206074E87872B302F049F9E07370
:102ED000687802F045F96073A87802F041F9A073B0
:102EE000C2B2617BE07B02F0F3F9207328702046C8
:102EF00002F0DEF94FF46161B0FBF1F10025182911
:102F00002DD91822B1FBF2F1A1EB011101EB410126
:102F1000C1EB011100EBC1163146204602F017FA51
:102F20000427C8B90BE000E004E00120BDE8F0810F
:102F30000220FBE7E07368786073A878CFE720464B
:102F400002F0AFF9411C0AD0B04208D20649014450
:102F5000204602F0E8F910B167742574E5E784F8BB
:102F6000118025740020E1E7805101002DE9F04136
:102F70000D46040024D01DB3207C012823D04FF03F
:102F8000010884F81080022060742878EAB102F009
:102F9000E7F84FF4616100FB01F6687802F0E0F8B1
:102FA000C0EB001006EB8006A87802F0D9F83518BF
:102FB0002946204602F0CBF90026042710BB0FE07B
:102FC0000120BDE8F0810220FBE74FF46161484336
:102FD0006978C1EB011100EB8100A9784518E7E79A
:102FE0002068416821F005014160204602F059F94E
:102FF000411C0AD0A84208D206490144204602F0EA
:1030000092F910B167742674DAE784F81180267497
:103010000020D6E78051010070B504000AD0206876
:10302000416821F008014160FFF7D4F905464FF4EB
:103030007A7608E0012070BDFFF7CCF9401BB04262
:1030400001D9032070BD206840680007F4D5002036
:1030500070BD7047704710B5040003D094F83D0070
:1030600010B107E0012010BD002084F83C0020468C
:1030700000F01EF8022084F83D00211D206802F0B7
:103080007FFB012084F8460084F83E0084F83F006E
:1030900084F8400084F8410084F8420084F843003A
:1030A00084F8440084F8450084F83D00002010BDF9
:1030B00008B500680B49884212D10B48C16941F03C
:1030C0000201C161C069002200F0020000900521E8
:1030D0001D20FFF72DFABDE808401D20FFF71ABAA2
:1030E00008BD0000000400400010024090F83D10B0
:1030F000012901D001207047022180F83D100168AC
:10310000CA6842F00102CA6000680B49884208D0D0
:10311000B0F1804F05D00949884202D00849884261
:1031200004D1816801F00701062903D0016841F04C
:103130000101016000207047002C014000040040A4
:1031400000080040704770B50446006801694FF000
:103150000005C943890715D4C168C943890711D43B
:10316000E91E0161012020772068806980072046E0
:1031700002D0FFF7E7FF04E000F098F8204600F0E7
:1031800096F8257720680169C943490717D4C168B3
:10319000C943490713D46FF004010161022020776D
:1031A0002068806910F4407F204602D0FFF7CAFFF4
:1031B00004E000F07BF8204600F079F825772068DD
:1031C0000169C943090716D4C168C943090712D464
:1031D0006FF008010161042020772068C069800732
:1031E000204602D0FFF7AEFF04E000F05FF8204673
:1031F00000F05DF8257720680169C943C90617D436
:10320000C168C943C90613D46FF0100101610820D9
:1032100020772068C06910F4407F204602D0FFF775
:1032200091FF04E000F042F8204600F040F82577D6
:1032300020680169C943C90708D1C168C943C907E2
:1032400004D1891E0161204600F032F8206801692E
:10325000C943090609D4C168C943090605D46FF0FA
:10326000800101612046FFF7F4FE20680169C9432F
:10327000490609D4C168C943490605D46FF0400125
:103280000161204600F03EF820680169C9438906C3
:103290000BD4C168C943890607D46FF020010161CE
:1032A0002046BDE87040FFF7D5BE70BD704770473F
:1032B00070B504460068B0F1804F01D1FFF7BAF84D
:1032C0000E492068884217D10D4C6068401C606030
:1032D00000F002FC606800250A2808D3A068401CA2
:1032E000C4E901502068401C206002F0C9FBA068BE
:1032F000B0F57A7F00D3A56070BD000000040040E7
:10330000180100207047704770B5026804461068C5
:10331000D168536910F00F0F52D003F0010501F48A
:1033200090762E435FD0C20705D0CA0503D5E26B65
:1033300042F00102E263420705D5DA0703D0E26BEF
:1033400042F00202E263820705D5DA0703D0E26B9E
:1033500042F00402E263020707D501F020022A438B
:1033600003D0E26B42F00802E263E26B002A33D042
:10337000800604D5880602D5204602F06BFA206844
:103380004069E16BC0F38010090700D428B32046E0
:1033900002F052FA2068416949061AD5416921F0C4
:1033A00040014161606BA0B12D494163606BFEF744
:1033B00003FE002810D0606B416BBDE870400847E9
:1033C000830610D58B060ED52046BDE8704002F06E
:1033D00041BA2046FFF797FF70BD2046FFF793FFE5
:1033E0000020E06370BD03062BD50B0629D594F8A9
:1033F00039002128F6D1A068B0F5805F01D120699D
:10340000B0B1206A411C2162216800784860E08CDC
:10341000401E0004000CE084E4D12068C16821F063
:103420008001C1602068C16841F04001C16070BD89
:10343000206A0088C0F308005060206A801C206267
:10344000E5E74006F3D54806F1D5D168204621F0DE
:103450004001D160202184F8391000F0E2F970BDFC
:103460002958000870B5040004D094F839000025EC
:1034700010B106E0012070BD84F83850204600F0FD
:1034800023F8242084F839002068C16821F4005111
:10349000C160204602F024FA2068016921F49041BD
:1034A00001612068416921F02A0141612068C168F9
:1034B00041F40051C160E563202084F8390084F8AC
:1034C0003A00002070BD00002DE9F04786B00025CD
:1034D0000646009501950295039500684C49DFF872
:1034E00034914D4C02274FF0030888422FD1A06938
:1034F00040F48040A061A06900F480400490A0697D
:1035000040F00800A061A069694600F0080004903E
:103510004020CDE90007CDF80C804846FEF75CFE60
:103520008020CDE90005694648460295FEF754FE25
:103530003A48416841F0E06141F0040141600022F5
:1035400005212520FEF7F4FF2520FEF7E3FF34498F
:10355000306888422AD1E06940F40030E061E069D7
:1035600000F400300490A06940F00400A061A0695C
:10357000DFF8B0A000F0040004900420CDE90007BB
:103580006946CDF80C805046FEF726FE0820CDE9AE
:103590000005694650460295FEF71EFE00220521F1
:1035A0002620FEF7C5FF2620FEF7B4FF1E4930682F
:1035B00088422AD1E06940F48020E061E06900F4AB
:1035C00080200490A06940F00800A061A0694C46EA
:1035D00000F0080004900815CDE900076946CDF811
:1035E0000C804846FEF7F8FD4FF40060CDE9000579
:1035F000694620460295FEF7EFFD002205212720AF
:10360000FEF796FF2720FEF785FF06B0BDE8F0879E
:1036100000380140000C0140001002400000014051
:1036200000440040000801400048004090F83A3053
:10363000202B22D1F9B1F2B190F83830012B1CD0F7
:1036400081628285C2850021C163222280F83A20EE
:1036500080F838100168CA6842F48072CA60016854
:103660004A6942F001024A610068C16841F02001E4
:10367000C1600020704701207047022070470000A1
:1036800070B50646006831490025314C88421BD18F
:103690002078FE2811D02570A088802808D3A58026
:1036A00080212C48FCF7C1FD2BA002F059FC04E05E
:1036B000284AE1781154401CA08025492548012260
:1036C000C91C4038FFF7B2FF264A30689115904276
:1036D0001BD16078FE2812D06570E088FF2808D9D9
:1036E0001C48E580C030FCF7A0FD1BA002F038FCB0
:1036F00005E0184AE178C0321154401CE0801449BA
:1037000014480122C91C80301BE0174A90421CD18A
:10371000A078FE2810D0A5702089FF2807D9258120
:103720001248FCF782FD0CA002F01AFC04E00F4ADC
:10373000E1781154401C208105490C480122C91C24
:103740004038BDE87040FFF771BF70BD00380140E0
:1037500008010020A4310020CAFDBEDDD2E7B3F687
:10376000000000000044004000480040A433002056
:103770002DE9F843044690F839001F4616460D46D9
:1037800020284CD1C5B1BEB194F83800012846D0EC
:10379000012084F838004FF00008C4F83C80212054
:1037A00084F83900FEF716FEA6848146E684A068F8
:1037B000B0F5805F03D004E00120BDE8F883206904
:1037C00028B12E465FF0000584F838800EE0002610
:1037D000FAE78021204602F0DFF8A0B9AEB116F872
:1037E000010B21684860E08C401EE084E08C4B4671
:1037F0004FF0000200970028EBD14FF04001204627
:1038000002F0CAF830B10320D7E735F8020BC0F355
:103810000800E6E7202084F839000020CDE70220E8
:10382000CBE7704700B58DB0142102A8FCF7FDFC72
:1038300007A8FEF78FFA09980A21B0FBF1F147A01B
:1038400003F046FC0898FCF75FFE0022484BFCF7AB
:10385000ECFD02460B4647A003F03AFC0798FCF744
:1038600053FE0022484BFCF7E0FD02460B4647A002
:1038700003F02EFC0B98FCF747FE0022484BFCF7A8
:10388000D4FD02460B4647A003F022FC9DF8290018
:1038900000285FD0002149A003F01AFC9DF82A10EF
:1038A0004CA003F015FC9DF828104FA003F010FC6D
:1038B0000998000E8DF808000998000C8DF8090091
:1038C0000998000A8DF80A0009988DF80B000898ED
:1038D000000E8DF80C000898000C8DF80D0008986B
:1038E000000A8DF80E0008988DF80F000B98000E56
:1038F0008DF810000B98000C8DF811000B98000A41
:103900008DF812000B988DF813009DF8290018B35C
:103910005FF000008DF814009DF82A008DF8150066
:1039200010208DF816008DF81800022101208DF866
:1039300017108DF8190002A91220CDE900012F48B7
:10394000012302682E4801882E48007801F0A2F970
:103950000DB000BD01219EE70120DBE7C4BFC7B069
:10396000B5E7D1B9A3BA25642076200A000000008B
:1039700000408F40C4BFC7B0B5E7C1F7A3BA252E3A
:103980003366206D41200A0000002440C4BFC7B048
:10399000B9A6C2CAA3BA252E31662077200A000034
:1039A00000005940C4BFC7B0B5E7C1BFA3BA252EB8
:1039B0003166206B7768200A00000000C4BFC7B0E2
:1039C000BCCCB5E7C6F7D7B4CCACA3BA2564200A03
:1039D00000000000C4BFC7B0B5F7B9E2D6B5A3BABE
:1039E0002564200A00000000C4BFC7B0C9E8B1B810
:1039F000D7B4CCACA3BA2578200A000084000020FC
:103A000082000020880000202DE9FC470446007851
:103A10000E46AA285AD1B11E2046FDF7DEFDA11997
:103A200031F8021C814251D1294F207A294D4FF0A3
:103A3000000907F10408D8B3FF2847D101202870F6
:103A4000608808F1040A40BA68806068E17900BAC9
:103A500020F0FF000843686001222946504602F02A
:103A600017F901222946504602F04CFE0222A91CF9
:103A7000384602F00DF90222A91C384602F042FE37
:103A80000422291D4746404602F002F90422291D5E
:103A9000384602F037FEFF23CDE900946988002004
:103AA0006A6801F0B5F93146BDE8FC4701F0A8BEEF
:103AB00008490222891C384602F024FE05490422E6
:103AC000091D404602F01EFE0023E5E7BDE8FC8725
:103AD00000FC00088000002010B50B4C0B48E1787A
:103AE00002780B48914201D9012200E00022022114
:103AF000FEF76AFCE078401CC0B2E070642801D395
:103B00000120E07010BD00008C000020044F002058
:103B1000000C01402DE9F04387B002A8FEF7A0F8A1
:103B2000BDF8080040F2E471884278D302A803F09F
:103B300007F880465248FEF7E9F9524D504C0026EE
:103B400028719DF80D2021784FF001098A4204D197
:103B50009DF80E306778BB4202D28A4200D8F8B98D
:103B6000484685F8049002F07FF84548FEF7CEF904
:103B7000BDF80800ADF810009DF80A008DF812009D
:103B80009DF80B008DF8130020788DF815006078F3
:103B90008DF816008DF8176004A802F0D1FFA86018
:103BA000A968394888455BD385F804906288A8EBFA
:103BB0000101C2EB02134F46B1EB830F0AD800227A
:103BC0001021FEF701FC8DF8047020798DF80000BB
:103BD0002EA042E0B4F805301A44C2EB0213B1EB58
:103BE000830F0AD800221021FEF7EEFB8DF8047037
:103BF000E0798DF800002AA02FE023891344C3EB5D
:103C00000313B1EB830F0BD800221021FEF7DCFB6E
:103C10008DF80470A07A8DF8000026A01DE02BE03E
:103C2000B4F80B301A44C2EB0212B1EB820F0AD87F
:103C300000221021FEF7C8FB8DF80470607B8DF820
:103C4000000021A009E001221021FEF7BDFB8DF844
:103C500004608DF800602E7120A003F039FA07E0AF
:103C600001221021FEF7B0FB8DF804608DF8006092
:103C7000694601A801F0AAFF07B0BDE8F083000083
:103C8000182D00208C000020000C01400D0ACAB144
:103C9000BFD8C4A3CABDBDD7B6CED2BB00000000FA
:103CA0000D0ACAB1BFD8C4A3CABDBDD7B6CEB6FE31
:103CB000000000000D0ACAB1BFD8C4A3CABDBDD759
:103CC000B6CEC8FD000000000D0ACAB1BFD8C4A31B
:103CD000CABDBDD7B6CECBC4000000000D0ACAB124
:103CE000BFD8C4A3CABDBDE1CAF8000000258EB08C
:103CF0002C46FDF7A3FC06467448754FDFF8D481C7
:103D000000784FF00A0B58B1DFF8CC91DFF8CCA166
:103D100032270BA90020FEF727F9C6B1102131E0A8
:103D20003EB110213846FEF747FB642003F048FE01
:103D3000F6E7002220213846FEF746FB012210213B
:103D40003846FEF741FB642003F03AFEF1E701221A
:103D500010215F48FEF738FB9DF82D00012806D0A2
:103D6000012220215A48FEF72FFB40210AE0B4FB34
:103D7000FBF10BFB114040B9012240215448FEF7F2
:103D800023FB20215248FEF717FBB4FBF7F107FB9A
:103D9000114000B1ECBB0DA90CA8FEF701F803A877
:103DA000FDF75EFF9DF811009DF813209DF812109D
:103DB0008DE807009DF80F309DF80E20BDF80C101F
:103DC00047A003F085F905A8FDF7C4FF05A8FDF796
:103DD000F3F89DF83000012807D19DF8340007283A
:103DE00003D30798E0B10698D0B19DF8200020F0E9
:103DF000080000BF8DF8200005A801F0C1FE9DF865
:103E0000200030B13F4800231A461946006804F0EC
:103E100039F8641CB4FBF9F109FB114028B107E043
:103E20009DF8200040F00800E4E7FDF707FC064697
:103E300000220AA9DAF80C0004F032F9012823D193
:103E400088F80200002530A003F042F99DF8280010
:103E5000012823D0012210212F48FEF7B5FA2FA008
:103E600003F036F99DF829102EA003F031F905A8CA
:103E7000FDF7A2F805A801F083FE0DF129010AA8BB
:103E800001F0A4FEFDF746FD98F8020001280CD0D1
:103E9000B4FBFBF10BFB114090B113E000221021A9
:103EA0001D48FEF791FA23A0DAE76D1CADB241F28E
:103EB0007070854206D3002088F80200054601E0B4
:103EC000FFF728FE642003F07BFD22E7800000203E
:103ED00000080140044F0020002F0D008C0000203E
:103EE0000D0A253032642D253032642D25303264A0
:103EF0002020253032643A253032643A253032644D
:103F000020000000C00000200D0A6C6564D1DDCAED
:103F1000BEC4A3CABD000000000C01400D0A20B9B8
:103F2000D8B5C6000D0A20C1C1B6C8B5F7D5FBA3E8
:103F3000BA2564000D0A20BFAAB5C60010B5134CFF
:103F4000606A400102D512A002F00AF8606A00011E
:103F500002D516A002F004F8606AC00002D518A0CD
:103F600001F0FEFF606A800001D519A008E0606AD8
:103F7000400001D51DA003E0606A002802DA21A0FC
:103F800001F0EEFF25490120086010BD001002403D
:103F90000D0AB7A2C9FAC0B4D7D4204E5253542048
:103FA000D2FDBDC5B5C4B8B4CEBB00000D0AB7A2E2
:103FB000C9FA20504F522F50445220B8B4CEBB0003
:103FC0000D0AB7A2C9FAC8EDBCFEB8B4CEBB00005A
:103FD0000D0AB7A2C9FAC0B4D7D4B6C0C1A2BFB443
:103FE000C3C5B9B7B8B4CEBB000000000D0AB7A274
:103FF000C9FAB4B0BFDABFB4C3C5B9B7B8B4CEBBA1
:10400000000000000D0AB7A2C9FAB5CDB9A6BAC41E
:10401000B9DCC0EDB8B4CEBB00000000E004424201
:1040200070B506460C46881C03F01CF80546047063
:10403000200A687022463146A81CFCF7DDF80B48C0
:1040400000231A462946006A03F0CCFF012807D056
:1040500007A001F085FF284602F026FF012070BD71
:10406000284602F021FF002070BD0000D000002093
:104070000D0A78517565756553656E6420657272B9
:104080006F722C20475052535F5245434549564565
:104090005F517565756500002DE9F04F85B000240E
:1040A0005B480094019402940394816941F01001EB
:1040B0008161816901F010010491816941F0200161
:1040C0008161816901F020010491816941F004015D
:1040D0008161816901F004010491816941F0080165
:1040E00081618069012200F0080004901021494894
:1040F000FEF76AF94FF40047002239464548FEF7BB
:1041000063F94FF40059002249464248FEF75CF932
:10411000DFF804B1012240215846FEF755F901228B
:1041200010215846FEF750F9012220215846FEF78B
:104130004BF9002202213748FEF746F94FF4807A06
:10414000002251463348FEF73FF94FF0100802268F
:104150000125CDF800800396CDE9015469462D482C
:10416000FEF73AF8012210212A48FEF72DF90097B0
:104170000396CDE9015469462648FEF72DF8CDF89F
:1041800000900396CDE9015469462248FEF724F8D1
:104190002803CDE9000469461E480294FEF71CF886
:1041A00040200327CDE90005CDE90247694658467E
:1041B000FEF712F8CDF800800397CDE90154694667
:1041C0005846FEF709F82020CDE90005CDE9024761
:1041D00069465846FEF700F803970096CDE901546A
:1041E00069460C48FDF7F8FF6802CDE9000469460E
:1041F00008480294FDF7F0FFCDF800A00396CDE942
:10420000015469460348FDF7E7FF05B0BDE8F08FAC
:1042100000100240000C014000080140094810B5A0
:10422000074901600421416040F6FF718160FEF79B
:10423000D7F8002803D0BDE81040FDF705BC10BD3D
:1042400000300040E838002030B589B000244348F1
:104250000594414903940160611EC0E90114FEF711
:10426000B9FD08B1FDF7F0FB07A8FDF74DFD0121F1
:104270003A48FEF70BFDA0F5A041513921D08DF849
:10428000144001258DF815408DF816502A4605A9D1
:104290003248FEF76BFE08B1FDF7D6FB8DF80C50E7
:1042A0008DF80D508DF80E408DF80F40012203A9B6
:1042B0002A48FEF7F9FD002801D0FDF7C5FB09B03B
:1042C00030BD002204A92548FEF717FD002206A9EB
:1042D0002248FEF7EBFC9DF810009DF812209DF897
:1042E00011108DE807009DF81B109DF81A309DF8FD
:1042F00019201BA001F5FA6101F032FE02211748D6
:10430000FEF7C4FC8DF80F0003211448FEF7BEFC35
:104310008DF80D0004211148FEF7B8FC8DF80E0051
:1043200005210E48FEF7B2FC8DF80C009DF8100038
:104330009DF812209DF811108DE807009DF80F10D0
:104340009DF80E309DF80D2010A001F5FA6101F0E6
:1043500007FE0022ABE70000002800408C38002058
:104360000D0AC9CFB5E7CAB1BCE4A3BA253032649F
:104370002D253032642D25303264202025303264E2
:104380003A253032643A2530326420000D0AB1B843
:10439000B7DDCAB1BCE4A3BA253032642D25303272
:1043A000642D253032642020253032643A253032A5
:1043B000643A25303264200010B588B000241C21F6
:1043C0006846FBF732FFFEF77BFA41000B480A4ACA
:1043D00002600B4AB1FBF2F1491EC0E901146321EE
:1043E000C0E9031480218161FEF735FE002801D069
:1043F000FDF72AFB08B010BD00040040A0380020E3
:1044000040420F000C4810B50A4901604FF4965124
:104410004160002181600C22C160C0E90412816109
:10442000C161FFF71FF8002803D0BDE81040FDF779
:104430000BBB10BD00380140643100200C4810B5A2
:104440000A4901604FF4E1314160002181600C2292
:10445000C160C0E904128161C161FFF703F800285F
:1044600003D0BDE81040FDF7EFBA10BD0044004096
:10447000243200200C4810B50A4901604FF4E131A4
:104480004160002181600C22C160C0E90412816199
:10449000C161FEF7E7FF002803D0BDE81040FDF73B
:1044A000D3BA10BD0048004064330020FEE770B569
:1044B0000546002486B00E46012080F3108800F0E7
:1044C0001FF82846FDF742FC002000900295304678
:1044D000FDF73CFC06462846FDF738FC301A401C28
:1044E000039004A96846FDF7C5FD00B10124FDF75E
:1044F00015FE002080F3108806B0204670BD000035
:1045000010B5FDF755FE02493520C860002010BDEA
:10451000002002402DE9F05F174600258B468046BB
:104520002E46044600EB070A3AE000BFAAEB04005F
:10453000012816D002281BD0032821D0A4EB0800A4
:104540001BF800205844D0F8010042EA00208146C0
:104550000246002321460220FDF7EAFDC0B10126F4
:1045600020E0A4EB08011BF8010060F0FF00EEE77B
:10457000A4EB080101EB0B000088A0F58030E6E712
:10458000A4EB080101EB0B00006840F07F40DEE780
:1045900058F80510494501D0022603E0241D2D1DC1
:1045A000BD42C3D33046BDE8F09F00002DE9F8437B
:1045B000504E00224E49306A03F072FD01287DD131
:1045C0004B4C258815B1B5F5807F05D92946BDE846
:1045D000F84349A002F07CBD29464CA002F078FDCA
:1045E0002946A01C01F00CF9802003F04DF881460B
:1045F00001460022F06903F053FD4FF6FF770128D2
:104600002ED00E2346A22946A01C01F041F8B84640
:104610000027404542D000970D2602232C22294630
:104620002746A01CFDF708FB0446281B401E81B24C
:104630003D19E81C01233246FDF7FEFAC6B2E81C1C
:104640006A46314600F0FAFF0098394A81B2A01953
:104650003844401DFDF744F9354800F0C7F940E003
:104660004846FBF7F9FDC3B24A462946A01C01F0B3
:104670000FF8B8420DD035802A46A11C2C48FBF714
:10468000BBFD00231A461946D6F8180003F0FAFBC2
:1046900027E000231A464946F069F7E7102325A2D0
:1046A0002946A01C00F0F4FF404509D1102326A2A2
:1046B0002946A01C00F0ECFF404500E016E00AD0BF
:1046C00069460020FDF750FC8DF801706946012015
:1046D000FDF74AFC05E035802A46A11C1448FBF78B
:1046E0008BFD4846BDE8F84303F000B9BDE8F88308
:1046F0004E2E0020D00000200D0A204E42B3A4B65A
:10470000C8B4EDCEF33A2564000000000D0A415410
:10471000BDD3CAD52C206C656E3A2025640D0A00E5
:104720002B51495552433A2022726563762200008C
:104730004E3000202B51495552433A2022636C6F72
:1047400073656422000000002B4350494E3A204E0E
:104750004F54205245414459000000002DE9F047D4
:104760001D4C8846814600261D469246711E2069D2
:1047700003F032FD802002F087FF07460021A06988
:1047800003F02AFD00223946E06903F089FC38462F
:1047900003F0ACF84146484601F03CF800231A46C5
:1047A0005146E06903F06EFB012802D00BA002F035
:1047B0008FFC642005FB00F1A06903F00DFD0128CA
:1047C00000D1012600231A461946206903F05AFB3E
:1047D0003046BDE8F0870000D00000200D0A7820A8
:1047E000517565756553656E64206572726F722CC4
:1047F000204E425F434D445F517565756500000072
:104800001CB500243B4D264627468DF804403AA0AF
:1048100002F05EFC00F094F8FCF7F8F90028F6DBF3
:1048200034490120091DAA68FCF764F9002809DA57
:104830008DF801706888401C81B2698031A002F057
:1048400047FCE4E701208DF8010049E0FDF788F915
:1048500069460020FDF788FB9DF8010040B102F099
:104860004BFBE968421A2D48824205D221B10BE088
:104870000120FCF70DF9D3E702F03EFBE860FDF7FD
:10488000A3FA002800DAEF604FF47A722449686ACC
:1048900003F006FC012817D002F02EFB801B43F624
:1048A0009821884201D2002ED0D102F025FB064685
:1048B0001CA002F00DFC01210DF10400FCF7DCFA54
:1048C00040B290B10024C1E702F016FB064614483E
:1048D000407A0C30C1B21248F0E700248DF8017024
:1048E00069460120FDF740FBB0E7641CE4B2082CE8
:1048F000ACD3F2E7D00000200D0A204E42B8B4CE6F
:10490000BB0000000D0AB5DA2564D6D8D0C2C1AC10
:10491000BDD3B7FECEF1C6F7000000000014730F40
:104920004E2F0020B7A2CBCD2074637020B1A3BB63
:10493000EECAFDBEDDB0FC0D0A00000070470000AD
:1049400070B50122134CD50329462046FDF73CFDE6
:10495000642003F035F8002229462046FDF734FD97
:10496000642003F02DF80122550329462046FDF767
:104970002BFD4FF47A7003F023F8002229462046DD
:10498000FDF722FDBDE87040032303A2042103A02C
:10499000FFF7E4BE000C01404F4B000041540D0AEC
:1049A0000000000070B501220F4CD50329462046B7
:1049B000FDF70AFD642003F003F800222946204693
:1049C000FDF702FD0122550329462046FDF7FCFCB8
:1049D0004FF47A70FDF73CFB29462046BDE8704055
:1049E0000022FDF7F1BC0000000C01402DE9F0436E
:1049F000044600788BB0AA287AD192A002F068FB16
:104A0000617A20460C3102F085FB6088E27941BA78
:104A10006068904D00BA20F0FF0010432A88914250
:104A200066D18D4E3168884262D1607A0C30C7B24F
:104A3000B91E2046FCF7D1FDE11931F8021C88426D
:104A400056D1207A854F642204F10A08A12811D09A
:104A50004FF00009A2284ED0A3287DD0A4287CD0F6
:104A6000A5287BD0BA2843D0AF2841D1CDE9009406
:104A7000BF239FE0A07ADFF8E89104F10B01012841
:104A800001D078B11EE0E07A642800D9E272404695
:104A900001F09CF8002210214846FDF795FCE17AD0
:104AA00070A00DE0E07A642800D9E272404601F07F
:104AB0008DF8012210214846FDF786FCE17A6EA0B0
:104AC00002F006FB0421CDE90018B12329883878CB
:104AD000326800F0DFF8A07A8DF80800E07A8DF8EF
:104AE00009006A4800231A4602A9006803F0CAF9BF
:104AF0000BB0BDE8F083A07A8DF80800E07A8DF85D
:104B00000900A08940BAADF80A00A07B642800D94A
:104B1000A273A07B8DF80C00B4F80F0040BAADF87A
:104B20000D00607C642800D96274607C8DF80F00F1
:104B3000608A40BAADF81000207D642800D9227543
:104B4000207D8DF81200B4F8150040BAADF81300BE
:104B5000E07D642804D902E011E031E06CE0E27508
:104B6000E07D8DF8150002A801F04EF80E2202A992
:104B7000474801F08DF8CDE90098B2231AE002A869
:104B8000FDF7C4F9BDF80A0002A940BAADF80A0061
:104B9000BDF80D0040BAADF80D00BDF8100040BAE8
:104BA000ADF81000BDF8130040BAADF813000E20A8
:104BB000B3233EE029883878326800F06BF897E735
:104BC000CDF80890CDF80C9005A8CDF81090FDF721
:104BD000C1F8079802A9000E8DF808000798000C8C
:104BE0008DF809000798000A8DF80A0007988DF8DB
:104BF0000B000698000E8DF80C000698000C8DF83E
:104C00000D000698000A8DF80E0006988DF80F002A
:104C10000998000E8DF810000998000C8DF811000D
:104C20000998000A8DF8120009988DF813000C20DD
:104C3000B423CDE90001BDE70BB0BDE8F043FEF7BA
:104C4000F1BD00000D0A204E422072656365766555
:104C5000723A0000820000208400002088000020BA
:104C6000000C01400D0A20BFAAB5C620C1C1B6C8BC
:104C7000A3BA2564000000000D0A20B9D8B5C620EB
:104C8000C1C1B6C8A3BA2564000000009800002086
:104C900010FC00087CB5401CDDE9064500F03F0033
:104CA000CDE9004500F002F87CBD00007CB5DDE9EF
:104CB0000650CDE900500E48007800F0A9F80446EF
:104CC0000CA002F005FA0C35A9B2204602F022FA37
:104CD0000B4800231A462146006803F0D3F8012848
:104CE00004D0BDE87C4007A002F0F2B97CBD000012
:104CF000880000200D0A204E422073656E643A0041
:104D0000F40000200D0A7820517565756553656EB5
:104D100064206572726F722C204E425F53454E4480
:104D20005F5175657565000008B52DA001F018F993
:104D3000314C69460020FDF717F9FFF737FC9DF865
:104D40000100012830D102F0D7F8E268A16802EB37
:104D50004203401AC3EBC212B0EBC20F00D221B91A
:104D600002F0CAF8A060FEF75DFD0021206903F0A3
:104D700033FA012818D1FBF73FFE1F4905221931EC
:104D8000481F00F075FC90B1FDF724FB6168401AE4
:104D90001A49884208D31AA002F09AF9FDF71AFBC3
:104DA000C4F80400FBF710FE207860B111E0D4F8DD
:104DB00019006061607F2076FDF70CFB606010A039
:104DC00002F086F9EEE79DF80100012801D1FEF717
:104DD00029FD9DF801002070642002F0F1FDA8E794
:104DE0000D0A537461727420506C6174666F726D39
:104DF0005F5461736B000000B0000020C027090001
:104E0000B2FAC9FAB1A8BEAFD0C5BAC50D0A000042
:104E10002DE9F04114464ABA21BADDE90656124C92
:104E2000AA2700F03F0027706070A270100AE0709F
:104E30002171080A6071080CA071080EE0712372DC
:104E400065722A46314604F10A00FBF7D5F9264679
:104E500005F10A013046FCF7C0FB61198872000AAF
:104E6000C8723046BDE8F0814E2D002010B50120FB
:104E700002F094FF55490028086074D0012002F028
:104E80008DFF53490028086071D0012002F086FF91
:104E90005049002808606FD002210022084602F025
:104EA00088FF4D49002808606AD0032200210120B4
:104EB00002F07FFF49490028086065D0002103F017
:104EC0008BF903220021012002F073FF44490028DE
:104ED00008605DD0002103F07FF90322002101204A
:104EE00002F067FF3F490028086055D0002103F019
:104EF00073F9012002F052FF3B49002808604FD0AF
:104F0000012002F04BFF3949002808604CD00022F4
:104F10008021032002F04DFF35490028086047D06A
:104F20004FF4817400222146032002F042FF3149F0
:104F30000028086040D000222146032002F039FFFB
:104F40002D49002808603BD000228021032002F078
:104F500030FF2A490028086036D129A001F000F866
:104F6000FEE700E003E02EA000F0FAFFFEE732A02B
:104F700000F0F6FFFEE7FFE736A000F0F1FFFEE7E6
:104F80003CA000F0EDFFFEE741A000F0E9FFFEE7E6
:104F900045A002F09DF8FEE74AA002F099F8FEE76E
:104FA0004FA002F095F8FEE753A002F091F8FEE75B
:104FB00058A000F0D5FFFEE75CA000F0D1FFFEE7AF
:104FC00061A000F0CDFFFEE710BD0000140100203D
:104FD0009C000020A000002098000020C0000020BD
:104FE000E800002000010020E0000020E400002094
:104FF000EC000020F0000020F4000020040100205C
:105000000D0A20424C3635323347585F52454345EE
:105010004956455F5175657565206572726F7200FE
:105020000D0A205072696E744D7574657820657232
:10503000726F720D0A0000000D0A2054696D6543FD
:105040006F6E74726F6C4D75746578206572726FD7
:10505000720D0A000D0A20456C6563747269634421
:105060006174614D75746578206572726F720D0A96
:10507000000000000D0A204C656453686F775F5193
:1050800075657565206572726F720D0A000000000B
:105090000D0A20416C61726D42696E617279206502
:1050A00072726F720D0A00000D0A204E425F434D6E
:1050B000445F53656D6170686F7265206572726FD1
:1050C000720000000D0A204E425F41434B5F536562
:1050D0006D6170686F7265206572726F720000009A
:1050E0000D0A204E425F434D445F4D757465782034
:1050F0006572726F720000000D0A204E425F5354B9
:10510000415455535F4D75746578206572726F72A6
:10511000000000000D0A204E425F434D445F517570
:10512000657565206572726F720000000D0A204E71
:10513000425F524543454956455F51756575652047
:105140006572726F720000000D0A204E425F534577
:105150004E445F5175657565206572726F7200000F
:10516000010901EB810100F00F0000EB4100C0B22A
:105170007047002102E00A38C0B2491C0A28FAD25E
:10518000090740EA116070472DE9F0410446002507
:10519000C07B627BA37B42E0012A16D0032A14D095
:1051A000052A12D0072A10D0082A0ED00A2A0CD0BD
:1051B0000C2A0AD0042A10D0062A0ED0092A0CD0B4
:1051C0000B2A0AD0022A0DD028E01F2B0CD30C2A60
:1051D00005D101221346401C20E01E2B04D30123DD
:1051E000521C1BE01C2B02D203F1010316E011D16B
:1051F00083B29E0710D16426B3FBF6F706FB173681
:1052000036B94FF4C876B3FBF6F706FB17331BB974
:105210001D2303E01D2B01D1032201236D1C8D42B0
:10522000BAD3D1B2E0736173DAB2A27300F050F86E
:105230002073BDE8F08170B50446FDF7CBF8054654
:105240004FF47A7606E0FDF7C5F8401BB04201D96D
:10525000032070BD206840688006F4D5206841684E
:1052600041F010014160002070BD000070B504469F
:105270000068416821F010014160FDF7ABF8054678
:105280004FF47A7607E000BFFDF7A4F8401BB04268
:1052900001D9032070BD206840688006F4D5002045
:1052A00070BD0168086A496A89B241EA00407047E6
:1052B000006881698AB2C1698BB2816989B28A4208
:1052C00003D0C06961F31F40704743EA0240704752
:1052D000F0B56424C1EBC1030927A500072603EB41
:1052E00001130329B3FBF7F100F5FA6011440144FF
:1052F0000AD2401EB0FBF4F201EB9001B0FBF5F0D6
:10530000891A0844001D08E0B0FBF4F201EB90019B
:10531000B0FBF5F0891A0844801CB0FBF6F106FBDF
:105320001100C0B2F0BD70B50D4606460024FFF76F
:1053300082FF48B93168280C08623168A8B2486217
:105340003046FFF793FF00B10124204670BD70B5D1
:105350000D4606460024FFF76EFF48B93168280C59
:1053600088613168A8B2C8613046FFF77FFF00B19D
:105370000124204670BD00002DE9F04F8BB00122C2
:105380005E495F4801F0BEF95C4E00243078012888
:1053900058D0347041F6032070807460DFF8649157
:1053A000DFF86481DFF864A1D9F80010584F594D37
:1053B0004FF0010B414555D157A001F089FE3978D6
:1053C00039702A782A709AF800308AF80030FF2A5B
:1053D00001D0642902D985F800B03C702A781021E8
:1053E0005048FCF7F1FF2878D8B300213A784EA056
:1053F00001F06EFE42480E2207A9083001F082F942
:105400009DF81C106420182903D29DF81D103C291A
:1054100035D312218DF81C108DF81D404FF4B47156
:105420008DF82000ADF81E10ADF821103220ADF837
:1054300024408DF823008DF82640ADF827408DF8E4
:10544000294034E02D492E480222891C083801F0F9
:1054500059F92A492A480422091D001F01F052F96E
:105460009CE70AE037A001F033FEC9F8008085F818
:1054700000B03C708AF80040B0E70121B6E79DF823
:105480002010642901D98DF820009DF8231064298B
:1054900001D98DF823009DF82610642901D98DF8D3
:1054A00026009DF82910642901D98DF8290007A844
:1054B00000F0AAFB718827A0726801F009FEBDF810
:1054C000240003AC9DF82930BDF827209DF8261054
:1054D00084E80F009DF820009DF82320BDF82110DE
:1054E0008DE80700BDF81E309DF81D209DF81C10AA
:1054F0001F4801F0EDFD0BB0BDE8F08F80000020EB
:1055000008FC0008004F0020CDAB3412064F0020ED
:10551000044F0020054F00200D0AC8EDB8B4CEBBE3
:1055200021212100000C01400D0A4C656453746177
:105530007475733A25642C4C656450776D3A256414
:10554000000000000D0AC9CFB5E7B8B4CEBB2121D9
:10555000210000000D0AB2FAC6B7C0E0D0CD3A3043
:10556000782532582CC9E8B1B849443A256400007E
:10557000DC8800087CB5054602F084F9164C2888C2
:105580002080AA78A270E978E1706B796371AB79B9
:10559000A371EB79E371A0F5FA608DF803008DF843
:1055A00001208DF8021001208DF8000000226946CC
:1055B0000A48FDF779FC60798DF80400A0798DF830
:1055C0000500E0798DF80600002201A90348FDF7E7
:1055D000CDFC02F077F97CBD500100208C38002012
:1055E00010B5FFF7C9FE12490620124C08600120D1
:1055F000207002F047F92078012801D038B10EE080
:10560000FCF760F8FCF712F9FCF78CF805E0FFF7FF
:10561000C9F9FCF70BF9FCF755F8FCF7A3F80648B5
:10562000406802F0F3F9BDE8104002F04BB9000009
:10563000840000208000002000000020F0B5044617
:10564000002318466FF02F060EE0255CA5F1300709
:105650000A2F02D300280AD008E003EB830306EBED
:105660004303401C2B44C0B28842EED31360F0BD0C
:1056700030B5002307E0C45CCD5CAC4201D0002013
:1056800030BD5B1C9BB29342F5D3012030BD0000BE
:105690002DE9F0431E46914680464FF6FF778B4238
:1056A00012D800248D1B6D1C0CE000BF08EB040019
:1056B00032464946FFF7DCFF10B12046BDE8F083D3
:1056C000641CA4B2A542F1DC3846F7E710B55020BF
:1056D00080F31188BFF34F8FBFF36F8F02F0DEFEB0
:1056E00018B104494FF080500860002080F3118801
:1056F00010BD000004ED00E070B594B028216846AC
:10570000FAF793FD14210AA8FAF78FFD00250F95EB
:105710000D2000904FF4803001AA1095119512953C
:105720004100012482E81300049402260694CDE986
:1057300007604FF4601009906846FDF717F90F20D5
:10574000CDE90A06A002CDE90C5002210AA80E9567
:10575000FDF700F82002CDE90F400FA8FCF784FF09
:1057600014B070BD704700000148FDF7ECBC0000AC
:10577000BC0300200148FDF7E6BC0000A038002073
:10578000F0B50268164B174C174D4FF08047984202
:1057900005D0B84203D0A04201D0A84203D122F0E4
:1057A00070064A683243984205D0B84203D0A042FE
:1057B00001D0A84203D122F44074CA6822434C6944
:1057C00022F08002224302608A68C2620A68826212
:1057D000984201D10969016301214161F0BD0000D6
:1057E000002C014000040040000800400A46014629
:1057F0004FF47A730148FDF7BBBF0000643100200D
:105800000A4601464FF47A730148FDF7B1BF000024
:10581000243200200A4601464FF47A730148FDF70E
:10582000A7BF00006433002010B5406A0021C18585
:10583000C184FDF768FD10BD0168CA6822F490724A
:10584000CA6001684A6922F001024A61202180F899
:105850003A10704710B590F83A10222901D0022072
:1058600010BD82684FF480539A4201D1016921B181
:10587000816A9A421BD04AB10AE00268816A526882
:10588000C2F308020A80816A891C08E0026972B1C9
:105890000268526802F07F020A70816A491C8162C4
:1058A000C18D491E0904090CC18503D016E00268A8
:1058B0005268F1E70168CA6822F02002CA600168F4
:1058C000CA6822F48072CA6001684A6922F0010243
:1058D0004A61202180F83A10FDF7D2FE002010BD69
:1058E00070B5044600680169E26821F44051114333
:1058F00001612169A0680843616908432168CA6899
:1059000041F20C639A430243CA6020684169A2696C
:1059100021F44071114341611E492068884202D13F
:10592000FCF7DEFF01E0FCF7CBFF00EBC00101EB71
:105930000012606864218000B2FBF0F3B3FBF1F366
:105940006FF018067343B2FBF0F5B2FBF0F605EB0F
:105950008305322303EB0515B5FBF1F5B6FBF1F634
:1059600005F0F00505EB0615B2FBF0F6B2FBF0F022
:10597000B0FBF1F06FF01802504306EB800003EB30
:105980000010B0FBF1F0216800F00F00284488609F
:1059900070BD0000003801402DE9F04198461746DF
:1059A0000E460446069D1DE0681C1BD02DB1FCF779
:1059B00011FDA0EB0800A84214D92068C16821F4A9
:1059C000D071C1602068416921F00101416120204E
:1059D00084F8390084F83A00002084F83800032065
:1059E000BDE8F0812068006836EA000004D000209D
:1059F000B842D9D00020F3E70120F9E70148FDF7CC
:105A000083BC0000643100200148FDF77DBC00002C
:105A1000243200200148FDF777BC000064330020E9
:105A200008B5042900D904210A4601466846FAF758
:105A3000E3FB064800231A466946006802F022FA92
:105A4000012802D002A000F08BFA08BD040100205A
:105A50000D0A78517565756553656E6420657272BF
:105A60006F722C20424C3635323347585F524543D3
:105A7000454956455F51756575650000FDF7C4BF22
:105A800070B51448FE210278F02A05D2521CD2B219
:105A900002700A2A00D301700F480278F02A05D25A
:105AA000521CD2B202700A2A00D301700B4C20782B
:105AB000F0280ED2401CC0B220700A2809D3084D2D
:105AC000217008482988FEF7ABFA00202880F020D2
:105AD000207070BD08010020090100200A0100208B
