:020000040800F2
:1000000010400020A90100085D470008CD0100084C
:10001000CD420008E1140008C558000800000000A7
:1000200000000000000000000000000001010008C6
:10003000E9170008000000004501000825540008E9
:10004000C3010008C3010008C3010008C301000880
:10005000C3010008C3010008C3010008C301000870
:10006000C3010008C3010008C3010008C301000860
:10007000C3010008C3010008C3010008C301000850
:10008000C3010008C3010008C3010008C301000840
:10009000C3010008C3010008C3010008C301000830
:1000A000C3010008C3010008C3010008C301000820
:1000B000C1540008CD540008C3010008C301000862
:1000C000C3010008C3010008C3010008C301000800
:1000D000C301000855570008615700086D57000814
:1000E000C3010008C3010008C3010008DFF80CD0F9
:1000F00000F00CFC00480047016D00081040002093
:10010000224B19680868B0E8F00F80F30988BFF344
:100110006F8F4FF0000080F311884EF00D0E704786
:100120000000000006480068006880F3088862B696
:1001300061B6BFF34F8FBFF36F8F00DF00BF00BF0B
:1001400008ED00E0EFF30980BFF36F8F0F4B1A68E3
:1001500020E9F00F106008B54FF0500080F31188CF
:10016000BFF34F8FBFF36F8F07F020FC4FF00000FD
:1001700080F31188BDE8084019680868B0E8F00FFE
:1001800080F30988BFF36F8F704700BF180000200D
:10019000EFF3058070470000EFF308807047EFF33E
:1001A0000980704768467047064880470648004700
:1001B000FEE7FEE7FEE7FEE7FEE7FEE7FEE7FEE717
:1001C000FEE7FEE7BD540008ED00000870466946F2
:1001D00006F0D4F9FFF7FEFF202A04DB203A21FACB
:1001E00002F00021704721FA02F3D040C2F1200250
:1001F000914008431946704740EA01039B0703D02A
:1002000009E008C9121F08C0042AFAD203E011F855
:10021000013B00F8013B521EF9D27047D2B201E017
:1002200000F8012B491EFBD270470022F6E710B5FB
:1002300013460A4604461946FFF7F0FF204610BD54
:1002400010B5044604E00B7800F8013B03B1491CEB
:10025000521EF8D2204610BD421C10F8011B002986
:10026000FBD1801A704780EA010210B502F000430A
:10027000400022D04A001FD0010E01EB1261C0F3F2
:100280005600C2F3560240F4000042F40002A0FB04
:10029000022000047F39140400D0401C50EA1240B0
:1002A00001D44000491EC2B20C0604EBD010401C21
:1002B0004008802A02D003E0002010BD20F0010099
:1002C000002900DA0020184310BD30B480EA010292
:1002D00002F0004530F0004221F0004013D090B110
:1002E000C30DD40DC2F31601C0F31600E41A41F495
:1002F000000140F400027D34914201D3641C00E00F
:100300004900002C02DA30BC002070474FF4000096
:100310000023914201D3891A034340084FEA410167
:10032000F7D151B1914202D14FF0004105E002D224
:100330004FF0010101E06FF0010103EBC4502844CC
:1003400030BC00F078B92DE9FE4F81EA030404F0D7
:10035000004421F0004100944FF0000B23F00043D3
:1003600050EA01045ED052EA03045BD0C3F30A549E
:10037000C1F30A552C44A4F2F3340194A0FB0254B7
:10038000C1F3130141F48011C3F3130343F4801349
:1003900001FB024400FB034E840A970A44EA81549D
:1003A00047EA8357A4FB076802958D0A05FB07857A
:1003B0004FEA932C04FB0C542705029D4FEA065884
:1003C00047EA1637B5EB08056EEB070C870E920E61
:1003D00047EA811742EA8312A7FB0201B6EB0B0141
:1003E00064EB00042B0D43EA0C335E1844EB1C5005
:1003F000DA465146E7FB0201C5F313044FEA0B331B
:1004000043EA14534FEA0432019C43EA0603A4F181
:100410000C040294009CCDE900B400F052F903B042
:10042000BDE8F08F00200146F9E72DE9F04D81EAA3
:10043000030404F0004B21F0004514464FF0000A7D
:1004400023F0004150EA050220D054EA01021DD0F9
:10045000C5F30A570246C5F31303C1F31300C1F3F2
:100460000A5640F4801543F48013A7EB0608101BCE
:10047000D64608F2FD3873EB050002D308F10108F7
:1004800001E092185B41B8F1000F03DA0020014649
:10049000BDE8F08D00204FF48011064684460EE042
:1004A000171B73EB050705D3121B63EB050306430C
:1004B0004CEA010C49084FEA300092185B4150EABF
:1004C0000107EDD152EA030012D082EA040083EA68
:1004D0000501084305D0101BAB4106D201220023C1
:1004E00006E000224FF0004302E06FF001025310DB
:1004F0001AEB06004CEB085110EB0A0041EB0B0124
:10050000BDE8F04D00F0CEB80EB540F23341029197
:100510000021CDE900110A460B4600F0D2F803B0E5
:1005200000BD20F00040C10DC0F3160040F40000F3
:100530007F2901DA00207047962903DCC1F196017A
:10054000C840704796398840704700F0004230F04C
:1005500000400AD0C10D01F56071C0F3160042EAF7
:100560000151C208400711437047002001467047FF
:1005700001F0004330B421F0004150EA010206D0FE
:100580000A0DA2F56072C1F31301002A02DC30BC2F
:1005900000207047440F44EAC104C100E01830BC99
:1005A00000EBC25000F047B830B50B4601460020C2
:1005B0002022012409E021FA02F59D4205D303FA25
:1005C00002F5491B04FA02F52844151EA2F10102A6
:1005D000F1DC30BD2DE9F05F0546002092469B46D8
:1005E00088460646814640241BE028464146474649
:1005F0002246FFF7F1FD53465A46C01A914110D3E7
:1006000011461846224600F093F92D1A67EB0108AF
:100610004F4622460120002100F08AF917EB00091D
:100620004E41201EA4F10104DFDC484631462A4633
:100630004346BDE8F09F0029A8BF7047401C490011
:1006400008BF20F00100704710B4B0FA80FC00FA37
:100650000CF050EA010404BF10BC704749B1CCF162
:10066000200421FA04F411FA0CF118BF01212143EE
:100670000843A3EB0C01CB1D4FEA00614FEA1020A9
:1006800042BF002010BC704700EBC350104400294B
:10069000A4BF10BC7047401C490008BF20F00100F7
:1006A00010BC704710B5141E73F1000408DA401C2A
:1006B00041F1000192185B411A4301D120F0010081
:1006C00010BD2DE9F04D92469B4611B1B1FA81F271
:1006D00002E0B0FA80F22032904600F029F9044698
:1006E0000F4640EA0A0041EA0B0153465A460843C6
:1006F00013D0114653EA010019D0C8F14002504608
:10070000FFF76AFD05460E4650465946424600F040
:100710000FF9084305D0012004E020463946BDE822
:10072000F08D0020054346EAE0762C4337430A98D3
:100730006305E40AA0EB08000022FD0A44EA4754DE
:100740000A3002D500200146E9E701051019694188
:10075000DDE9084500196941BDE8F04DA2E72DE942
:10076000FE4F804681EA0300C00F0C46009021F046
:10077000004123F00045B8EB0200A94105D24046F4
:10078000214690461C460B46024623F0004010438B
:1007900047D0270DC7F30A00C3F30A510290401A4D
:1007A000019040286BDAC3F3130040F4801B0098DB
:1007B000924620B10023D2EB030A63EB0B0B0198A6
:1007C0005946C0F14002504600F0B2F806460D46C8
:1007D00050465946019A00F0BAF810EB0800614102
:1007E000002487EA115284EAE7731A4340D0009A42
:1007F00062B3019A012A4FEA075215DC001B61EB34
:1008000002014FF0004202EA0752CDE90042001C0B
:1008100041F5801132462B46FFF753FF03B0BDE888
:10082000F08F40462146F9E7001B61EB0201001CF6
:1008300041F5801300185B412018A2F5001747EB23
:10084000030140EAD570B6196D4111E06D084FEA19
:10085000360645EAC0754FEA0752001B61EB0201FC
:10086000001C41F5801149084FEA30000019514140
:1008700032462B4603B0BDE8F04FFFF713BF009898
:10088000012240000023D0EB020263EBE0730098EA
:1008900021464FEAE074B8EB000061EB0401E9E7A0
:1008A00083F000435BE781F0004158E7C1F30A524F
:1008B000C1F3130140F2FF3341F480119A4202DA8E
:1008C00000200146704740F233439A42A2F233427D
:1008D00002DC5242FFF780BC00F02AB830B5041E9B
:1008E00071F1000404DB4FF00044404264EB01016D
:1008F000141E73F1000405DB1C464FF00043524206
:1009000063EB0403994208BF904230BD064C074D8B
:1009100006E0E06840F0010394E8070098471034CF
:10092000AC42F6D3FFF7E6FB348F0008548F000883
:10093000202A04DB203A00FA02F10020704791409F
:10094000C2F1200320FA03F3194390407047202A94
:1009500006DBCB17203A41FA02F043EAE07306E0E7
:1009600041FA02F3D040C2F12002914008431946F7
:10097000704770B58C1810F8015B15F0070301D1B2
:1009800010F8013B2A1106D110F8012B03E010F8F2
:10099000016B01F8016B5B1EF9D12B0705D4002315
:1009A000521E0DD401F8013BFAE710F8013BCB1AB7
:1009B000921C03E013F8015B01F8015B521EF9D5AC
:1009C000A142D8D3002070BDFF21A0F13002092A36
:1009D00001D8D1B20BE0A0F14102192A01D8373871
:1009E00004E0A0F16102192A01D85738C1B20846C3
:1009F0007047000010B503230CA204210CA003F0E3
:100A0000BDFD032309A2042109A003F0B7FD0323C0
:100A100006A2042106A003F0B1FD0323BDE81040A7
:100A200002A2042102A003F0A9BD00004F4B000068
:100A300041540D0A0000000010B58EB00446342168
:100A40006846FFF7F2FB224608A1684605F02CF83D
:100A5000C4B2032309A22146684603F08FFD002893
:100A6000F7D009A006F0E0F90EB010BD41542B51AB
:100A700049434C4F53453D25640D0A00434C4F53A9
:100A800045204F4B000000000D0AB7FECEF1C6F71F
:100A9000B6CFBFAAC1ACBDD300000000F0B593B083
:100AA000064600200D4612901746342105A8FFF790
:100AB000BCFB0024012E02D0022E02D004E01FA0B5
:100AC00000E01FA000681290E878A9786A78CDE964
:100AD0000210019204972878009012AB324619A1B7
:100AE00005A804F0E1FFC1B2032322A205A803F088
:100AF00045FDE0B9234D4FF6FF764FF47A77641C3D
:100B0000E4B2052C07D312A91FA006F08DF94FF00F
:100B1000FF3013B0F0BD0C2316A229881F4804F043
:100B200063FCB04203D1384606F0F6FDE7E712A9B0
:100B30001BA006F079F90020EBE7000054435000B9
:100B40005544500041542B51494F50454E3D25646A
:100B50002C302C222573222C2225642E25642E2550
:100B6000642E2564222C25642C313233342C310D33
:100B70000A0000002B51494F50454E3A20302C308E
:100B800000000000B80000200D0A2573B7FECEF16A
:100B9000C6F7C1ACBDD3CAA7B0DC00003630002018
:100BA0000D0A2573B7FECEF1C6F7C1ACBDD3B3C9EC
:100BB000B9A6000038B50024641CE4B2052C05D9A0
:100BC0003BA006F031F94FF0FF3038BD4FF47A709A
:100BD00006F0A2FD032339A2042139A003F0CEFCC4
:100BE0000028E9D0032335A2062137A003F0C6FC74
:100BF0000028E1D0032331A2052135A003F0BEFC7B
:100C000003232EA20B2134A003F0B8FC0028D3D07C
:100C100003232AA20E2133A003F0B0FC322335A215
:100C20000A2138A003F0AAFC0028C5D0032338A26B
:100C3000092138A003F0A2FC0028BDD003231FA285
:100C40001B2137A003F09AFC0028B5D003231BA278
:100C50000C213AA003F092FC03233CA20B213EA0FE
:100C600003F08CFC0028A7D003233EA20B2140A058
:100C700003F084FC00289FD0032340A20D2142A052
:100C800003F07CFC002897D000F0D6FE8DF8000021
:100C9000632801D00A2805D200208DF801003EA06B
:100CA00006F0C2F86946012001F0B6F8002038BD10
:100CB0004154204572726F72210D0A004F4B0000A3
:100CC00041540D0A00000000415445300D0A000057
:100CD0004154490D0A00000041542B4346554E3DF6
:100CE000310D0A0041542B5149434C4F53453D307F
:100CF0000D0A00002B4350494E3A205245414459B9
:100D00000000000041542B4350494E3F0D0A0000A3
:100D10003436300041542B43494D490D0A00000040
:100D200041542B51494346473D2264617461666FCB
:100D3000726D6174222C312C310D0A0041542B4309
:100D4000474154543D310D0A000000002B434741F8
:100D500054543A203100000041542B43474154542D
:100D60003F0D0A002B43455245473A20302C3100B5
:100D700041542B43455245473F0D0A002B434750F2
:100D8000414444523A20310041542B43475041449E
:100D900044523F0D0A000000D0C5BAC5CBD1CBF7F5
:100DA000CAA7B0DCA3ACC7EBB2E9BFB4D4ADD2F2F2
:100DB000210D0A00F0B5A1B00E4607468021684615
:100DC000FFF733FA324611A1684604F06DFEC5B252
:100DD0006C460DEB05023146384600F0D5FC05EBBC
:100DE00046010D2060540A190A205070881C802882
:100DF00005D90BA006F018F8002021B0F0BD0323A0
:100E00000CA26846891C03F0B9FBF6E741542B514C
:100E10004953454E4445583D302C25642C00000074
:100E20000D0AB7A2CBCDCAFDBEDDB3A4B6C8B9FDCD
:100E3000B3A4000053454E44204F4B000178427844
:100E400011448278C07810440844C043C0B270474F
:100E500010B50024152000F05DFA332800D00124DD
:100E6000204610BD70B5254D4FF4807400222146F8
:100E7000284601F001FA0A2001F042F80122214639
:100E8000284601F0F9F91E2001F03AF800231A462D
:100E900055213E2000F070FA012001F031F82023A6
:100EA00000220121142000F067FA012001F028F847
:100EB00000231A463321152000F05EFA012001F0CC
:100EC0001FF800231A462821392000F055FA012086
:100ED00001F016F800230322EA21372000F04CFA33
:100EE000012001F00DF800231A4619463E2000F0BB
:100EF00043FABDE87040012001F002B8000C014047
:100F00002DE9F04F044699B03A2000F003FA17900B
:100F10003E2000F0FFF90690142000F0FBF9079046
:100F2000152000F0F7F90890392000F0F3F9099046
:100F3000372000F0EFF90A90072000F0EBF90C9051
:100F4000052000F0E7F90D90062000F0E3F90E907F
:100F5000132000F0DFF9014613907CA005F064FF38
:100F60000D2000F0D7F916900C98FFF7CDFA7D4AC6
:100F70007D4BFFF75AFAFFF7FBFA00900D98FFF749
:100F8000C3FA7A4E7A4F32463B46FFF74EFAFFF7E6
:100F9000EFFA05460E98FFF7B7FA32463B46FFF7E1
:100FA00044FAFFF7E5FA834629460098FFF75BF914
:100FB000824659460098FFF756F901901398FFF7BB
:100FC000A3FA6C4A6C4BFFF730FAFFF7D1FA0746E9
:100FD0001698FFF799FA064688463846FFF7B5FA9D
:100FE0000022664BFFF7AFF902460B4630464146FA
:100FF000FFF71BFAFFF7BCFA614E804631462846E0
:10100000FFF731F9FFF78DFA00250A2801D2656054
:1010100000E0606031465846FFF725F9FFF781FA96
:101020000A2801D2656000E0606031460098FFF751
:101030001AF9FFF776FA4FF47A77B84201D2A56031
:1010400000E0A06031465046FFF70DF9FFF769FA5E
:10105000DFF83091B84201D2256006E0494650469B
:10106000FFF701F9FFF75DFA206031460198FFF7BD
:10107000FAF8FFF756FA0646B84201D2256006E0B4
:1010800049460198FFF7EFF8FFF74BFA20603E4D15
:1010900040462946FFF7E7F8FFF743FA20613BA0F7
:1010A00005F0C2FE44A0179905F0BEFE49A00699BE
:1010B00005F0BAFE4EA0079905F0B6FE53A00899B8
:1010C00005F0B2FE58A0099905F0AEFE5DA00A99A0
:1010D00005F0AAFE62A00B9905F0A6FE67A00C9988
:1010E00005F0A2FE6BA00E9905F09EFE6FA016996A
:1010F00005F09AFED4E90121334672A005F094FE72
:1011000029464046FFF7E1F8FFF71FFA81468A4675
:101110000198FFF71AFA074688465846FFF715FA6E
:1011200005460E460098FFF710FA8DE8E0070246E4
:101130000B466DA005F078FE14A005F075FE214663
:1011400006A800F031F919B0BDE8F08F424C3635F1
:10115000323347315F57415454203D2025640D0AF6
:1011600000000000363CBD52FE64C540105839B442
:10117000B4541E413F575BB1BF3C3E40882AD1402A
:1011800000007A44000020410000C8422D2D2D2D82
:101190002D2D2D2D2D2D2D2D2D2D2D2D2D2D2D2D7F
:1011A0002D2D2D2D2D2D2D2D2D2D2D2D2D2D2D2D6F
:1011B0002D2D0D0A00000000424C363532334731E8
:1011C0005F535441545553203D20305825303258F8
:1011D0000D0A0000424C3635323347315F575250CA
:1011E000524F54203D203078253032580D0A0000EF
:1011F000424C3635323347315F4D4F4445203D2018
:101200003078253032580D0A00000000424C363547
:10121000323347315F4741494E203D2030782530F9
:1012200032580D0A00000000424C36353233473147
:101230005F4D41534B203D203078253032580D0A08
:1012400000000000424C363532334731565F504B78
:101250004C564C203D203078253032580D0A000085
:10126000424C3635323347315F495F504B4C564C18
:10127000203D203078253032580D0A00424C36355A
:10128000323347315F565F524D53203D2025640D68
:101290000A000000424C3635323347315F495F5215
:1012A0004D53203D2025640D0A000000424C363588
:1012B000323347315F56414852203D2025640D0AA4
:1012C000000000005631203D202564206D562C4939
:1012D00031203D202564206D412C50203D20256487
:1012E000206D570A0000000056203D20252E316653
:1012F000562C41203D20252E3266412C50203D2089
:10130000252E3266572C45203D202566A1E3200A74
:101310000000000010B5A2B035218DF880108DF8C6
:1013200000008DF881000024022120A804F00AF9B1
:1013300010484FF496720DF10101006806F05CFD53
:10134000012802D0002022B010BD6846FFF776FDCC
:101350009DF8041081420AD19DF803009DF8021007
:1013600044EA00409DF8014040EA01200443204641
:10137000E9E70000EC0000201CB5CA248DF800400D
:101380008DF801008DF802108DF803208DF80430DF
:101390000DF10100FFF752FD8DF8050006216846AA
:1013A00004F0D0F81CBD0000406C10F0280F01D0F4
:1013B000042008E0020701D5022004E0800601D5E0
:1013C000012000E00020087310F0FF0008D0012881
:1013D00008D0022808D0042808D105A005F024BDB3
:1013E00013A0FBE720A0F9E72EA0F7E77047000065
:1013F0000A2A2A2A2A2A2A2A2A2A2A2A2A2A2A2A6D
:101400002A2A2A424C363532334758B5E7C1F7B954
:10141000FDD1B9B9FDC1F72A2A2A2A2A2A2A2A2A5D
:101420002A2A2A2A2A2A2A2A2A2A2A0A00000000E4
:101430000A2A2A2A2A2A2A2A2A2A2A2A2A2A2A2A2C
:101440002A2A2A424C363532334758D5FDB3A32ACF
:101450002A2A2A2A2A2A2A2A2A2A2A2A2A2A2A2AEC
:101460002A2A2A0A000000000A2A2A2A2A2A2A2AC4
:101470002A2A2A2A2A2A2A2A2A2A2A424C36353273
:10148000334758B5E7C1F7B9FDD1B92A2A2A2A2A24
:101490002A2A2A2A2A2A2A2A2A2A2A2A2A2A2A0ACC
:1014A000000000000A2A2A2A2A2A2A2A2A2A2A2A64
:1014B0002A2A2A2A2A2A2A424C363532334758B554
:1014C000E7C1F7B9FDC1F72A2A2A2A2A2A2A2A2A95
:1014D0002A2A2A2A2A2A2A2A2A2A2A0A0000000034
:1014E000FEE770B5044600234FF6FF704AF201058F
:1014F0000DE0E25C50400022C60702D085EA5000B1
:1015000000E04008521CD2B2082AF5D35B1C8B4283
:10151000EFD370BD10B50024FFF79AFC10B1012481
:1015200008A000E00DA005F07FFCFFF763FA28B1EA
:1015300010A000BF05F078FC204610BD44F0020466
:1015400011A0F7E70D0AB5E7C1BFBCC6204552524E
:101550004F52A3A1A3A1A3A1000000000D0AB5E76B
:10156000C1BFBCC62053554343455353A3A1A3A1B8
:10157000A3A100000D0A204E42205355434345537A
:1015800053A3A1A3A1A3A1000D0A204E42204552BE
:10159000524F52A3A1A3A1A3A10000001CB50AA011
:1015A00004F08AFB0C490320CDE9000100234FF42D
:1015B00080720AA10A4806F0B1FD012803D009A0F3
:1015C00004F07AFBFEE71CBD0D0A204372656174CE
:1015D0004C65645461736B00A40000204C6564008A
:1015E0009D3B00080D0A204C65645F5461736B20BD
:1015F0006372656174206572726F72001CB509A018
:1016000004F05AFB00210520CDE900010B464FF400
:10161000967208A1084806F081FD012800D0FEE777
:101620001CBD00000D0A2043726561744E42546176
:10163000736B00004E420000214600081CB50AA052
:1016400004F03AFB00210620CDE900010B464FF4DF
:10165000C8720BA10D4806F061FD012803D00CA053
:1016600004F02AFBFEE71CBD0D0A2043726561747D
:10167000506C6174666F726D5461736B0000000092
:10168000506C6174666F726D00000000454B00087D
:101690000D0A204372656174506C6174666F726DDF
:1016A0005461736B206372656174206572726F722E
:1016B000000000001CB508490120CDE9000100230D
:1016C000802206A1074806F029FD012803D006A0C4
:1016D00004F0F2FAFEE71CBD0400002053746172AE
:1016E00074000000395300080D0A205374617274AD
:1016F0005F5461736B494420637265617420657245
:10170000726F72001CB50BA004F0D6FA0E490420CB
:10171000CDE90001002380220CA10E4806F0FEFC5A
:101720000949091F0128086003D00BA004F0C4FA7E
:10173000FEE71CBD0D0A2043726561745561727429
:101740005461736B00000000AC000020556172749E
:1017500041707000415800080D0A5561727454615F
:10176000736B206372656174206572726F72000022
:1017700000210F2801D9084670470A2801D33730C5
:1017800000E03030C0B2704770B50D460646002309
:101790000FE0F15C080901F00F04FFF7E9FF02F820
:1017A00013002046FFF7E4FF02EB43015B1C487087
:1017B0009BB2AB42EDD370BDF0B517460E46044662
:1017C00000230EE014F81300FFF7FEF8054604EBC3
:1017D00043004078FFF7F8F840EA0510F8545B1C26
:1017E0009BB2B342EED3F0BD7047000000B58BB0A2
:1017F000142105A8FEF719FD684600F017FA0298B3
:101800000A21B0FBF1F11EA005F00EFB0198FEF7D6
:101810007BFE00221F4BFEF708FE02460B461EA071
:1018200005F002FB0098FEF76FFE00221F4BFEF74B
:10183000FCFD02460B461EA005F0F6FA0498FEF7E2
:1018400063FE00221F4BFEF7F0FD02460B461EA072
:1018500005F0EAFA9DF80D0078B1002120A005F00E
:10186000E3FA9DF80E1024A005F0DEFA9DF80C10A6
:1018700026A005F0D9FA0BB000BD0121EEE700006B
:10188000C4BFC7B0B5E7D1B9A3BA25642076200A92
:101890000000000000408F40C4BFC7B0B5E7C1F7EB
:1018A000A3BA252E3366206D41200A000000244093
:1018B000C4BFC7B0B9A6C2CAA3BA252E3166207765
:1018C000200A000000005940C4BFC7B0B5E7C1BF3F
:1018D000A3BA252E3166206B7768200A000000002D
:1018E000C4BFC7B0BCCCB5E7C6F7D7B4CCACA3BABD
:1018F0002564200A00000000C4BFC7B0B5F7B9E2F4
:10190000D6B5A3BA2564200A00000000C4BFC7B042
:10191000C9E8B1B8D7B4CCACA3BA2578200A000086
:101920007047000006490020C8610648016941F07F
:1019300004010161016941F040010161704700004B
:10194000F003002000200240064A0021D161064930
:101950000A6942F002020A614861086940F04000E9
:1019600008617047F003002000200240044B002271
:10197000DA61044A136943F001031361018070477F
:10198000F00300200020024014480022C168CB066A
:10199000134904D5CA6942F00202CA611022C36821
:1019A0005B0705D5CB6943F00103CB6142F004022C
:1019B000C369DB0707D0CB6943F00403CB61C1697E
:1019C00021F00101C161A2F58071013901D0C2602D
:1019D0007047C16921F00101C161704700200240D8
:1019E000F003002070B5054600F04CFC0646114C93
:1019F00009E0681C07D025B100F044FC801BA84218
:101A000001D9032070BDE068C007F2D1E06880060C
:101A100001D52020E060E068C00605D4E069C00779
:101A200002D1E068400703D5FFF7AEFF012070BD8B
:101A3000002070BD002002402DE9FF4163208DF899
:101A40000C00FF208DF800008DF80400032329A26C
:101A500009212AA002F092FD044602A9002000F00C
:101A6000DBF9012C41D1284C01233A222188274857
:101A700000F04EF84FF6FF76B04236D0234F03AA5F
:101A800038440221801C03F085FC9DF80C008DF881
:101A9000080004232C222188384600F039F8054636
:101AA000B04222D005232C222188384600F030F89D
:101AB0000646401BC1B278196A46401C03F06AFC16
:101AC0009DF800008DF80A00207801AA801B0938D3
:101AD000C1B2B819401C03F05DFC9DF804008DF8FC
:101AE0000B0002A9012000F097F99DF80C0004B04A
:101AF000BDE8F0812B4345535100000041542B4376
:101B00004553510D0A000000B80000203630002077
:101B100070B505460020044608E02E5C964203D1CD
:101B2000641CE4B29C4205D0401CC0B28842F4D38D
:101B30004FF6FF7070BD00001CB5044605F04EFD69
:101B4000002201A9244801F030F800226946224809
:101B500001F004F89DF80300204900F5FA600880C0
:101B60009DF801208A709DF80220CA709DF804201B
:101B70004A719DF805208A719DF80620CA7120805F
:101B80008878A070C878E070487960718879A07111
:101B9000C879E07145F2510201210F4800F0D6FFEB
:101BA0009DF8032002210C4800F0D0FF9DF8012091
:101BB0000321094800F0CAFF9DF8022004210648CD
:101BC00000F0C4FF9DF800200521034800F0BEFF8F
:101BD00005F024FD1CBD00007438002038010020F1
:101BE0001CB50446012201A90D4800F0DEFF0122C8
:101BF00069460B4800F0B2FF9DF8030020809DF875
:101C00000100A0709DF80200E0709DF80400607172
:101C10009DF80500A0719DF80600E0711CBD000054
:101C200074380020A0F10060800A704770B50F4D35
:101C300004464FF0FF31686906F07AF90C4800233A
:101C40008168A1600B494A7862730978A1730168C1
:101C500021600169216141686160007B20736869CE
:101C6000BDE870401A46194605F0B8BF8C00002048
:101C700038310020044F00207CB51E2340A21D21D6
:101C800041A002F07BFC4FF0FF34002853D04948BC
:101C9000082345A20188484803F0A6FBB0EB144195
:101CA00049D045494FF4F4640844817AC37A303905
:101CB00001EB810104EB41011944ADF80010417BB7
:101CC000837B303901EB81046FF02F0101EB440479
:101CD00023448DF80230037C447C303B03EB8303C8
:101CE00001EB430323448DF80330C37C047D303B78
:101CF00003EB830301EB43032344DBB28DF8053090
:101D0000847DC57D303C04EB840401EB44042C4409
:101D1000E4B28DF80640457E867E303D05EB8505B4
:101D200001EB450535448DF80750C57E2D2D04D0B7
:101D30002B2D0CD014E020467CBD427F007F303834
:101D400000EB800001EB40001044404207E0427F7E
:101D5000007F303800EB800001EB40001044C2B23D
:101D600003EB92008DF8050002F00300C0EB0010B9
:101D700020448DF80600684603F0A8FA00207CBDD8
:101D80002B514E54503A000041542B514E54503D6B
:101D9000312C226E7470312E616C6979756E2E63F0
:101DA0006F6D220D0A0000002B514E54503A203026
:101DB00000000000B80000203630002070B5144D3F
:101DC00004464FF0FF31286906F0B2F811480023AD
:101DD0001A4601782170417861700179217141883A
:101DE0006180C179E171B0F80510A4F80510817A1D
:101DF000A17201892181417B6173B0F80B00A4F8C5
:101E00000B00AC781946286905F0E8FE204670BD45
:101E10008C0000200E2D002070B5124D0C46064699
:101E20004FF0FF31686906F083F805F12C027EB1AE
:101E30002078107060785070A0789070E078D07042
:101E40006869BDE8704000231A46194605F0C6BE11
:101E500010782070507860709078A070D078E07022
:101E6000EEE70000B800002010B590F82110002423
:101E7000022903D00421816301243DE001680A683E
:101E800022F00E020A6001680A6822F001020A606C
:101E90001A4A0168914201D1012121E0174A143206
:101EA000914201D110211BE0144A2832914201D104
:101EB000891515E0114A3C32914201D189140FE095
:101EC0000E4A5032914202D14FF4803108E00B4A61
:101ED0006432914202D14FF4801101E04FF08071E1
:101EE000064A083A5160012180F82110002180F84B
:101EF0002010416B01B18847204610BD0800024008
:101F000070B5044600F0BEF90546601C02D00448D6
:101F10000078044400F0B6F9401BA042FAD370BD2B
:101F2000080000202DE9F047054626480F46012607
:101F3000017E01290FD00121814601762868DFF852
:101F400088804CF25034022808D0A2462046FFF781
:101F500049FDA8B131E00220BDE8F0872046FFF737
:101F600041FD08BB0120FFF7DDFC2046FFF73AFDED
:101F7000D8F81010064621F00401C8F810101CE033
:101F80004FF0FF303860AC6811E02046FFF7DCFC12
:101F90005046FFF727FDD8F81010060021F0020187
:101FA000C8F8101001D03C6007E004F58064D5E962
:101FB000020100EB8120A042E7D8002189F8181027
:101FC0003046C9E7F00300200020024003480169C1
:101FD00041F08001016100207047000000200240B4
:101FE0002DE9F05F07461C4888460024017E15460F
:101FF0001E46012909D00121814601764CF2503A52
:102000005046FFF7EFFC18B122E00220BDE8F09F38
:10201000012F02D0022F00D00427D346DFF83CA0C6
:10202000220128463146FEF7D7F881B208EB44007A
:10203000FFF79CFC5846FFF7D5FCDAF8102022F099
:102040000102CAF8102018B9641CE4B2BC42E7D3FC
:10205000002289F81820D9E7F00300200020024070
:10206000064900200A69120607D5054A4A60054A52
:102070004A600969090600D5012070470020024026
:1020800023016745AB89EFCD2DE9F84FDFF8B89113
:10209000002409F1040A0AF1040B23460F270BF16F
:1020A000040EC9E00125A5402A40AA427DD1674E11
:1020B000D1F804C0ACEB0608B44532D014DCBCF156
:1020C000030F3AD009DCBCF1000F2AD0BCF1010F9C
:1020D0001CD0BCF1020F31D11DE0BCF1110F17D0A3
:1020E000BCF1120F2AD119E0B8F5881F19D006DC0F
:1020F000B8F5803F15D0B8F5801F1FD111E0B8F5B5
:10210000001F0ED0B8F5041F18D10AE0CB6815E007
:10211000CB681B1D12E0CB6808330FE0CB680C3393
:102120000CE08B682BB1012B4FF0080303D0456105
:1021300004E0042302E0056100E00023FF2A01D847
:10214000064601E000F104064FEA840501D9A5F135
:102150002005D6F8008007FA05FC28EA0C0803FAE7
:1021600005F548EA0508C6F800804D68ED0062D51F
:10217000374DAE6946F00106AE61AD6924F0030645
:1021800005F001050095334D06EB050CDCF8085011
:10219000A607360F07FA06F825EA0805DFF8B88023
:1021A000404503D14FF0000817E044E0DFF8AC8071
:1021B000404502D14FF001080FE0DFF8A480404510
:1021C00002D14FF0020808E0DFF89880404502D1C4
:1021D0004FF0030801E04FF0040808FA06F848EA57
:1021E0000508CCF808804D68D9F80060ED034D462D
:1021F00001D5164300E096432E604D68DAF8006082
:10220000AD03554601D5164300E096432E604D6858
:10221000DBF80060ED025D4601D5164300E0964311
:102220002E604D68DEF80060AD02754601D516439C
:1022300000E096432E60641C0D682A46E5407FF45A
:1022400031AFBDE8F88F000000040140000011101C
:10225000001002400000014000080140000C014055
:102260000010014000140140C26821EA02030A4044
:1022700043EA0241016170470AB1016170470904F4
:10228000FBE700000148806870470000080000205C
:1022900070B5040011D021684CF6CC40086021686C
:1022A00045F255500860D4E9000141602168A068FA
:1022B0008860FFF7E7FF054609E0012070BD00BF19
:1022C000FFF7E0FF401B262801D9032070BD2068DE
:1022D000C0680028F4D121684AF6AA2008600020CE
:1022E00070BD000002488168027811448160704727
:1022F00008000020074810B5016841F01001016096
:10230000032000F08DF8002000F006F800F03EF801
:10231000002010BD0020024000B5014687B0002219
:102320001C2000F05DF81C2000F04CF81448C16936
:1023300041F00101C161C06905A900F001000690EA
:10234000684600F0F5F900F013FA0E494000B0FBC2
:10235000F1F10D484FF08042491E0260416040F2A9
:10236000E7320021C0E90321816000F0CCFD10B10B
:10237000012007B000BD044800F010FEF9E700009E
:102380000010024040420F00A40300200B4808B593
:10239000816941F001018161816901F001010091D0
:1023A000C16941F08051C161C06900F08050009066
:1023B0000348416821F0E061416008BD001002401F
:1023C00000000140002809DB00F01F0201219140BC
:1023D0004009800000F1E020C0F8001170470000C3
:1023E000F0B40E4B1B680C46C3F30223C3F1070580
:1023F000042D00D90425191D072901D2002300E06E
:10240000DB1E012606FA05F1491E214099409E4037
:10241000761E16403143F0BC03F06CBB0CED00E0BF
:10242000064900F0070208684FF6FF03184040EA2B
:102430000220034A10430860704700000CED00E0E2
:102440000000FA05014901200862704700000E42B1
:1024500010B529A401461DCC86B08DE81D002AA028
:102460002A4C006804900020012923D002293AD088
:1024700010291DD161682268D20119D5C1F38342A8
:10248000C9031DF8020009D5616804AAC1F34041DF
:10249000515C1F4AB2FBF1F1484301E01D4948433A
:1024A0006168490204D440005FF00301B0FBF1F021
:1024B00006B010BD226AC2F30121012903D192079F
:1024C00001D5C803F4E7022905D1626A920702D553
:1024D00049F64040ECE70329EAD121688903E7D5B2
:1024E0004FF22440E4E700F053F96168C1F3813111
:1024F000491C4900DAE70000020304050607080941
:102500000A0B0C0D0E0F101001020000001002400B
:1025100000127A0000093D002DE9F84305460078D5
:10252000354CC00754D0E0690026C00008D4E069EB
:1025300040F08050E061E069012600F0805000909A
:102540002E480168C90512D40168804641F48071A3
:102550000160FFF797FE074605E000BFFFF792FE18
:10256000C01B642823D8D8F80000C005F6D5206A1F
:1025700010F4407021D0A98801F4407181421CD030
:10258000206A1F49012220F440700A6000220A607C
:102590002062C00711D0FFF775FE074641F2883868
:1025A00008E000BFFFF76EFEC11B414502D90320C2
:1025B000BDE8F883206A8007F4D5206A696820F4B2
:1025C0004070084320621EB1E06920F08050E06155
:1025D0002878800705D56068A96820F44040084342
:1025E00060602878C00605D56068E96820F480003E
:1025F000084360600020DBE70010024000700040EC
:10260000400442422DE9F0470F46050061D0434E99
:10261000306800F00700B84209D2306820F00700A7
:1026200038433060306800F00700B84251D1286864
:102630003B4C810712D5400703D5606840F4E06049
:1026400060602878000703D5606840F460506060DF
:102650006068A96820F0F000084360602878C0072F
:1026600028D06868012810D02168022810D0890776
:1026700000292EDA616821F0030101436160FFF750
:1026800001FE804641F288390DE021688903EFE7B9
:102690008901EDE7FFF7F6FDA0EB0801494502D9F6
:1026A0000320BDE8F0876068696800F00C00B0EBBB
:1026B000810FEFD1306800F00700B8420BD93068C5
:1026C00020F0070038433060306800F00700B8425F
:1026D00001D00120E5E72878400705D56068E96862
:1026E00020F4E060084360602878000706D5606841
:1026F000296920F4605040EAC100606000F058F899
:102700006168084AC1F30311515CC840064908607A
:1027100006480068FFF700FE0020C2E700200240E4
:102720000010024020850008140000200C0000204A
:102730000F2202600C4A536803F00303436053689E
:1027400003F0F0038360536803F4E063C3605268EE
:102750004FF4E06303EAD20202610448006800F02B
:10276000070008607047000000100240002002408F
:102770000448054900684968044AC1F30221515CD4
:10278000C840704714000020001002403085000847
:102790000448054900684968044AC1F3C221515CF4
:1027A000C840704714000020001002403085000827
:1027B00012A185B00FC98DE80F0014A0144A00685B
:1027C00004905168134801F00C03042B10D0082B1F
:1027D0000ED1C1F38343C9031DF803000AD5516824
:1027E00004AAC1F34041515C0A4A5043B0FBF1F0E6
:1027F00005B0704708494843FAE7000002030405A2
:10280000060708090A0B0C0D0E0F1010010200003C
:102810000010024000127A0000093D002DE9F84F37
:10282000040070D02078C04DC00749D06868C0F35C
:102830008100012807D06868C0F38100022809D10F
:102840006868C00306D52868800339D56068002809
:10285000E7D035E06068B0F5803F0BD010B1B0F53F
:10286000A02F11D0286820F480302860286820F438
:10287000802002E0286840F480302860606890B1D1
:10288000FFF700FD06460AE0286840F48020286033
:10289000F0E700BFFFF7F6FC801B642873D82868B8
:1028A0008003F7D50CE0FFF7EDFC064605E000BF1E
:1028B000FFF7E8FC801B6428F0D828688003F7D471
:1028C00020789A4E80074FF001094FF0000839D563
:1028D000686810F00C0F07D06868C0F38100022808
:1028E00009D16868C00306D42868800714D5206918
:1028F000012808D110E02069B0B1C6F80090FFF7B8
:10290000C1FC074605E00AE1FFF7BCFCC01B02283A
:10291000C4D828688007F7D52868616920F0F800D6
:1029200040EAC10028600DE0C6F80080FFF7AAFC6D
:10293000074604E0FFF7A6FCC01B022823D828683E
:102940008007F7D4207800072CD57948A169D9B140
:10295000C0F80090FFF796FC074604E0FFF792FCF2
:10296000C01B02280FD8686A8007F7D571484FF45A
:10297000FA510068B0FBF1F0009000BF0098411ED2
:102980000091FAD20EE080E0C0F80080FFF77AFCF8
:10299000074604E0FFF776FCC01B022875D8686A7A
:1029A0008007F7D42078400760D5E8690027C00089
:1029B00008D4E86940F08050E861E869012700F038
:1029C000805000905C480168C90513D401688346B3
:1029D00041F480710160FFF755FC824606E000BFBC
:1029E000FFF750FCA0EB0A0064284ED8DBF800008B
:1029F000C005F5D5E06801280AD008B1052813D034
:102A0000286A20F001002862286A20F0040002E011
:102A1000286A40F001002862E06841F2883B98B1E2
:102A2000FFF730FC82460BE0286A40F00400286281
:102A3000EEE700BFFFF726FCA0EB0A0159455AD884
:102A4000286A8007F6D50CE0FFF71CFC824605E0FB
:102A5000FFF718FCA0EB0A0159454CD8286A8007FB
:102A6000F6D41FB1E86920F08050E861E06988B3CE
:102A70006968C1F38101022944D00228C6F8608048
:102A800004D0FFF7FFFB044638E034E0FFF7FAFB21
:102A9000074604E0FFF7F6FBC01B02282BD8286886
:102AA0008001F7D4206AB0F5803F05D16868A1683D
:102AB00020F4003008436860D4E9080108436968DD
:102AC00021F4741108436860C6F86090FFF7DAFBE0
:102AD000044606E025E000BFFFF7D4FB001B0228F8
:102AE00009D828688001F7D51BE000BFFFF7CAFBB3
:102AF000001B022802D90320BDE8F88F2868800156
:102B0000F4D40EE00128F7D06868226A00F480311E
:102B1000914204D1616A00F47010884201D0012012
:102B2000EAE70020E8E7000000100240000042420F
:102B3000800442421400002000700040024850F817
:102B4000210080B270470000006C0040024800EB9A
:102B5000810091B201607047006C0040F8B505003B
:102B60004FF0000016460C46009006D02CB1002213
:102B70006946284600F019F808B10120F8BD287B05
:102B80002070E87BE070697B6170A97BA17056B111
:102B900002F09BF9E070607802F097F96070A0781D
:102BA00002F093F9A0700020F8BD2DE9F04791469E
:102BB0000C465FEA00084AD084B3D8F800004068A9
:102BC000400744D4404602F01FFA4FF461620546C4
:102BD000B0FBF2F1B0FBF2F302FB13503C23B0FB6D
:102BE000F3F0B5FBF2F6607002FB1650B0FBF3F2A7
:102BF00003FB1200A070182931D31820B1FBF0F7A5
:102C0000B1FBF0F200FB12102070404602F0F5F923
:102C1000411C04D0A84202D9461B02E017E04FF045
:102C2000FF36A7EB071000EB4000C0EB001005EBF0
:102C3000C0152946404602F036FA40B9701C01D052
:102C4000711900E03146404602F019FA10B1012036
:102C5000BDE8F0873946404602F042F900E02170B5
:102C6000B9F1000F0BD0207802F02FF920706078B6
:102C700002F02BF96070A07802F027F9A070002014
:102C8000E6E7000070B5040003D0607C002610B1B8
:102C900005E0012070BD2674204600F043F80220B4
:102CA0006074204600F010F9042578BB204602F03D
:102CB0006EF958BB2068416821F007014160A068A7
:102CC00020B11748016821F0010101601448001F7C
:102CD0000168A26821F46071114301606068411CC1
:102CE00004D10120FFF7B4FB80B1401E21688A683F
:102CF00022F00F0242EA10428A602168CA6860F33B
:102D00000F02CA60204602F05DF908B16574C0E7A1
:102D1000E67301206073A0736074002070BD000032
:102D2000306C004008B50068084988420DD1FFF7B3
:102D300089FB0748C16941F00061C161C06905496B
:102D400000F0006000900120086008BD00280040ED
:102D5000001002403C0442422DE9F0410D460400BF
:102D60003BD0C5B3207C01283AD04FF0010884F84D
:102D7000108002206074E87872B302F09DF8E0736E
:102D8000687802F099F86073A87802F095F8A0735B
:102D9000C2B2617BE07B02F047F9207328702046C5
:102DA00002F032F94FF46161B0FBF1F1002518290E
:102DB0002DD91822B1FBF2F1A1EB011101EB410178
:102DC000C1EB011100EBC1163146204602F06BF950
:102DD0000427C8B90BE000E004E00120BDE8F08161
:102DE0000220FBE7E07368786073A878CFE720469D
:102DF00002F003F9411C0AD0B04208D2064901444E
:102E0000204602F03CF910B167742574E5E784F8B8
:102E1000118025740020E1E7805101002DE9F04187
:102E20000D46040024D01DB3207C012823D04FF090
:102E3000010884F81080022060742878EAB102F05A
:102E40003BF84FF4616100FB01F6687802F034F85A
:102E5000C0EB001006EB8006A87802F02DF83518BC
:102E60002946204602F01FF90026042710BB0FE078
:102E70000120BDE8F0810220FBE74FF46161484387
:102E80006978C1EB011100EB8100A9784518E7E7EB
:102E90002068416821F005014160204602F0ADF84C
:102EA000411C0AD0A84208D206490144204602F03B
:102EB000E6F810B167742674DAE784F81180267496
:102EC0000020D6E78051010070B504000AD02068C8
:102ED000416821F008014160FFF7D4F905464FF43D
:102EE0007A7608E0012070BDFFF7CCF9401BB042B4
:102EF00001D9032070BD206840680007F4D5002088
:102F000070BD7047704710B5040003D094F83D00C1
:102F100010B107E0012010BD002084F83C002046DD
:102F200000F01EF8022084F83D00211D206802F008
:102F3000D3FA012084F8460084F83E0084F83F006C
:102F400084F8400084F8410084F8420084F843008B
:102F500084F8440084F8450084F83D00002010BD4A
:102F600008B500680B49884212D10B48C16941F08D
:102F70000201C161C069002200F002000090052139
:102F80001D20FFF72DFABDE808401D20FFF71ABAF3
:102F900008BD0000000400400010024090F83D1001
:102FA000012901D001207047022180F83D100168FD
:102FB000CA6842F00102CA6000680B49884208D022
:102FC000B0F1804F05D00949884202D008498842B3
:102FD00004D1816801F00701062903D0016841F09E
:102FE0000101016000207047002C014000040040F6
:102FF00000080040704770B50446006801694FF052
:103000000005C943890715D4C168C943890711D48C
:10301000E91E016101202077206880698007204631
:1030200002D0FFF7E7FF04E000F098F8204600F038
:1030300096F8257720680169C943490717D4C16804
:10304000C943490713D46FF00401016102202077BE
:103050002068806910F4407F204602D0FFF7CAFF45
:1030600004E000F07BF8204600F079F8257720682E
:103070000169C943090716D4C168C943090712D4B5
:103080006FF008010161042020772068C069800783
:10309000204602D0FFF7AEFF04E000F05FF82046C4
:1030A00000F05DF8257720680169C943C90617D487
:1030B000C168C943C90613D46FF01001016108202B
:1030C00020772068C06910F4407F204602D0FFF7C7
:1030D00091FF04E000F042F8204600F040F8257728
:1030E00020680169C943C90708D1C168C943C90734
:1030F00004D1891E0161204600F032F82068016980
:10310000C943090609D4C168C943090605D46FF04B
:10311000800101612046FFF7F4FE20680169C94380
:10312000490609D4C168C943490605D46FF0400176
:103130000161204600F03EF820680169C943890614
:103140000BD4C168C943890607D46FF0200101611F
:103150002046BDE87040FFF7D5BE70BD7047704790
:1031600070B504460068B0F1804F01D1FFF7BAF89E
:103170000E492068884217D10D4C6068401C606081
:1031800000F002FC606800250A2808D3A068401CF3
:10319000C4E901502068401C206002F01DFBA068BB
:1031A000B0F57A7F00D3A56070BD00000004004038
:1031B000000100207047704770B50268044610682F
:1031C000D168536910F00F0F52D003F0010501F4DC
:1031D00090762E435FD0C20705D0CA0503D5E26BB7
:1031E00042F00102E263420705D5DA0703D0E26B41
:1031F00042F00202E263820705D5DA0703D0E26BF0
:1032000042F00402E263020707D501F020022A43DC
:1032100003D0E26B42F00802E263E26B002A33D093
:10322000800604D5880602D5204602F0BFF9206842
:103230004069E16BC0F38010090700D428B3204631
:1032400002F0A6F92068416949061AD5416921F0C2
:1032500040014161606BA0B12D494163606BFEF795
:1032600003FE002810D0606B416BBDE8704008473A
:10327000830610D58B060ED52046BDE8704002F0BF
:1032800095B92046FFF797FF70BD2046FFF793FFE3
:103290000020E06370BD03062BD50B0629D594F8FA
:1032A00039002128F6D1A068B0F5805F01D12069EE
:1032B000B0B1206A411C2162216800784860E08C2E
:1032C000401E0004000CE084E4D12068C16821F0B5
:1032D0008001C1602068C16841F04001C16070BDDB
:1032E000206A0088C0F308005060206A801C2062B9
:1032F000E5E74006F3D54806F1D5D168204621F030
:103300004001D160202184F8391000F0E2F970BD4D
:103310008155000870B5040004D094F839000025E8
:1033200010B106E0012070BD84F83850204600F04E
:1033300023F8242084F839002068C16821F4005162
:10334000C160204602F078F92068016921F49041BB
:1033500001612068416921F02A0141612068C1684A
:1033600041F40051C160E563202084F8390084F8FD
:103370003A00002070BD00002DE9F04786B000251E
:103380000646009501950295039500684C49DFF8C3
:1033900034914D4C02274FF0030888422FD1A06989
:1033A00040F48040A061A06900F480400490A069CE
:1033B00040F00800A061A069694600F00800049090
:1033C0004020CDE90007CDF80C804846FEF75CFEB2
:1033D0008020CDE90005694648460295FEF754FE77
:1033E0003A48416841F0E06141F004014160002247
:1033F00005212520FEF7F4FF2520FEF7E3FF3449E1
:10340000306888422AD1E06940F40030E061E06928
:1034100000F400300490A06940F00400A061A069AD
:10342000DFF8B0A000F0040004900420CDE900070C
:103430006946CDF80C805046FEF726FE0820CDE9FF
:103440000005694650460295FEF71EFE0022052142
:103450002620FEF7C5FF2620FEF7B4FF1E49306880
:1034600088422AD1E06940F48020E061E06900F4FC
:1034700080200490A06940F00800A061A0694C463B
:1034800000F0080004900815CDE900076946CDF862
:103490000C804846FEF7F8FD4FF40060CDE90005CA
:1034A000694620460295FEF7EFFD00220521272000
:1034B000FEF796FF2720FEF785FF06B0BDE8F087F0
:1034C00000380140000C01400010024000000140A3
:1034D00000440040000801400048004090F83A30A5
:1034E000202B22D1F9B1F2B190F83830012B1CD049
:1034F00081628285C2850021C163222280F83A2040
:1035000080F838100168CA6842F48072CA600168A5
:103510004A6942F001024A610068C16841F0200135
:10352000C1600020704701207047022070470000F2
:1035300070B50646006831490025314C88421BD1E0
:103540002078FE2811D02570A088802808D3A58077
:1035500080212C48FCF769FE2BA002F0ADFB04E0B3
:10356000284AE1781154401CA080254925480122B1
:10357000C91C4038FFF7B2FF264A306891159042C7
:103580001BD16078FE2812D06570E088FF2808D92A
:103590001C48E580C030FCF748FE1BA002F08CFB05
:1035A00005E0184AE178C0321154401CE08014490B
:1035B00014480122C91C80301BE0174A90421CD1DC
:1035C000A078FE2810D0A5702089FF2807D9258172
:1035D0001248FCF72AFE0CA002F06EFB04E00F4A32
:1035E000E1781154401C208105490C480122C91C76
:1035F0004038BDE87040FFF771BF70BD0038014032
:10360000F00000208C310020CAFDBEDDD2E7B3F609
:103610000000000000440040004800408C330020BF
:103620002DE9F843044690F839001F4616460D462A
:1036300020284CD1C5B1BEB194F83800012846D03D
:10364000012084F838004FF00008C4F83C802120A5
:1036500084F83900FEF716FEA6848146E684A06849
:10366000B0F5805F03D004E00120BDE8F883206955
:1036700028B12E465FF0000584F838800EE0002661
:10368000FAE78021204602F033F8A0B9AEB116F86F
:10369000010B21684860E08C401EE084E08C4B46C2
:1036A0004FF0000200970028EBD14FF04001204678
:1036B00002F01EF830B10320D7E735F8020BC0F353
:1036C0000800E6E7202084F839000020CDE702203A
:1036D000CBE7704700B58DB0142102A8FCF7A5FD1B
:1036E00007A8FEF7A3FA09980A21B0FBF1F147A059
:1036F00003F09AFB0898FCF707FF0022484BFCF701
:1037000094FE02460B4647A003F08EFB0798FCF799
:10371000FBFE0022484BFCF788FE02460B4647A002
:1037200003F082FB0B98FCF7EFFE0022484BFCF7FE
:103730007CFE02460B4647A003F076FB9DF829006D
:1037400000285FD0002149A003F06EFB9DF82A10ED
:103750004CA003F069FB9DF828104FA003F064FB18
:103760000998000E8DF808000998000C8DF80900E2
:103770000998000A8DF80A0009988DF80B0008983E
:10378000000E8DF80C000898000C8DF80D000898BC
:10379000000A8DF80E0008988DF80F000B98000EA7
:1037A0008DF810000B98000C8DF811000B98000A92
:1037B0008DF812000B988DF813009DF8290018B3AE
:1037C0005FF000008DF814009DF82A008DF81500B8
:1037D00010208DF816008DF81800022101208DF8B8
:1037E00017108DF8190002A91220CDE900012F4809
:1037F000012302682E4801882E48007801F058F90C
:103800000DB000BD01219EE70120DBE7C4BFC7B0BA
:10381000B5E7D1B9A3BA25642076200A00000000DC
:1038200000408F40C4BFC7B0B5E7C1F7A3BA252E8B
:103830003366206D41200A0000002440C4BFC7B099
:10384000B9A6C2CAA3BA252E31662077200A000085
:1038500000005940C4BFC7B0B5E7C1BFA3BA252E09
:103860003166206B7768200A00000000C4BFC7B033
:10387000BCCCB5E7C6F7D7B4CCACA3BA2564200A54
:1038800000000000C4BFC7B0B5F7B9E2D6B5A3BA0F
:103890002564200A00000000C4BFC7B0C9E8B1B861
:1038A000D7B4CCACA3BA2578200A0000840000204D
:1038B00082000020880000202DE9FC4704460078A3
:1038C0000E46AA285AD1B11E2046FDF70AFEA119BC
:1038D00031F8021C814251D1294F207A294D4FF0F5
:1038E000000907F10408D8B3FF2847D10120287048
:1038F000608808F1040A40BA68806068E17900BA1B
:1039000020F0FF000843686001222946504602F07B
:103910006BF801222946504602F0A0FD0222A91CA4
:10392000384602F061F80222A91C384602F096FDE2
:103930000422291D4746404602F056F80422291D5C
:10394000384602F08BFDFF23CDE900946988002002
:103950006A6801F02BF93146BDE8FC4701F0FCBD77
:1039600008490222891C384602F078FD05490422E4
:10397000091D404602F072FD0023E5E7BDE8FC8723
:1039800000FC00088000002010B50B4C0B48E178CB
:1039900002780B48914201D9012200E00022022165
:1039A000FEF76AFCE078401CC0B2E070642801D3E6
:1039B0000120E07010BD00008C000020044F0020AA
:1039C000000C01402DE9F04387B002A8FEF7B4F8DF
:1039D000BDF8080040F2E471884278D302A802F0F2
:1039E0005BFF80465248FEF7E9F9524D504C0026E5
:1039F00028719DF80D2021784FF001098A4204D1E9
:103A00009DF80E306778BB4202D28A4200D8F8B9DE
:103A1000484685F8049001F0D3FF4548FEF7CEF9FB
:103A2000BDF80800ADF810009DF80A008DF81200EE
:103A30009DF80B008DF8130020788DF81500607844
:103A40008DF816008DF8176004A802F025FFA86015
:103A5000A968394888455BD385F804906288A8EB4B
:103A60000101C2EB02134F46B1EB830F0AD80022CB
:103A70001021FEF701FC8DF8047020798DF800000C
:103A80002EA042E0B4F805301A44C2EB0213B1EBA9
:103A9000830F0AD800221021FEF7EEFB8DF8047088
:103AA000E0798DF800002AA02FE023891344C3EBAE
:103AB0000313B1EB830F0BD800221021FEF7DCFBC0
:103AC0008DF80470A07A8DF8000026A01DE02BE090
:103AD000B4F80B301A44C2EB0212B1EB820F0AD8D1
:103AE00000221021FEF7C8FB8DF80470607B8DF872
:103AF000000021A009E001221021FEF7BDFB8DF896
:103B000004608DF800602E7120A003F08DF907E0AD
:103B100001221021FEF7B0FB8DF804608DF80060E3
:103B2000694601A801F0FEFE07B0BDE8F083000081
:103B3000002D00208C000020000C01400D0ACAB1AD
:103B4000BFD8C4A3CABDBDD7B6CED2BB000000004B
:103B50000D0ACAB1BFD8C4A3CABDBDD7B6CEB6FE82
:103B6000000000000D0ACAB1BFD8C4A3CABDBDD7AA
:103B7000B6CEC8FD000000000D0ACAB1BFD8C4A36C
:103B8000CABDBDD7B6CECBC4000000000D0ACAB175
:103B9000BFD8C4A3CABDBDE1CAF80000002592B0D9
:103BA0002C46FDF7B7FCDFF84CA1DFF84CB1534FC2
:103BB00006464FF032094FF00A0811A90020FEF71F
:103BC0002BF926B110214E48FEF74EFB04E00122EE
:103BD00010214B48FEF750FB9DF84500012806D008
:103BE000012220214648FEF747FB40210AE0B4FBB2
:103BF000F8F108FB114040B9012240214048FEF78E
:103C00003BFB20213E48FEF72FFBB4FBF9F109FBFB
:103C1000114000B1CCB90CA8FDF78EFF9DF835001E
:103C20009DF837209DF836108DE807009DF8333059
:103C30009DF83220BDF8301032A003F0F5F803A84B
:103C4000FDF75EF903A801F047FE641CB4FBFAF12E
:103C50000AFB114010B9FDF75DFC0646002210A9D1
:103C6000DBF80C0004F0C8F8012823D1B870002557
:103C70002DA003F0D9F89DF84000012823D001229F
:103C800010212D48FEF7F8FA2CA000BF03F0CCF865
:103C90009DF841102BA003F0C7F803A8FDF730F9F9
:103CA00003A801F019FE0DF1410110A801F03AFE40
:103CB000FDF79CFDB87801280CD0B4FBF8F108FBA7
:103CC000114088B112E0002210211B48FEF7D4FAFF
:103CD00020A0DBE76D1CADB241F27070854205D3C8
:103CE0000020B870054601E0FFF76CFE642003F089
:103CF00013FD62E7002F0D008C000020044F002010
:103D0000000801400D0A253032642D253032642D23
:103D1000253032642020253032643A253032643A2E
:103D200025303264200000000D0A6C6564D1DDCAC4
:103D3000BEC4A3CABD000000000C01400D0A20B99A
:103D4000D8B5C6000D0A20C1C1B6C8B5F7D5FBA3CA
:103D5000BA2564000D0A20BFAAB5C60010B5134CE1
:103D6000606A400102D512A001F0A6FF606A00015E
:103D700002D516A001F0A0FF606AC00002D518A00D
:103D800001F09AFF606A800001D519A008E0606A1E
:103D9000400001D51DA003E0606A002802DA21A0DE
:103DA00001F08AFF25490120086010BD0010024083
:103DB0000D0AB7A2C9FAC0B4D7D4204E525354202A
:103DC000D2FDBDC5B5C4B8B4CEBB00000D0AB7A2C4
:103DD000C9FA20504F522F50445220B8B4CEBB00E5
:103DE0000D0AB7A2C9FAC8EDBCFEB8B4CEBB00003C
:103DF0000D0AB7A2C9FAC0B4D7D4B6C0C1A2BFB425
:103E0000C3C5B9B7B8B4CEBB000000000D0AB7A255
:103E1000C9FAB4B0BFDABFB4C3C5B9B7B8B4CEBB82
:103E2000000000000D0AB7A2C9FAB5CDB9A6BAC400
:103E3000B9DCC0EDB8B4CEBB00000000E0044242E3
:103E400070B506460C46881C02F0B8FF05460470A3
:103E5000200A687022463146A81CFCF7CDF90B48B1
:103E600000231A462946006A03F068FF012807D09C
:103E700007A001F021FF284602F0C2FE012070BD1C
:103E8000284602F0BDFE002070BD0000B8000020F2
:103E90000D0A78517565756553656E64206572729B
:103EA0006F722C20475052535F5245434549564547
:103EB0005F517565756500002DE9F04F85B00024F0
:103EC0005B480094019402940394816941F01001CD
:103ED0008161816901F010010491816941F0200143
:103EE0008161816901F020010491816941F004013F
:103EF0008161816901F004010491816941F0080147
:103F000081618069012200F0080004901021494875
:103F1000FEF7B2F94FF40047002239464548FEF754
:103F2000ABF94FF40059002249464248FEF7A4F984
:103F3000DFF804B1012240215846FEF79DF9012225
:103F400010215846FEF798F9012220215846FEF725
:103F500093F9002202213748FEF78EF94FF4807A58
:103F6000002251463348FEF787F94FF01008022629
:103F70000125CDF800800396CDE9015469462D480E
:103F8000FEF782F8012210212A48FEF775F9009702
:103F90000396CDE9015469462648FEF775F8CDF839
:103FA00000900396CDE9015469462248FEF76CF86B
:103FB0002803CDE9000469461E480294FEF764F820
:103FC00040200327CDE90005CDE902476946584660
:103FD000FEF75AF8CDF800800397CDE90154694601
:103FE0005846FEF751F82020CDE90005CDE90247FB
:103FF00069465846FEF748F803970096CDE9015404
:1040000069460C48FEF740F86802CDE900046946AD
:1040100008480294FEF738F8CDF800A00396CDE9E1
:10402000015469460348FEF72FF805B0BDE8F08F4C
:1040300000100240000C014000080140094810B582
:10404000074901600421416040F6FF718160FEF77D
:104050001FF9002803D0BDE81040FDF761BC10BD7A
:1040600000300040D038002030B589B000244348EB
:104070000594414903940160611EC0E90114FEF7F3
:1040800001FE08B1FDF74CFC07A8FDF7A9FD0121D1
:104090003A48FEF753FDA0F5A041513921D08DF8E3
:1040A000144001258DF815408DF816502A4605A9B3
:1040B0003248FEF7B3FE08B1FDF732FC8DF80C5024
:1040C0008DF80D508DF80E408DF80F40012203A998
:1040D0002A48FEF741FE002801D0FDF721FC09B077
:1040E00030BD002204A92548FEF75FFD002206A985
:1040F0002248FEF733FD9DF810009DF812209DF830
:1041000011108DE807009DF81B109DF81A309DF8DE
:1041100019201BA001F5FA6101F0CEFD022117481C
:10412000FEF70CFD8DF80F0003211448FEF706FD85
:104130008DF80D0004211148FEF700FD8DF80E00EA
:1041400005210E48FEF7FAFC8DF80C009DF81000D2
:104150009DF812209DF811108DE807009DF80F10B2
:104160009DF80E309DF80D2010A001F5FA6101F0C8
:10417000A3FD0022ABE700000028004074380020B7
:104180000D0AC9CFB5E7CAB1BCE4A3BA2530326481
:104190002D253032642D25303264202025303264C4
:1041A0003A253032643A2530326420000D0AB1B825
:1041B000B7DDCAB1BCE4A3BA253032642D25303254
:1041C000642D253032642020253032643A25303287
:1041D000643A25303264200010B588B000241C21D8
:1041E0006846FCF722F8FEF7C3FA41000B480A4A7A
:1041F00002600B4AB1FBF2F1491EC0E901146321D0
:10420000C0E9031480218161FEF77DFE002801D002
:10421000FDF786FB08B010BD000400408838002080
:1042200040420F000C4810B50A4901604FF4965106
:104230004160002181600C22C160C0E904128161EB
:10424000C161FFF767F8002803D0BDE81040FDF713
:1042500067BB10BD003801404C3100200C4810B540
:104260000A4901604FF4E1314160002181600C2274
:10427000C160C0E904128161C161FFF74BF80028F9
:1042800003D0BDE81040FDF74BBB10BD004400401B
:104290000C3200200C4810B50A4901604FF4E1319E
:1042A0004160002181600C22C160C0E9041281617B
:1042B000C161FFF72FF8002803D0BDE81040FDF7DB
:1042C0002FBB10BD004800404C330020FEE770B506
:1042D0000546002486B00E46012080F3108800F0C9
:1042E0001FF82846FDF79EFC0020009002953046FE
:1042F000FDF798FC06462846FDF794FC301A401C52
:10430000039004A96846FDF70DFE00B10124FDF7F6
:104310005DFE002080F3108806B0204670BD0000CE
:1043200010B5FDF79DFE02493520C860002010BD84
:10433000002002402DE9F05F174600258B4680469D
:104340002E46044600EB070A3AE000BFAAEB040041
:10435000012816D002281BD0032821D0A4EB080086
:104360001BF800205844D0F8010042EA00208146A2
:104370000246002321460220FDF732FEC0B101268D
:1043800020E0A4EB08011BF8010060F0FF00EEE75D
:10439000A4EB080101EB0B000088A0F58030E6E7F4
:1043A000A4EB080101EB0B00006840F07F40DEE762
:1043B00058F80510494501D0022603E0241D2D1DA3
:1043C000BD42C3D33046BDE8F09F00002DE9F8435D
:1043D000504E00224E49306A03F00EFD01287DD177
:1043E0004B4C258815B1B5F5807F05D92946BDE828
:1043F000F84349A002F018BD29464CA002F014FD74
:104400002946A01C01F0A8F8802002F0E9FF8146AF
:1044100001460022F06903F0EFFC4FF6FF77012818
:104420002ED00E2346A22946A01C00F0DDFFB84680
:104430000027404542D000970D2602232C22294612
:104440002746A01CFDF764FB0446281B401E81B2D2
:104450003D19E81C01233246FDF75AFBC6B2E81CA1
:104460006A46314600F096FF0098394A81B2A01999
:104470003844401DFDF7A0F9354800F0C7F940E089
:104480004846FBF7E9FEC3B24A462946A01C00F0A5
:10449000ABFFB8420DD035802A46A11C2C48FBF753
:1044A000ABFE00231A461946D6F8180003F096FB17
:1044B00027E000231A464946F069F7E7102325A2B2
:1044C0002946A01C00F090FF404509D1102326A2E8
:1044D0002946A01C00F088FF404500E016E00AD005
:1044E00069460020FDF798FC8DF8017069460120AF
:1044F000FDF792FC05E035802A46A11C1448FBF725
:104500007BFE4846BDE8F84303F09CB8BDE8F8835D
:10451000362E0020B80000200D0A204E42B3A4B66B
:10452000C8B4EDCEF33A2564000000000D0A4154F2
:10453000BDD3CAD52C206C656E3A2025640D0A00C7
:104540002B51495552433A2022726563762200006E
:10455000363000202B51495552433A2022636C6F6C
:1045600073656422000000002B4350494E3A204EF0
:104570004F54205245414459000000002DE9F047B6
:104580001D4C8846814600261D469246711E2069B4
:1045900003F0CEFC802002F023FF07460021A06933
:1045A00003F0C6FC00223946E06903F025FC3846DA
:1045B00003F048F84146484600F0D8FF00231A4669
:1045C0005146E06903F00AFB012802D00BA002F07B
:1045D0002BFC642005FB00F1A06903F0A9FC012875
:1045E00000D1012600231A461946206903F0F6FA85
:1045F0003046BDE8F0870000B80000200D0A7820A2
:10460000517565756553656E64206572726F722CA5
:10461000204E425F434D445F517565756500000053
:104620001CB500243B4D264627468DF804403AA091
:1046300002F0FAFB00F094F8FCF7BCFA0028F6DB75
:1046400034490120091DAA68FCF728FA002809DA74
:104650008DF801706888401C81B2698031A002F039
:10466000E3FBE4E701208DF8010049E0FDF7E4F900
:1046700069460020FDF7D0FB9DF8010040B102F033
:10468000E7FAE968421A2D48824205D221B10BE0CF
:104690000120FCF7D1F9D3E702F0DAFAE860FDF780
:1046A000EBFA002800DAEF604FF47A722449686A66
:1046B00003F0A2FB012817D002F0CAFA801B43F6D0
:1046C0009821884201D2002ED0D102F0C1FA0646CC
:1046D0001CA002F0A9FB01210DF10400FCF76AFB0C
:1046E00040B290B10024C1E702F0B2FA0646144885
:1046F000407A0C30C1B21248F0E700248DF8017006
:1047000069460120FDF788FBB0E7641CE4B2082C81
:10471000ACD3F2E7B80000200D0A204E42B8B4CE68
:10472000BB0000000D0AB5DA2564D6D8D0C2C1ACF2
:10473000BDD3B7FECEF1C6F7000000000014730F22
:10474000362F0020B7A2CBCD2074637020B1A3BB5D
:10475000EECAFDBEDDB0FC0D0A000000704700008F
:1047600070B50122134CD50329462046FDF784FD80
:10477000642002F0D1FF002229462046FDF77CFD8F
:10478000642002F0C9FF0122550329462046FDF7A7
:1047900073FD4FF47A7002F0BFFF002229462046D5
:1047A000FDF76AFDBDE87040032303A2042103A0C6
:1047B000FFF7E4BE000C01404F4B000041540D0ACE
:1047C0000000000070B501220F4CD5032946204699
:1047D000FDF752FD642002F09FFF0022294620468B
:1047E000FDF74AFD0122550329462046FDF744FD09
:1047F0004FF47A70FDF784FB29462046BDE87040EF
:104800000022FDF739BD0000000C01402DE9F04306
:10481000044600788BB0AA2878D191A002F004FB5E
:10482000617A20460C3102F021FB6088E27941BABE
:1048300060688F4D00BA20F0FF0010432A88914233
:1048400064D18C4E3168884260D1607A0C30C7B236
:10485000B91E2046FCF745FEE11931F8021C8842DA
:1048600054D1217A844F642004F10A08A1290FD081
:104870004FF00009A2294CD0A3297DD0A4297CD0D7
:10488000A5297BD0AF2941D1CDE90094BF239FE07A
:10489000A27ADFF8E89104F10B01012A01D07AB184
:1048A0001EE0E27A642A00D9E072404601F03AF84C
:1048B000002210214846FDF7DFFCE17A70A00DE0F0
:1048C000E27A642A00D9E072404601F02BF8012216
:1048D00010214846FDF7D0FCE17A6EA002F0A4FA60
:1048E0000421CDE90018B12329883878326800F016
:1048F000DFF8A07A8DF80800E07A8DF809006A48A0
:1049000000231A4602A9006803F068F90BB0BDE85D
:10491000F083A17A8DF80810E17A8DF80910A18949
:1049200049BAADF80A10A17B642900D9A073A17B14
:104930008DF80C10B4F80F1049BAADF80D10617C69
:10494000642900D96074617C8DF80F10618A49BABE
:10495000ADF81010217D642900D92075217D8DF8D6
:104960001210B4F8151049BAADF81310E17D64299E
:1049700000D9E075E07D02E00FE02FE06AE08DF8FD
:10498000150002A800F0ECFF0E2202A9474801F032
:104990002BF8CDE90098B2231AE002A8FDF70EFA31
:1049A000BDF80A0002A940BAADF80A00BDF80D0032
:1049B00040BAADF80D00BDF8100040BAADF81000D7
:1049C000BDF8130040BAADF813000E20B3233EE04B
:1049D00029883878326800F06BF897E7CDF80890AE
:1049E000CDF80C9005A8CDF81090FDF71FF90798A9
:1049F00002A9000E8DF808000798000C8DF8090038
:104A00000798000A8DF80A0007988DF80B000698A1
:104A1000000E8DF80C000698000C8DF80D0006981D
:104A2000000A8DF80E0006988DF80F000998000E08
:104A30008DF810000998000C8DF811000998000AF3
:104A40008DF8120009988DF813000C20B423CDE9DD
:104A50000001BDE70BB0BDE8F043FEF73BBE000030
:104A60000D0A204E4220726563657665723A000039
:104A7000820000208400002088000020000C0140FB
:104A80000D0A20BFAAB5C620C1C1B6C8A3BA256405
:104A9000000000000D0A20B9D8B5C620C1C1B6C8B3
:104AA000A3BA2564000000009800002010FC000854
:104AB0007CB5401CDDE9064500F03F00CDE900452E
:104AC00000F002F87CBD00007CB5DDE90650CDE9C0
:104AD00000500E48007800F069F804460CA002F07F
:104AE000A3F90C35A9B2204602F0C0F90B48002307
:104AF0001A462146006803F071F8012804D0BDE889
:104B00007C4007A002F090B97CBD00008800002026
:104B10000D0A204E422073656E643A00DC000020CE
:104B20000D0A7820517565756553656E6420657250
:104B3000726F722C204E425F53454E445F51756533
:104B40007565000008B512A001F0B6F8164C69466C
:104B50000020FDF761F9FFF739FC9DF801000128FD
:104B600011D102F075F86268216802EB4203401A25
:104B7000C3EBC212B0EBC20F00D221B902F068F849
:104B80002060FEF7A7FD642002F0C6FDDFE700000D
:104B90000D0A537461727420506C6174666F726D8B
:104BA0005F5461736B000000B00000202DE9F041FC
:104BB00014464ABA21BADDE90656124CAA2700F07B
:104BC0003F0027706070A270100AE0702171080A1F
:104BD0006071080CA071080EE071237265722A469C
:104BE000314604F10A00FBF707FB264605F10A01EE
:104BF0003046FCF776FC61198872000AC8723046AC
:104C0000BDE8F081362D002010B5012002F072FFC2
:104C10004B490028086066D0012002F06BFF49492B
:104C20000028086063D0012002F064FF4649002894
:104C3000086060D002210022084602F066FF434966
:104C4000002808605BD003220021012002F05DFFF4
:104C50003F490028086056D0002103F069F903227B
:104C60000021012002F051FF3A49002808604ED08F
:104C7000002103F05DF9012002F03CFF36490028D5
:104C8000086048D0012002F035FF34490028086050
:104C900045D000228021032002F037FF3049002850
:104CA000086040D04FF4817400222146032002F0B6
:104CB0002CFF2C490028086039D00022214603200F
:104CC00002F023FF28490028086034D00022802108
:104CD000032002F01AFF2549002808602FD124A0E4
:104CE00000F0EAFFFEE72AA000F0E6FFFEE72EA0B4
:104CF00000F0E2FFFEE733A000F0DEFFFEE739A0A0
:104D000000F0DAFFFEE73EA002F08EF8FEE743A0D7
:104D100002F08AF8FEE748A002F086F8FEE74CA011
:104D200002F082F8FEE751A000F0C6FFFEE755A0B2
:104D300000F0C2FFFEE75AA000F0BEFFFEE710BD84
:104D4000FC0000209C000020A00000209800002013
:104D5000D0000020E8000020C8000020CC00002087
:104D6000D4000020D8000020DC000020EC0000204F
:104D70000D0A20424C3635323347585F5245434581
:104D80004956455F5175657565206572726F720091
:104D90000D0A205072696E744D75746578206572C5
:104DA000726F720D0A0000000D0A2054696D654390
:104DB0006F6E74726F6C4D75746578206572726F6A
:104DC000720D0A000D0A20456C65637472696344B4
:104DD0006174614D75746578206572726F720D0A29
:104DE000000000000D0A204C656453686F775F5126
:104DF00075657565206572726F720D0A000000009E
:104E00000D0A204E425F434D445F53656D617068EB
:104E10006F7265206572726F720000000D0A204E7D
:104E2000425F41434B5F53656D6170686F726520EF
:104E30006572726F720000000D0A204E425F434D92
:104E4000445F4D75746578206572726F7200000062
:104E50000D0A204E425F5354415455535F4D7574B3
:104E60006578206572726F72000000000D0A204E96
:104E7000425F434D445F5175657565206572726F81
:104E8000720000000D0A204E425F524543454956CC
:104E9000455F5175657565206572726F720000001F
:104EA0000D0A204E425F53454E445F51756575654E
:104EB000206572726F720000010901EB810100F040
:104EC0000F0000EB4100C0B27047002102E00A3839
:104ED000C0B2491C0A28FAD2090740EA116070479B
:104EE0002DE9F04104460025C07B627BA37B42E0B4
:104EF000012A16D0032A14D0052A12D0072A10D06E
:104F0000082A0ED00A2A0CD00C2A0AD0042A10D063
:104F1000062A0ED0092A0CD00B2A0AD0022A0DD05C
:104F200028E01F2B0CD30C2A05D101221346401C6C
:104F300020E01E2B04D30123521C1BE01C2B02D2A9
:104F400003F1010316E011D183B29E0710D164264C
:104F5000B3FBF6F706FB173636B94FF4C876B3FB4A
:104F6000F6F706FB17331BB91D2303E01D2B01D1F8
:104F7000032201236D1C8D42BAD3D1B2E073617359
:104F8000DAB2A27300F050F82073BDE8F08170B57A
:104F90000446FDF777F905464FF47A7606E0FDF70B
:104FA00071F9401BB04201D9032070BD20684068F0
:104FB0008006F4D52068416841F01001416000206E
:104FC00070BD000070B504460068416821F0100112
:104FD0004160FDF757F905464FF47A7607E000BFC8
:104FE000FDF750F9401BB04201D9032070BD206885
:104FF00040688006F4D5002070BD0168086A496ADF
:1050000089B241EA00407047006881698AB2C1698B
:105010008BB2816989B28A4203D0C06961F31F40B3
:10502000704743EA02407047F0B56424C1EBC10306
:105030000927A500072603EB01130329B3FBF7F1AA
:1050400000F5FA60114401440AD2401EB0FBF4F2AC
:1050500001EB9001B0FBF5F0891A0844001D08E04F
:10506000B0FBF4F201EB9001B0FBF5F0891A0844B3
:10507000801CB0FBF6F106FB1100C0B2F0BD70B5AC
:105080000D4606460024FFF782FF48B93168280C18
:1050900008623168A8B248623046FFF793FF00B15A
:1050A0000124204670BD70B50D4606460024FFF76A
:1050B0006EFF48B93168280C88613168A8B2C861B0
:1050C0003046FFF77FFF00B10124204670BD00008D
:1050D0002DE9F04F8BB001225E495F4801F0BEF927
:1050E0005C4E00243078012858D0347041F60320FB
:1050F00070807460DFF86491DFF86481DFF864A188
:10510000D9F80010584F594D4FF0010B414555D17A
:1051100057A001F089FE397839702A782A709AF8F8
:1051200000308AF80030FF2A01D0642902D985F8BE
:1051300000B03C702A7810215048FDF79DF828787F
:10514000D8B300213A784EA001F06EFE42480E22FC
:1051500007A9083001F082F99DF81C106420182975
:1051600003D29DF81D103C2935D312218DF81C1057
:105170008DF81D404FF4B4718DF82000ADF81E106D
:10518000ADF821103220ADF824408DF823008DF8C1
:105190002640ADF827408DF8294034E02D492E48AF
:1051A0000222891C083801F059F92A492A480422A8
:1051B000091D001F01F052F99CE70AE037A001F039
:1051C00033FEC9F8008085F800B03C708AF80040D2
:1051D000B0E70121B6E79DF82010642901D98DF8C8
:1051E00020009DF82310642901D98DF823009DF833
:1051F0002610642901D98DF826009DF8291064290C
:1052000001D98DF8290007A800F0AAFB718827A012
:10521000726801F009FEBDF8240003AC9DF8293046
:10522000BDF827209DF8261084E80F009DF8200087
:105230009DF82320BDF821108DE80700BDF81E3031
:105240009DF81D209DF81C101F4801F0EDFD0BB0CE
:10525000BDE8F08F8000002008FC0008004F00200F
:10526000CDAB3412064F0020044F0020054F002024
:105270000D0AC8EDB8B4CEBB21212100000C0140BD
:105280000D0A4C65645374617475733A25642C4C33
:10529000656450776D3A2564000000000D0AC9CF9F
:1052A000B5E7B8B4CEBB2121210000000D0AB2FA47
:1052B000C6B7C0E0D0CD3A30782532582CC9E8B115
:1052C000B849443A25640000348600087CB5054698
:1052D00002F084F9164C28882080AA78A270E97818
:1052E000E1706B796371AB79A371EB79E371A0F530
:1052F000FA608DF803008DF801208DF8021001206E
:105300008DF80000002269460A48FDF725FD607906
:105310008DF80400A0798DF80500E0798DF806007D
:10532000002201A90348FDF779FD02F077F97CBD61
:10533000380100207438002010B5FFF7C9FE12496B
:105340000820124C08600120207002F047F92078F4
:10535000012801D038B10EE0FCF720F9FCF7D2F9B2
:10536000FCF74CF905E0FFF72DFAFCF7CBF9FCF759
:1053700015F9FCF763F90648406802F0F3F9BDE857
:10538000104002F04BB90000840000208000002093
:1053900000000020F0B50446002318466FF02F06E9
:1053A0000EE0255CA5F130070A2F02D300280AD0B1
:1053B00008E003EB830306EB4303401C2B44C0B21D
:1053C0008842EED31360F0BD30B5002307E0C45C23
:1053D000CD5CAC4201D0002030BD5B1C9BB293423F
:1053E000F5D3012030BD00002DE9F0431E46914663
:1053F00080464FF6FF778B4212D800248D1B6D1C20
:105400000CE000BF08EB040032464946FFF7DCFF22
:1054100010B12046BDE8F083641CA4B2A542F1DCC3
:105420003846F7E710B5502080F31188BFF34F8F4F
:10543000BFF36F8F02F0DEFE18B104494FF08050C9
:105440000860002080F3118810BD000004ED00E02A
:1054500070B594B028216846FAF7E7FE14210AA82F
:10546000FAF7E3FE00250F950D2000904FF48030F1
:1054700001AA1095119512954100012482E81300AC
:10548000049402260694CDE907604FF46010099059
:105490006846FDF7C3F90F20CDE90A06A002CDE961
:1054A0000C5002210AA80E95FDF7ACF82002CDE9B8
:1054B0000F400FA8FDF730F814B070BD7047000022
:1054C0000148FDF798BD0000A40300200148FDF746
:1054D00092BD000088380020F0B50268164B174CCA
:1054E000174D4FF08047984205D0B84203D0A042F4
:1054F00001D0A84203D122F070064A683243984294
:1055000005D0B84203D0A04201D0A84203D122F472
:105510004074CA6822434C6922F080022243026030
:105520008A68C2620A688262984201D1096901638D
:1055300001214161F0BD0000002C01400004004049
:10554000000800400A4601464FF47A730148FEF70E
:1055500067B800004C3100200A4601464FF47A73C8
:105560000148FEF75DB800000C3200200A460146F3
:105570004FF47A730148FEF753B800004C33002013
:1055800010B5406A0021C185C184FDF714FE10BD2D
:105590000168CA6822F49072CA6001684A6922F000
:1055A00001024A61202180F83A10704710B590F846
:1055B0003A10222901D0022010BD82684FF4805396
:1055C0009A4201D1016921B1816A9A421BD04AB144
:1055D0000AE00268816A5268C2F308020A80816A9E
:1055E000891C08E0026972B10268526802F07F0209
:1055F0000A70816A491C8162C18D491E0904090C27
:10560000C18503D016E002685268F1E70168CA68F4
:1056100022F02002CA600168CA6822F48072CA605F
:1056200001684A6922F001024A61202180F83A109B
:10563000FDF77EFF002010BD70B5044600680169CB
:10564000E26821F44051114301612169A0680843D7
:10565000616908432168CA6841F20C639A430243B6
:10566000CA6020684169A26921F440711143416117
:105670001E492068884202D1FDF78AF801E0FDF753
:1056800077F800EBC00101EB001260686421800034
:10569000B2FBF0F3B3FBF1F36FF018067343B2FB08
:1056A000F0F5B2FBF0F605EB8305322303EB0515AD
:1056B000B5FBF1F5B6FBF1F605F0F00505EB0615C7
:1056C000B2FBF0F6B2FBF0F0B0FBF1F06FF01802B5
:1056D000504306EB800003EB0010B0FBF1F02168B3
:1056E00000F00F002844886070BD000000380140C1
:1056F0002DE9F041984617460E460446069D1DE0EA
:10570000681C1BD02DB1FCF7BDFDA0EB0800A84222
:1057100014D92068C16821F4D071C1602068416942
:1057200021F001014161202084F8390084F83A0019
:10573000002084F838000320BDE8F081206800686C
:1057400036EA000004D00020B842D9D00020F3E7A8
:105750000120F9E70148FDF72FBD00004C31002082
:105760000148FDF729BD00000C3200200148FDF77B
:1057700023BD00004C33002008B5042900D90421C2
:105780000A4601466846FAF737FD064800231A46DE
:105790006946006802F022FA012802D002A000F057
:1057A0008BFA08BDEC0000200D0A7851756575650F
:1057B00053656E64206572726F722C20424C3635D0
:1057C000323347585F524543454956455F517565E9
:1057D00075650000FEF770B870B51448FE210278B8
:1057E000F02A05D2521CD2B202700A2A00D30170EC
:1057F0000F480278F02A05D2521CD2B202700A2A4F
:1058000000D301700B4C2078F0280ED2401CC0B29F
:1058100020700A2809D3084D217008482988FEF70E
:105820000FFB00202880F020207070BDF0000020C9
:10583000F1000020F2000020F80000208C3300204E
:10584000DFF860A0184DDFF864B0194EDFF86490FF
:10585000194F4FF00008F0242878FE2808D1BAF834
:10586000001021B11548FFF787FFAAF800802C70BF
:105870003078FE2808D1BBF8001021B11048FFF79E
:10588000A9FFABF8008034703878FE2805D1B9F84C
:10589000001009B1A9F800803C70642001F03CFFC1
:1058A000DAE70000F4000020F0000020F6000020FD
:1058B000F1000020F8000020F20000208C310020D0
:1058C0004C320020FEE7000002494AF6AA20086098
:1058D000704700000030004070B50F4D04464FF097
:1058E000FF31686902F024FB0C49A068002388603E
:1058F0000B4842784A7300788873206808602069F2
:10590000086160684860207B08736869BDE8704082
:105910001A46194602F062B98C0000203831002086
:10592000044F002070B50C46054601F057FE0A4AA8
:105930002978517020781070084819B100215170F1
:105940000A4602E0012151700A461021FCF794FC3E
:10595000BDE8704001F062BE044F0020000C014021
:1059600070B5154D04464FF0FF31286902F0E0FA9A
:105970001248217801706178417021790171618844
:105980004180E179C171B4F80510A0F80510A17A41
:10599000817221890181617B4173B4F80B10A0F8F9
:1059A0000B100020A8700346024601462869BDE896
:1059B000704002F013B900008C0000200E2D002072
:1059C00070B5084C05464FF0FF31206902F0B0FA7F
:1059D000A5702069BDE8704000231A46194602F000
:1059E000FDB800008C0000202DE9F04716468046E7
:1059F000871923488946874218D8A6B1404600F047
:105A00000BFD041E10D0522001F0D8F905000DD076
:105A1000DFF870A001465222504600F01FFD1849E1
:105A2000002049420DE00020BDE8F0870120FBE79F
:105A300008EB00022A4419F800300A44401C82F89E
:105A40000034B042F4D3022C03D139464046FEF76D
:105A50003EFC012080F31088FEF762FC022C0BD084
:105A6000324649464FEA0800FEF764FCFCF7AEFAFE
:105A7000002080F31088D6E7522229465046F3E7EB
:105A80000000010800FC00080FB4054B10B503A985
:105A9000044A029800F024F910BC5DF814FB0000E1
:105AA000F16B0008400100200FB4084B10B504A9A9
:105AB00002AA039800F014F9044602A9002000F09D
:105AC000A6FC204610BC5DF814FB00000F64000823
:105AD00037B514460846064B6A46214600F000F9E1
