:020000040800F2
:10000000083E0020A9010008ED450008CD010008C8
:10001000BD41000861140008DD5600080000000022
:1000200000000000000000000000000001010008C6
:100030006917000800000000450100083D52000853
:10004000C3010008C3010008C3010008C301000880
:10005000C3010008C3010008C3010008C301000870
:10006000C3010008C3010008C3010008C301000860
:10007000C3010008C3010008C3010008C301000850
:10008000C3010008C3010008C3010008C301000840
:10009000C3010008C3010008C3010008C301000830
:1000A000C3010008C3010008C3010008C301000820
:1000B000D9520008E5520008C3010008C301000836
:1000C000C3010008C3010008C3010008C301000800
:1000D000C30100086D5500087955000885550008D2
:1000E000C3010008C3010008C3010008DFF80CD0F9
:1000F00000F00CFC00480047E96A0008083E0020B8
:10010000224B19680868B0E8F00F80F30988BFF344
:100110006F8F4FF0000080F311884EF00D0E704786
:100120000000000006480068006880F3088862B696
:1001300061B6BFF34F8FBFF36F8F00DF00BF00BF0B
:1001400008ED00E0EFF30980BFF36F8F0F4B1A68E3
:1001500020E9F00F106008B54FF0500080F31188CF
:10016000BFF34F8FBFF36F8F07F010FB4FF000000E
:1001700080F31188BDE8084019680868B0E8F00FFE
:1001800080F30988BFF36F8F704700BF180000200D
:10019000EFF3058070470000EFF308807047EFF33E
:1001A0000980704768467047064880470648004700
:1001B000FEE7FEE7FEE7FEE7FEE7FEE7FEE7FEE717
:1001C000FEE7FEE7D5520008ED00000870466946DC
:1001D00006F0C8F8FFF7FEFF202A04DB203A21FAD8
:1001E00002F00021704721FA02F3D040C2F1200250
:1001F000914008431946704740EA01039B0703D02A
:1002000009E008C9121F08C0042AFAD203E011F855
:10021000013B00F8013B521EF9D27047D2B201E017
:1002200000F8012B491EFBD270470022F6E710B5FB
:1002300013460A4604461946FFF7F0FF204610BD54
:1002400010B5044604E00B7800F8013B03B1491CEB
:10025000521EF8D2204610BD421C10F8011B002986
:10026000FBD1801A704780EA010210B502F000430A
:10027000400022D04A001FD0010E01EB1261C0F3F2
:100280005600C2F3560240F4000042F40002A0FB04
:10029000022000047F39140400D0401C50EA1240B0
:1002A00001D44000491EC2B20C0604EBD010401C21
:1002B0004008802A02D003E0002010BD20F0010099
:1002C000002900DA0020184310BD30B480EA010292
:1002D00002F0004530F0004221F0004013D090B110
:1002E000C30DD40DC2F31601C0F31600E41A41F495
:1002F000000140F400027D34914201D3641C00E00F
:100300004900002C02DA30BC002070474FF4000096
:100310000023914201D3891A034340084FEA410167
:10032000F7D151B1914202D14FF0004105E002D224
:100330004FF0010101E06FF0010103EBC4502844CC
:1003400030BC00F078B92DE9FE4F81EA030404F0D7
:10035000004421F0004100944FF0000B23F00043D3
:1003600050EA01045ED052EA03045BD0C3F30A549E
:10037000C1F30A552C44A4F2F3340194A0FB0254B7
:10038000C1F3130141F48011C3F3130343F4801349
:1003900001FB024400FB034E840A970A44EA81549D
:1003A00047EA8357A4FB076802958D0A05FB07857A
:1003B0004FEA932C04FB0C542705029D4FEA065884
:1003C00047EA1637B5EB08056EEB070C870E920E61
:1003D00047EA811742EA8312A7FB0201B6EB0B0141
:1003E00064EB00042B0D43EA0C335E1844EB1C5005
:1003F000DA465146E7FB0201C5F313044FEA0B331B
:1004000043EA14534FEA0432019C43EA0603A4F181
:100410000C040294009CCDE900B400F052F903B042
:10042000BDE8F08F00200146F9E72DE9F04D81EAA3
:10043000030404F0004B21F0004514464FF0000A7D
:1004400023F0004150EA050220D054EA01021DD0F9
:10045000C5F30A570246C5F31303C1F31300C1F3F2
:100460000A5640F4801543F48013A7EB0608101BCE
:10047000D64608F2FD3873EB050002D308F10108F7
:1004800001E092185B41B8F1000F03DA0020014649
:10049000BDE8F08D00204FF48011064684460EE042
:1004A000171B73EB050705D3121B63EB050306430C
:1004B0004CEA010C49084FEA300092185B4150EABF
:1004C0000107EDD152EA030012D082EA040083EA68
:1004D0000501084305D0101BAB4106D201220023C1
:1004E00006E000224FF0004302E06FF001025310DB
:1004F0001AEB06004CEB085110EB0A0041EB0B0124
:10050000BDE8F04D00F0CEB80EB540F23341029197
:100510000021CDE900110A460B4600F0D2F803B0E5
:1005200000BD20F00040C10DC0F3160040F40000F3
:100530007F2901DA00207047962903DCC1F196017A
:10054000C840704796398840704700F0004230F04C
:1005500000400AD0C10D01F56071C0F3160042EAF7
:100560000151C208400711437047002001467047FF
:1005700001F0004330B421F0004150EA010206D0FE
:100580000A0DA2F56072C1F31301002A02DC30BC2F
:1005900000207047440F44EAC104C100E01830BC99
:1005A00000EBC25000F047B830B50B4601460020C2
:1005B0002022012409E021FA02F59D4205D303FA25
:1005C00002F5491B04FA02F52844151EA2F10102A6
:1005D000F1DC30BD2DE9F05F0546002092469B46D8
:1005E00088460646814640241BE028464146474649
:1005F0002246FFF7F1FD53465A46C01A914110D3E7
:1006000011461846224600F093F92D1A67EB0108AF
:100610004F4622460120002100F08AF917EB00091D
:100620004E41201EA4F10104DFDC484631462A4633
:100630004346BDE8F09F0029A8BF7047401C490011
:1006400008BF20F00100704710B4B0FA80FC00FA37
:100650000CF050EA010404BF10BC704749B1CCF162
:10066000200421FA04F411FA0CF118BF01212143EE
:100670000843A3EB0C01CB1D4FEA00614FEA1020A9
:1006800042BF002010BC704700EBC350104400294B
:10069000A4BF10BC7047401C490008BF20F00100F7
:1006A00010BC704710B5141E73F1000408DA401C2A
:1006B00041F1000192185B411A4301D120F0010081
:1006C00010BD2DE9F04D92469B4611B1B1FA81F271
:1006D00002E0B0FA80F22032904600F029F9044698
:1006E0000F4640EA0A0041EA0B0153465A460843C6
:1006F00013D0114653EA010019D0C8F14002504608
:10070000FFF76AFD05460E4650465946424600F040
:100710000FF9084305D0012004E020463946BDE822
:10072000F08D0020054346EAE0762C4337430A98D3
:100730006305E40AA0EB08000022FD0A44EA4754DE
:100740000A3002D500200146E9E701051019694188
:10075000DDE9084500196941BDE8F04DA2E72DE942
:10076000FE4F804681EA0300C00F0C46009021F046
:10077000004123F00045B8EB0200A94105D24046F4
:10078000214690461C460B46024623F0004010438B
:1007900047D0270DC7F30A00C3F30A510290401A4D
:1007A000019040286BDAC3F3130040F4801B0098DB
:1007B000924620B10023D2EB030A63EB0B0B0198A6
:1007C0005946C0F14002504600F0B2F806460D46C8
:1007D00050465946019A00F0BAF810EB0800614102
:1007E000002487EA115284EAE7731A4340D0009A42
:1007F00062B3019A012A4FEA075215DC001B61EB34
:1008000002014FF0004202EA0752CDE90042001C0B
:1008100041F5801132462B46FFF753FF03B0BDE888
:10082000F08F40462146F9E7001B61EB0201001CF6
:1008300041F5801300185B412018A2F5001747EB23
:10084000030140EAD570B6196D4111E06D084FEA19
:10085000360645EAC0754FEA0752001B61EB0201FC
:10086000001C41F5801149084FEA30000019514140
:1008700032462B4603B0BDE8F04FFFF713BF009898
:10088000012240000023D0EB020263EBE0730098EA
:1008900021464FEAE074B8EB000061EB0401E9E7A0
:1008A00083F000435BE781F0004158E7C1F30A524F
:1008B000C1F3130140F2FF3341F480119A4202DA8E
:1008C00000200146704740F233439A42A2F233427D
:1008D00002DC5242FFF780BC00F02AB830B5041E9B
:1008E00071F1000404DB4FF00044404264EB01016D
:1008F000141E73F1000405DB1C464FF00043524206
:1009000063EB0403994208BF904230BD064C074D8B
:1009100006E0E06840F0010394E8070098471034CF
:10092000AC42F6D3FFF7E6FB148D0008348D0008C7
:10093000202A04DB203A00FA02F10020704791409F
:10094000C2F1200320FA03F3194390407047202A94
:1009500006DBCB17203A41FA02F043EAE07306E0E7
:1009600041FA02F3D040C2F12002914008431946F7
:10097000704770B58C1810F8015B15F0070301D1B2
:1009800010F8013B2A1106D110F8012B03E010F8F2
:10099000016B01F8016B5B1EF9D12B0705D4002315
:1009A000521E0DD401F8013BFAE710F8013BCB1AB7
:1009B000921C03E013F8015B01F8015B521EF9D5AC
:1009C000A142D8D3002070BDFF21A0F13002092A36
:1009D00001D8D1B20BE0A0F14102192A01D8373871
:1009E00004E0A0F16102192A01D85738C1B20846C3
:1009F0007047000010B503230CA204210CA003F0E3
:100A000023FD032309A2042109A003F01DFD0323F4
:100A100006A2042106A003F017FD0323BDE8104041
:100A200002A2042102A003F00FBD00004F4B000002
:100A300041540D0A0000000010B58EB00446342168
:100A40006846FFF7F2FB224608A1684604F020FF43
:100A5000C4B2032309A22146684603F0F5FC00282E
:100A6000F7D009A006F0D0F80EB010BD41542B51BC
:100A700049434C4F53453D25640D0A00434C4F53A9
:100A800045204F4B000000000D0AB7FECEF1C6F71F
:100A9000B6CFBFAAC1ACBDD300000000F0B593B083
:100AA000064600200D4612901746342105A8FFF790
:100AB000BCFB0024012E02D0022E02D004E01CA0B8
:100AC00000E01CA000681290E878A9786A78CDE967
:100AD0000210019204972878009012AB324616A1BA
:100AE00005A804F0D5FEC1B203231FA205A803F098
:100AF000ABFCB8B9204D4FF6FF764FF47A77641C03
:100B0000E4B20A2C02D3002013B0F0BD0C2316A2CD
:100B100029881A4804F074FBB04203D1384606F025
:100B2000EBFCECE712A916A006F06EF80120EBE74B
:100B3000544350005544500041542B51494F5045A7
:100B40004E3D25642C302C222573222C2225642E28
:100B500025642E25642E2564222C25642C31323305
:100B6000342C310D0A0000002B51494F50454E3AAC
:100B700020302C3000000000B40000202E2F002078
:100B80000D0A2573B7FECEF1C6F7C1ACBDD3B3C90C
:100B9000B9A6000008B5032330A2042130A003F059
:100BA00053FC0028F7D003232CA206212EA003F02B
:100BB0004BFC0028F7D0032328A205212CA003F02A
:100BC00043FC032325A20B212BA003F03DFC0028AE
:100BD000F7D0032321A20E212AA003F035FC032322
:100BE0002CA209212CA003F02FFC0028F7D003230E
:100BF0001AA21B212BA003F027FC0028F7D0032307
:100C000016A20C212EA003F01FFC032330A20B21FF
:100C100032A003F019FC0028F7D0032332A20B21E5
:100C200034A003F011FC0028F7D0032334A20D21D7
:100C300036A003F009FC0028F7D000F0BDFE8DF8C7
:100C40000000632805D100208DF8010033A005F0D5
:100C5000DBFF6946012001F07BF808BD4F4B000027
:100C600041540D0A00000000415445300D0A0000B7
:100C70004154490D0A00000041542B4346554E3D56
:100C8000310D0A0041542B5149434C4F53453D30DF
:100C90000D0A00003436300041542B43494D490DB4
:100CA0000A00000041542B51494346473D226461EC
:100CB0007461666F726D6174222C312C310D0A00E3
:100CC00041542B43474154543D310D0A000000006C
:100CD0002B43474154543A203100000041542B43E8
:100CE000474154543F0D0A002B43455245473A2093
:100CF000302C310041542B43455245473F0D0A00EB
:100D00002B434750414444523A20310041542B4335
:100D10004750414444523F0D0A000000D0C5BAC5B7
:100D2000CBD1CBF7CAA7B0DCA3ACC7EBB2E9BFB459
:100D3000D4ADD2F2210D0A00F0B5A1B00E4607469F
:100D400080216846FFF771FA324611A1684604F027
:100D50009FFDC5B26C460DEB05023146384600F0EA
:100D6000D3FC05EB46010D2060540A190A2050708F
:100D7000881C802805D90BA005F046FF002021B073
:100D8000F0BD03230CA26846891C03F05DFBF6E767
:100D900041542B514953454E4445583D302C256410
:100DA0002C0000000D0AB7A2CBCDCAFDBEDDB3A456
:100DB000B6C8B9FDB3A4000053454E44204F4B00C4
:100DC0000178427811448278C07810440844C043C6
:100DD000C0B2704710B50024152000F05BFA33282C
:100DE00000D00124204610BD10B5244C0022202143
:100DF000204601F0D3F90A2001F014F80122202145
:100E0000204601F0CBF91E2001F00CF800231A4611
:100E100055213E2000F070FA012001F003F8202354
:100E200000220121142000F067FA012000F0FAFFEF
:100E300000231A463321152000F05EFA012000F04D
:100E4000F1FF00231A462821392000F055FA01202D
:100E500000F0E8FF00230322EA21372000F04CFADB
:100E6000012000F0DFFF00231A4619463E2000F063
:100E700043FABDE81040012000F0D4BF0008014053
:100E80002DE9F04F044699B03A2000F003FA17908C
:100E90003E2000F0FFF90690142000F0FBF90790C7
:100EA000152000F0F7F90890392000F0F3F90990C7
:100EB000372000F0EFF90A90072000F0EBF90C90D2
:100EC000052000F0E7F90D90062000F0E3F90E9000
:100ED000132000F0DFF9014613907CA005F094FE8A
:100EE0000D2000F0D7F916900C98FFF70DFB7D4A06
:100EF0007D4BFFF79AFAFFF73BFB00900D98FFF749
:100F000003FB7A4E7A4F32463B46FFF78EFAFFF7E5
:100F10002FFB05460E98FFF7F7FA32463B46FFF7E0
:100F200084FAFFF725FB834629460098FFF79BF9D3
:100F3000824659460098FFF796F901901398FFF7FB
:100F4000E3FA6C4A6C4BFFF770FAFFF711FB0746A8
:100F50001698FFF7D9FA064688463846FFF7F5FA9D
:100F60000022664BFFF7EFF902460B46304641463A
:100F7000FFF75BFAFFF7FCFA614E804631462846E0
:100F8000FFF771F9FFF7CDFA00250A2801D2656055
:100F900000E0606031465846FFF765F9FFF7C1FA97
:100FA0000A2801D2656000E0606031460098FFF7D2
:100FB0005AF9FFF7B6FA4FF47A77B84201D2A56032
:100FC00000E0A06031465046FFF74DF9FFF7A9FA5F
:100FD000DFF83091B84201D2256006E0494650461C
:100FE000FFF741F9FFF79DFA206031460198FFF7BE
:100FF0003AF9FFF796FA0646B84201D2256006E0B4
:1010000049460198FFF72FF9FFF78BFA20603E4D14
:1010100040462946FFF727F9FFF783FA20613BA0F6
:1010200005F0F2FD44A0179905F0EEFD49A00699E0
:1010300005F0EAFD4EA0079905F0E6FD53A00899DA
:1010400005F0E2FD58A0099905F0DEFD5DA00A99C2
:1010500005F0DAFD62A00B9905F0D6FD67A00C99AA
:1010600005F0D2FD6BA00E9905F0CEFD6FA016998C
:1010700005F0CAFDD4E90121334672A005F0C4FD94
:1010800029464046FFF721F9FFF75FFA81468A4675
:101090000198FFF75AFA074688465846FFF755FA6F
:1010A00005460E460098FFF750FA8DE8E007024625
:1010B0000B466DA005F0A8FD14A005F0A5FD214686
:1010C00006A800F031F919B0BDE8F08F424C363572
:1010D000323347315F57415454203D2025640D0A77
:1010E00000000000363CBD52FE64C540105839B4C3
:1010F000B4541E413F575BB1BF3C3E40882AD140AB
:1011000000007A44000020410000C8422D2D2D2D02
:101110002D2D2D2D2D2D2D2D2D2D2D2D2D2D2D2DFF
:101120002D2D2D2D2D2D2D2D2D2D2D2D2D2D2D2DEF
:101130002D2D0D0A00000000424C36353233473168
:101140005F535441545553203D2030582530325878
:101150000D0A0000424C3635323347315F5752504A
:10116000524F54203D203078253032580D0A00006F
:10117000424C3635323347315F4D4F4445203D2098
:101180003078253032580D0A00000000424C3635C8
:10119000323347315F4741494E203D20307825307A
:1011A00032580D0A00000000424C363532334731C8
:1011B0005F4D41534B203D203078253032580D0A89
:1011C00000000000424C363532334731565F504BF9
:1011D0004C564C203D203078253032580D0A000006
:1011E000424C3635323347315F495F504B4C564C99
:1011F000203D203078253032580D0A00424C3635DB
:10120000323347315F565F524D53203D2025640DE8
:101210000A000000424C3635323347315F495F5295
:101220004D53203D2025640D0A000000424C363508
:10123000323347315F56414852203D2025640D0A24
:10124000000000005631203D202564206D562C49B9
:1012500031203D202564206D412C50203D20256407
:10126000206D570A0000000056203D20252E3166D3
:10127000562C41203D20252E3266412C50203D2009
:10128000252E3266572C45203D202566A1E3200AF5
:101290000000000010B5A2B035218DF880108DF847
:1012A00000008DF881000024022120A804F060F8DD
:1012B00010484FF496720DF10101006806F08CFCA5
:1012C000012802D0002022B010BD6846FFF778FD4B
:1012D0009DF8041081420AD19DF803009DF8021088
:1012E00044EA00409DF8014040EA012004432046C2
:1012F000E9E70000E40000201CB5CA248DF8004096
:101300008DF801008DF802108DF803208DF804305F
:101310000DF10100FFF754FD8DF805000621684628
:1013200004F026F81CBD0000406C10F0280F01D01E
:10133000042008E0020701D5022004E0800601D560
:10134000012000E00020087310F0FF0008D0012801
:1013500008D0022808D0042808D105A005F054BC04
:1013600013A0FBE720A0F9E72EA0F7E770470000E5
:101370000A2A2A2A2A2A2A2A2A2A2A2A2A2A2A2AED
:101380002A2A2A424C363532334758B5E7C1F7B9D5
:10139000FDD1B9B9FDC1F72A2A2A2A2A2A2A2A2ADE
:1013A0002A2A2A2A2A2A2A2A2A2A2A0A0000000065
:1013B0000A2A2A2A2A2A2A2A2A2A2A2A2A2A2A2AAD
:1013C0002A2A2A424C363532334758D5FDB3A32A50
:1013D0002A2A2A2A2A2A2A2A2A2A2A2A2A2A2A2A6D
:1013E0002A2A2A0A000000000A2A2A2A2A2A2A2A45
:1013F0002A2A2A2A2A2A2A2A2A2A2A424C363532F4
:10140000334758B5E7C1F7B9FDD1B92A2A2A2A2AA4
:101410002A2A2A2A2A2A2A2A2A2A2A2A2A2A2A0A4C
:10142000000000000A2A2A2A2A2A2A2A2A2A2A2AE4
:101430002A2A2A2A2A2A2A424C363532334758B5D4
:10144000E7C1F7B9FDC1F72A2A2A2A2A2A2A2A2A15
:101450002A2A2A2A2A2A2A2A2A2A2A0A00000000B4
:10146000FEE770B5044600234FF6FF704AF201050F
:101470000DE0E25C50400022C60702D085EA500031
:1014800000E04008521CD2B2082AF5D35B1C8B4204
:10149000EFD370BD10B50024FFF79CFC10B1012400
:1014A00008A000E00DA005F0AFFBFFF7A3FA28B1FC
:1014B00010A000BF05F0A8FB204610BD44F00204B8
:1014C00011A0F7E70D0AB5E7C1BFBCC620455252CF
:1014D0004F52A3A1A3A1A3A1000000000D0AB5E7EC
:1014E000C1BFBCC62053554343455353A3A1A3A139
:1014F000A3A100000D0A204E4220535543434553FB
:1015000053A3A1A3A1A3A1000D0A204E422045523E
:10151000524F52A3A1A3A1A3A10000001CB50AA091
:1015200004F0BEFA0C490320CDE9000100234FF47A
:1015300080720AA10A4806F0E1FC012803D009A044
:1015400004F0AEFAFEE71CBD0D0A2043726561741B
:101550004C65645461736B00A00000204C6564000E
:10156000853A00080D0A204C65645F5461736B2056
:101570006372656174206572726F72001CB509A098
:1015800004F08EFA00210520CDE900010B464FF44E
:10159000967208A1084806F0B1FC012800D0FEE7C9
:1015A0001CBD00000D0A2043726561744E425461F7
:1015B000736B00004E420000ED4400081CB50AA009
:1015C00004F06EFA00210620CDE900010B464FF42D
:1015D000C8720BA10D4806F091FC012803D00CA0A5
:1015E00004F05EFAFEE71CBD0D0A204372656174CB
:1015F000506C6174666F726D5461736B0000000013
:10160000506C6174666F726D000000006D490008D7
:101610000D0A204372656174506C6174666F726D5F
:101620005461736B206372656174206572726F72AE
:10163000000000001CB508490120CDE9000100238D
:10164000802206A1074806F059FC012803D006A015
:1016500004F026FAFEE71CBD0400002053746172FA
:1016600074000000615100080D0A20537461727407
:101670005F5461736B4944206372656174206572C5
:10168000726F72001CB50BA004F00AFA0E49042018
:10169000CDE90001002380220CA10E4806F02EFCAB
:1016A0000949091F0128086003D00BA004F0F8F9CC
:1016B000FEE71CBD0D0A20437265617455617274AA
:1016C0005461736B00000000A80000205561727423
:1016D00041707000595600080D0A556172745461CA
:1016E000736B206372656174206572726F720000A3
:1016F00000210F2801D9084670470A2801D3373046
:1017000000E03030C0B2704770B50D460646002389
:101710000FE0F15C080901F00F04FFF7E9FF02F8A0
:1017200013002046FFF7E4FF02EB43015B1C487007
:101730009BB2AB42EDD370BDF0B517460E460446E2
:1017400000230EE014F81300FFF73EF9054604EB02
:1017500043004078FFF738F940EA0510F8545B1C65
:101760009BB2B342EED3F0BD7047000000B58BB022
:10177000142105A8FEF759FD684600F0FBF9029810
:101780000A21B0FBF1F11EA005F03EFA0198FEF728
:10179000BBFE00221F4BFEF748FE02460B461EA072
:1017A00005F032FA0098FEF7AFFE00221F4BFEF75D
:1017B0003CFE02460B461EA005F026FA0498FEF7F2
:1017C000A3FE00221F4BFEF730FE02460B461EA072
:1017D00005F01AFA9DF80D0078B1002120A005F05F
:1017E00013FA9DF80E1024A005F00EFA9DF80C10C7
:1017F00026A005F009FA0BB000BD0121EEE70000BC
:10180000C4BFC7B0B5E7D1B9A3BA25642076200A12
:101810000000000000408F40C4BFC7B0B5E7C1F76B
:10182000A3BA252E3366206D41200A000000244013
:10183000C4BFC7B0B9A6C2CAA3BA252E31662077E5
:10184000200A000000005940C4BFC7B0B5E7C1BFBF
:10185000A3BA252E3166206B7768200A00000000AD
:10186000C4BFC7B0BCCCB5E7C6F7D7B4CCACA3BA3D
:101870002564200A00000000C4BFC7B0B5F7B9E274
:10188000D6B5A3BA2564200A00000000C4BFC7B0C3
:10189000C9E8B1B8D7B4CCACA3BA2578200A000007
:1018A0007047000006490020C8610648016941F000
:1018B00004010161016941F04001016170470000CC
:1018C000E803002000200240064A0021D1610649B9
:1018D0000A6942F002020A614861086940F040006A
:1018E00008617047E803002000200240044B0022FA
:1018F000DA61044A136943F0010313610180704700
:10190000E80300200020024014480022C168CB06F2
:10191000134904D5CA6942F00202CA611022C368A1
:101920005B0705D5CB6943F00103CB6142F00402AC
:10193000C369DB0707D0CB6943F00403CB61C169FE
:1019400021F00101C161A2F58071013901D0C260AD
:101950007047C16921F00101C16170470020024058
:10196000E803002070B5054600F01EFC0646114C49
:1019700009E0681C07D025B100F016FC801BA842C6
:1019800001D9032070BDE068C007F2D1E06880068D
:1019900001D52020E060E068C00605D4E069C007FA
:1019A00002D1E068400703D5FFF7AEFF012070BD0C
:1019B000002070BD0020024008B500208DF8000016
:1019C00003231AA209211BA002F03EFD07E0032316
:1019D00016A2092117A002F037FD012805D0002822
:1019E000F5D000BF9DF8000008BD154801233A223C
:1019F0000188144800F030F8A0F57F41FF39F1D09C
:101A000010496A4608440221801C03F0CFFB0028DD
:101A1000E8D09DF80000282802D963208DF8000046
:101A2000C1B209A005F0F0F8DCE700002B434553F4
:101A30005100000041542B434553510D0A00000052
:101A4000B40000202E2F00200D0AD0C5BAC5D6CA7A
:101A5000C1BF3A202564000070B505460020044649
:101A600008E02E5C964203D1641CE4B29C4205D08F
:101A7000401CC0B28842F4D34FF6FF7070BD000026
:101A80001CB5044605F09AFC002201A9244801F087
:101A90001EF800226946224800F0F2FF9DF803007C
:101AA000204900F5FA6008809DF801208A709DF8B1
:101AB0000220CA709DF804204A719DF805208A71A1
:101AC0009DF80620CA7120808878A070C878E070E0
:101AD000487960718879A071C879E07145F2510246
:101AE00001210F4800F0C4FF9DF8032002210C489B
:101AF00000F0BEFF9DF801200321094800F0B8FF67
:101B00009DF802200421064800F0B2FF9DF8002055
:101B10000521034800F0ACFF05F070FC1CBD00007F
:101B20006C360020300100201CB50446012201A9BA
:101B30000D4800F0CCFF012269460B4800F0A0FFE1
:101B40009DF8030020809DF80100A0709DF8020020
:101B5000E0709DF8040060719DF80500A0719DF88B
:101B60000600E0711CBD00006C360020A0F1006092
:101B7000800A704770B50F4D04464FF0FF31286959
:101B800006F0C6F80C4800238168A1600B494A782A
:101B900062730978A173016821600169216141685C
:101BA0006160007B20732869BDE870401A461946C1
:101BB00005F004BF8C000020B02F0020044F00204F
:101BC0007CB503233EA21D2140A002F03DFC00286D
:101BD000F7D0464808233AA20188454803F010FB95
:101BE000A0F57F41FF396AD041494FF4F4640844BD
:101BF000817AC37A303901EB810104EB4101194448
:101C0000ADF80010417B837B303901EB81046FF02C
:101C10002F0101EB440423448DF80230037C447C03
:101C2000303B03EB830301EB430323448DF8033084
:101C3000C37C047D303B03EB830301EB430323446C
:101C4000DBB28DF80530847DC57D303C04EB840427
:101C500001EB44042C44E4B28DF80640457E867EB8
:101C6000303D05EB850501EB450535448DF8075002
:101C7000C57E2D2D02D02B2D0AD012E0427F007F91
:101C8000303800EB800001EB40001044404207E098
:101C9000427F007F303800EB800001EB40001044B1
:101CA000C2B203EB92008DF8050002F00300C0EB16
:101CB000001020448DF80600684603F01BFA7CBD36
:101CC0002B514E54503A20300000000041542B510B
:101CD0004E54503D312C226E7470312E616C6979F6
:101CE000756E2E636F6D220D0A000000B400002097
:101CF0002E2F002070B5144D04464FF0FF31E868D8
:101D000006F006F8114800231A4601782170417840
:101D100061700179217141886180C179E171B0F808
:101D20000510A4F80510817AA17201892181417BF7
:101D30006173B0F80B00A4F80B00E868BDE87040D0
:101D4000194605F03BBE00008C000020062D002047
:101D500070B50D4D0C4606464FF0FF31686905F031
:101D6000D7FF2A1D5EB120781070607850706869C6
:101D7000BDE8704000231A46194605F01FBE1078D2
:101D8000207050786070F2E7B400002010B590F831
:101D900021100024022903D00421816301243DE0A5
:101DA00001680A6822F00E020A6001680A6822F0DF
:101DB00001020A601A4A0168914201D1012121E021
:101DC000174A1432914201D110211BE0144A2832E3
:101DD000914201D1891515E0114A3C32914201D15D
:101DE00089140FE00E4A5032914202D14FF48031F3
:101DF00008E00B4A6432914202D14FF4801101E0B5
:101E00004FF08071064A083A5160012180F8211094
:101E1000002180F82010416B01B18847204610BD99
:101E20000800024070B5044600F0BEF90546601C8B
:101E300002D004480078044400F0B6F9401BA042E8
:101E4000FAD370BD080000202DE9F047054626486A
:101E50000F460126017E01290FD00121814601761E
:101E60002868DFF888804CF25034022808D0A24657
:101E70002046FFF777FDA8B131E00220BDE8F087EA
:101E80002046FFF76FFD08BB0120FFF70BFD204642
:101E9000FFF768FDD8F81010064621F00401C8F8D5
:101EA00010101CE04FF0FF303860AC6811E02046A5
:101EB000FFF70AFD5046FFF755FDD8F81010060051
:101EC00021F00201C8F8101001D03C6007E004F5D1
:101ED0008064D5E9020100EB8120A042E7D800210F
:101EE00089F818103046C9E7E803002000200240B6
:101EF0000348016941F08001016100207047000042
:101F0000002002402DE9F05F07461C488846002467
:101F1000017E15461E46012909D001218146017620
:101F20004CF2503A5046FFF71DFD18B122E0022056
:101F3000BDE8F09F012F02D0022F00D00427D34626
:101F4000DFF83CA0220128463146FEF745F981B270
:101F500008EB4400FFF7CAFC5846FFF703FDDAF828
:101F6000102022F00102CAF8102018B9641CE4B253
:101F7000BC42E7D3002289F81820D9E7E803002003
:101F800000200240064900200A69120607D5054ACA
:101F90004A60054A4A600969090600D50120704770
:101FA0000020024023016745AB89EFCD2DE9F84FB2
:101FB000DFF8B891002409F1040A0AF1040B234662
:101FC0000F270BF1040EC9E00125A5402A40AA42C3
:101FD0007DD1674ED1F804C0ACEB0608B44532D0D1
:101FE00014DCBCF1030F3AD009DCBCF1000F2AD09D
:101FF000BCF1010F1CD0BCF1020F31D11DE0BCF1CE
:10200000110F17D0BCF1120F2AD119E0B8F5881FB3
:1020100019D006DCB8F5803F15D0B8F5801F1FD168
:1020200011E0B8F5001F0ED0B8F5041F18D10AE072
:10203000CB6815E0CB681B1D12E0CB6808330FE0BE
:10204000CB680C330CE08B682BB1012B4FF00803ED
:1020500003D0456104E0042302E0056100E00023B1
:10206000FF2A01D8064601E000F104064FEA840584
:1020700001D9A5F12005D6F8008007FA05FC28EA69
:102080000C0803FA05F548EA0508C6F800804D6813
:10209000ED0062D5374DAE6946F00106AE61AD691F
:1020A00024F0030605F001050095334D06EB050C01
:1020B000DCF80850A607360F07FA06F825EA0805E7
:1020C000DFF8B880404503D14FF0000817E044E046
:1020D000DFF8AC80404502D14FF001080FE0DFF897
:1020E000A480404502D14FF0020808E0DFF8988054
:1020F000404502D14FF0030801E04FF0040808FA10
:1021000006F848EA0508CCF808804D68D9F8006060
:10211000ED034D4601D5164300E096432E604D6811
:10212000DAF80060AD03554601D5164300E096434A
:102130002E604D68DBF80060ED025D4601D5164368
:1021400000E096432E604D68DEF80060AD027546F3
:1021500001D5164300E096432E60641C0D682A46A4
:10216000E5407FF431AFBDE8F88F00000004014086
:102170000000111000100240000001400008014062
:10218000000C01400010014000140140C26821EA27
:1021900002030A4043EA0241016170470AB101614A
:1021A00070470904FBE700000148806870470000A1
:1021B0000800002070B5040011D021684CF6CC4016
:1021C0000860216845F255500860D4E9000141607B
:1021D0002168A0688860FFF7E7FF054609E0012055
:1021E00070BD00BFFFF7E0FF401B262801D9032088
:1021F00070BD2068C0680028F4D121684AF6AA2082
:102200000860002070BD0000024881680278114417
:102210008160704708000020074810B5016841F050
:1022200010010160032000F08DF8002000F006F896
:1022300000F03EF8002010BD0020024000B501462D
:1022400087B000221C2000F05DF81C2000F04CF844
:102250001448C16941F00101C161C06905A900F0DC
:1022600001000690684600F0F5F900F013FA0E49F7
:102270004000B0FBF1F10D484FF08042491E026072
:10228000416040F2E7320021C0E90321816000F0A3
:10229000CCFD10B1012007B000BD044800F010FED5
:1022A000F9E700000010024040420F009C030020AC
:1022B0000B4808B5816941F001018161816901F034
:1022C00001010091C16941F08051C161C06900F014
:1022D000805000900348416821F0E061416008BDF2
:1022E0000010024000000140002809DB00F01F023E
:1022F000012191404009800000F1E020C0F8001168
:1023000070470000F0B40E4B1B680C46C3F3022369
:10231000C3F10705042D00D90425191D072901D291
:10232000002300E0DB1E012606FA05F1491E2140CC
:1023300099409E40761E16403143F0BC03F0CEBA61
:102340000CED00E0064900F0070208684FF6FF03B5
:10235000184040EA0220034A10430860704700001A
:102360000CED00E00000FA05014901200862704709
:1023700000000E4210B529A401461DCC86B08DE8A0
:102380001D002AA02A4C006804900020012923D0B7
:1023900002293AD010291DD161682268D20119D5CD
:1023A000C1F38342C9031DF8020009D5616804AA7C
:1023B000C1F34041515C1F4AB2FBF1F1484301E0D7
:1023C0001D4948436168490204D440005FF003019D
:1023D000B0FBF1F006B010BD226AC2F30121012961
:1023E00003D1920701D5C803F4E7022905D1626A37
:1023F000920702D549F64040ECE70329EAD121686B
:102400008903E7D54FF22440E4E700F053F961680F
:10241000C1F38131491C4900DAE7000002030405D9
:10242000060708090A0B0C0D0E0F10100102000020
:102430000010024000127A0000093D002DE9F84327
:1024400005460078354CC00754D0E0690026C0002E
:1024500008D4E06940F08050E061E069012600F0B6
:10246000805000902E480168C90512D4016880464A
:1024700041F480710160FFF797FE074605E000BF59
:10248000FFF792FEC01B642823D8D8F80000C005CF
:10249000F6D5206A10F4407021D0A98801F440716B
:1024A00081421CD0206A1F49012220F440700A603A
:1024B00000220A602062C00711D0FFF775FE0746B0
:1024C00041F2883808E000BFFFF76EFEC11B4145AE
:1024D00002D90320BDE8F883206A8007F4D5206A7A
:1024E000696820F44070084320621EB1E06920F062
:1024F0008050E0612878800705D56068A96820F4DD
:102500004040084360602878C00605D56068E968E7
:1025100020F48000084360600020DBE700100240E8
:1025200000700040400442422DE9F0470F4605008C
:1025300061D0434E306800F00700B84209D23068DD
:1025400020F0070038433060306800F00700B842E0
:1025500051D128683B4C810712D5400703D56068EC
:1025600040F4E06060602878000703D5606840F4BC
:10257000605060606068A96820F0F0000843606007
:102580002878C00728D06868012810D02168022860
:1025900010D0890700292EDA616821F00301014378
:1025A0006160FFF701FE804641F288390DE0216845
:1025B0008903EFE78901EDE7FFF7F6FDA0EB0801DE
:1025C000494502D90320BDE8F0876068696800F0DA
:1025D0000C00B0EB810FEFD1306800F00700B8427B
:1025E0000BD9306820F0070038433060306800F0C5
:1025F0000700B84201D00120E5E72878400705D55B
:102600006068E96820F4E0600843606028780007AB
:1026100006D56068296920F4605040EAC100606016
:1026200000F058F86168084AC1F30311515CC840D2
:102630000649086006480068FFF700FE0020C2E770
:102640000020024000100240008300081400002017
:102650000C0000200F2202600C4A536803F00303B1
:102660004360536803F0F0038360536803F4E0634E
:10267000C36052684FF4E06303EAD2020261044887
:10268000006800F00700086070470000001002407A
:10269000002002400448054900684968044AC1F323
:1026A0000221515CC8407047140000200010024015
:1026B000108300080448054900684968044AC1F3CA
:1026C000C221515CC8407047140000200010024035
:1026D0001083000812A185B00FC98DE80F0014A067
:1026E000144A006804905168134801F00C03042B4D
:1026F00010D0082B0ED1C1F38343C9031DF803008A
:102700000AD5516804AAC1F34041515C0A4A5043BA
:10271000B0FBF1F005B0704708494843FAE7000004
:1027200002030405060708090A0B0C0D0E0F101012
:10273000010200000010024000127A0000093D0072
:102740002DE9F84F040070D02078C04DC00749D063
:102750006868C0F38100012807D06868C0F3810071
:10276000022809D16868C00306D52868800339D5D6
:1027700060680028E7D035E06068B0F5803F0BD096
:1027800010B1B0F5A02F11D0286820F48030286057
:10279000286820F4802002E0286840F48030286017
:1027A000606890B1FFF700FD06460AE0286840F433
:1027B00080202860F0E700BFFFF7F6FC801B64284C
:1027C00073D828688003F7D50CE0FFF7EDFC0646C8
:1027D00005E000BFFFF7E8FC801B6428F0D82868FC
:1027E0008003F7D420789A4E80074FF001094FF00C
:1027F000000839D5686810F00C0F07D06868C0F37E
:102800008100022809D16868C00306D428688007BF
:1028100014D52069012808D110E02069B0B1C6F8AC
:102820000090FFF7C1FC074605E00AE1FFF7BCFC9A
:10283000C01B0228C4D828688007F7D528686169BA
:1028400020F0F80040EAC10028600DE0C6F80080E2
:10285000FFF7AAFC074604E0FFF7A6FCC01B02280E
:1028600023D828688007F7D4207800072CD579482A
:10287000A169D9B1C0F80090FFF796FC074604E0C3
:10288000FFF792FCC01B02280FD8686A8007F7D5B3
:1028900071484FF4FA510068B0FBF1F0009000BFAE
:1028A0000098411E0091FAD20EE080E0C0F800804E
:1028B000FFF77AFC074604E0FFF776FCC01B02280E
:1028C00075D8686A8007F7D42078400760D5E86932
:1028D0000027C00008D4E86940F08050E861E8694A
:1028E000012700F0805000905C480168C90513D4AE
:1028F0000168834641F480710160FFF755FC824610
:1029000006E000BFFFF750FCA0EB0A0064284ED899
:10291000DBF80000C005F5D5E06801280AD008B151
:10292000052813D0286A20F001002862286A20F0C8
:10293000040002E0286A40F001002862E06841F2E9
:10294000883B98B1FFF730FC82460BE0286A40F0E4
:1029500004002862EEE700BFFFF726FCA0EB0A01A7
:1029600059455AD8286A8007F6D50CE0FFF71CFCB9
:10297000824605E0FFF718FCA0EB0A0159454CD848
:10298000286A8007F6D41FB1E86920F08050E8611A
:10299000E06988B36968C1F38101022944D0022843
:1029A000C6F8608004D0FFF7FFFB044638E034E04F
:1029B000FFF7FAFB074604E0FFF7F6FBC01B02280F
:1029C0002BD828688001F7D4206AB0F5803F05D164
:1029D0006868A16820F4003008436860D4E9080101
:1029E0000843696821F4741108436860C6F8609070
:1029F000FFF7DAFB044606E025E000BFFFF7D4FB53
:102A0000001B022809D828688001F7D51BE000BF09
:102A1000FFF7CAFB001B022802D90320BDE8F88F8C
:102A200028688001F4D40EE00128F7D06868226A93
:102A300000F48031914204D1616A00F47010884240
:102A400001D00120EAE70020E8E700000010024082
:102A50000000424280044242140000200070004006
:102A6000024850F8210080B270470000006C00401E
:102A7000024800EB810091B201607047006C004099
:102A8000F8B505004FF0000016460C46009006D041
:102A90002CB100226946284600F019F808B101203F
:102AA000F8BD287B2070E87BE070697B6170A97BB2
:102AB000A17056B102F01BF9E070607802F017F9CE
:102AC0006070A07802F013F9A0700020F8BD2DE925
:102AD000F04791460C465FEA00084AD084B3D8F824
:102AE00000004068400744D4404602F09FF94FF48C
:102AF00061620546B0FBF2F1B0FBF2F302FB13504A
:102B00003C23B0FBF3F0B5FBF2F6607002FB16500D
:102B1000B0FBF3F203FB1200A070182931D3182088
:102B2000B1FBF0F7B1FBF0F200FB12102070404651
:102B300002F075F9411C04D0A84202D9461B02E0FC
:102B400017E04FF0FF36A7EB071000EB4000C0EB9B
:102B5000001005EBC0152946404602F0B6F940B911
:102B6000701C01D0711900E03146404602F099F91D
:102B700010B10120BDE8F0873946404602F0C2F8A6
:102B800000E02170B9F1000F0BD0207802F0AFF80F
:102B90002070607802F0ABF86070A07802F0A7F8BF
:102BA000A0700020E6E7000070B5040003D0607C50
:102BB000002610B105E0012070BD2674204600F00B
:102BC00043F802206074204600F010F9042578BB19
:102BD000204602F0EEF858BB2068416821F007015A
:102BE0004160A06820B11748016821F0010101602F
:102BF0001448001F0168A26821F46071114301604C
:102C00006068411C04D10120FFF7B4FB80B1401E75
:102C100021688A6822F00F0242EA10428A60216825
:102C2000CA6860F30F02CA60204602F0DDF808B1FE
:102C30006574C0E7E67301206073A07360740020C0
:102C400070BD0000306C004008B50068084988423B
:102C50000DD1FFF789FB0748C16941F00061C161EF
:102C6000C069054900F0006000900120086008BDBF
:102C700000280040001002403C0442422DE9F0418F
:102C80000D4604003BD0C5B3207C01283AD04FF05C
:102C9000010884F8108002206074E87872B302F0B2
:102CA0001DF8E073687802F019F86073A87802F0F4
:102CB00015F8A073C2B2617BE07B02F0C7F8207305
:102CC0002870204602F0B2F84FF46161B0FBF1F1D8
:102CD000002518292DD91822B1FBF2F1A1EB011121
:102CE00001EB4101C1EB011100EBC1163146204659
:102CF00002F0EBF80427C8B90BE000E004E0012083
:102D0000BDE8F0810220FBE7E07368786073A87883
:102D1000CFE7204602F083F8411C0AD0B04208D227
:102D200006490144204602F0BCF810B167742574CE
:102D3000E5E784F8118025740020E1E78051010067
:102D40002DE9F0410D46040024D01DB3207C01285C
:102D500023D04FF0010884F8108002206074287896
:102D6000EAB101F0BBFF4FF4616100FB01F6687846
:102D700001F0B4FFC0EB001006EB8006A87801F06C
:102D8000ADFF35182946204602F09FF8002604279B
:102D900010BB0FE00120BDE8F0810220FBE74FF4FB
:102DA000616148436978C1EB011100EB8100A978AA
:102DB0004518E7E72068416821F005014160204699
:102DC00002F02DF8411C0AD0A84208D2064901445D
:102DD000204602F066F810B167742674DAE784F8CA
:102DE000118026740020D6E78051010070B50400E0
:102DF0000AD02068416821F008014160FFF7D4F94A
:102E000005464FF47A7608E0012070BDFFF7CCF953
:102E1000401BB04201D9032070BD20684068000704
:102E2000F4D5002070BD7047704710B5040003D082
:102E300094F83D0010B107E0012010BD002084F897
:102E40003C00204600F01EF8022084F83D00211DC1
:102E5000206802F04DFA012084F8460084F83E0014
:102E600084F83F0084F8400084F8410084F8420070
:102E700084F8430084F8440084F8450084F83D0059
:102E8000002010BD08B500680B49884212D10B48DC
:102E9000C16941F00201C161C069002200F0020075
:102EA000009005211D20FFF72DFABDE808401D20E8
:102EB000FFF71ABA08BD00000004004000100240ED
:102EC00090F83D10012901D001207047022180F8BF
:102ED0003D100168CA6842F00102CA6000680B49EF
:102EE000884208D0B0F1804F05D00949884202D00D
:102EF0000849884204D1816801F00701062903D0FE
:102F0000016841F00101016000207047002C014080
:102F10000004004000080040704770B50446006897
:102F200001694FF00005C943890715D4C168C94339
:102F3000890711D4E91E016101202077206880698A
:102F40008007204602D0FFF7E7FF04E000F098F882
:102F5000204600F096F8257720680169C9434907A3
:102F600017D4C168C943490713D46FF00401016144
:102F7000022020772068806910F4407F204602D02C
:102F8000FFF7CAFF04E000F07BF8204600F079F874
:102F9000257720680169C943090716D4C168C94368
:102FA000090712D46FF0080101610420207720681E
:102FB000C0698007204602D0FFF7AEFF04E000F0B2
:102FC0005FF8204600F05DF8257720680169C94365
:102FD000C90617D4C168C943C90613D46FF01001DC
:102FE0000161082020772068C06910F4407F2046E6
:102FF00002D0FFF791FF04E000F042F8204600F015
:1030000040F8257720680169C943C90708D1C1681C
:10301000C943C90704D1891E0161204600F032F876
:1030200020680169C943090609D4C168C943090672
:1030300005D46FF0800101612046FFF7F4FE20689F
:103040000169C943490609D4C168C943490605D481
:103050006FF040010161204600F03EF820680169F0
:10306000C94389060BD4C168C943890607D46FF0E8
:10307000200101612046BDE87040FFF7D5BE70BD5C
:103080007047704770B504460068B0F1804F01D1B9
:10309000FFF7BAF80E492068884217D10D4C6068D6
:1030A000401C606000F000FC606800250A2808D31E
:1030B000A068401CC4E901502068401C206002F058
:1030C00097FAA068B0F57A7F00D3A56070BD0000C4
:1030D00000040040F80000207047704770B5026897
:1030E00004461068D168536910F00F0F52D003F0F6
:1030F000010501F490762E435FD0C20705D0CA05C2
:1031000003D5E26B42F00102E263420705D5DA071C
:1031100003D0E26B42F00202E263820705D5DA07D0
:1031200003D0E26B42F00402E263020707D501F02C
:1031300020022A4303D0E26B42F00802E263E26B12
:10314000002A33D0800604D5880602D5204602F036
:1031500039F920684069E16BC0F38010090700D499
:1031600028B3204602F020F92068416949061AD5A3
:10317000416921F040014161606BA0B12D4941637B
:10318000606BFEF703FE002810D0606B416BBDE85A
:1031900070400847830610D58B060ED52046BDE843
:1031A000704002F00FB92046FFF797FF70BD204630
:1031B000FFF793FF0020E06370BD03062BD50B06DD
:1031C00029D594F839002128F6D1A068B0F5805FA0
:1031D00001D12069B0B1206A411C216221680078C8
:1031E0004860E08C401E0004000CE084E4D12068BC
:1031F000C16821F08001C1602068C16841F04001D0
:10320000C16070BD206A0088C0F308005060206A69
:10321000801C2062E5E74006F3D54806F1D5D16869
:10322000204621F04001D160202184F8391000F0BF
:10323000E0F970BD9953000870B5040004D094F80B
:103240003900002510B106E0012070BD84F8385027
:10325000204600F023F8242084F839002068C16853
:1032600021F40051C160204602F0F2F820680169A3
:1032700021F4904101612068416921F02A014161F6
:103280002068C16841F40051C160E563202084F8E2
:10329000390084F83A00002070BD00002DE9F047A5
:1032A00086B00025064600950195029503950068B5
:1032B0004A49DFF82C914B4C02274FF4806A4FF0BB
:1032C000030888422ED1A06940F48040A061A06923
:1032D00000F480400490A06940F00400A061A0695F
:1032E000CDF80C8000F0040004904815CDE90007EB
:1032F00069464846FEF75AFECDE900A569464846AC
:103300000295FEF753FE3848416821F0040141F070
:10331000E0614160002205212520FEF7F3FF252012
:10332000FEF7E2FF31493068884228D1E06940F475
:103330000030E061E06900F400300490A06940F0E2
:103340000400A061A069694600F004000490042014
:10335000CDE90007CDF80C804846FEF727FE08208F
:10336000CDE90005694648460295FEF71FFE00229A
:1033700005212620FEF7C6FF2620FEF7B5FF1C49D3
:103380003068884227D1E06940F48020E061E0693C
:1033900000F480200490A06940F00800A061A069BA
:1033A000144C00F00800CDE90380CDE900A7694680
:1033B0002046FEF7FBFDE014CDE9000569462046F6
:1033C0000295FEF7F3FD002205212720FEF79AFF64
:1033D0002720FEF789FF06B0BDE8F08700380140DE
:1033E000000801400010024000000140004400407D
:1033F00000480040000C014090F83A30202B22D1C8
:10340000F9B1F2B190F83830012B1CD0816282857D
:10341000C2850021C163222280F83A2080F838104A
:103420000168CA6842F48072CA6001684A6942F061
:1034300001024A610068C16841F02001C1600020BA
:1034400070470120704702207047000070B50646A3
:10345000006832490025324C88421BD12078FE2872
:1034600011D02570A088FF2808D9A58089152D487E
:10347000FCF7DBFE2CA002F013FB04E0294AE17804
:103480001154401CA080264926480122C91C4038FE
:10349000FFF7B2FF2749306888421AD16078FE28CA
:1034A00011D06570E088802808D3E580802122480B
:1034B000FCF7BBFE1CA002F0F3FA04E01E4AE17820
:1034C0001154401CE08016491B480122C91C403899
:1034D0001EE01A4988421FD1A078FE2813D0A5709B
:1034E0002089802809D3144825818021C030FCF729
:1034F0009CFE0DA002F0D4FA05E00F4AE178C0323C
:103500001154401C208106490B480122C91C8030FF
:10351000BDE87040FFF770BF70BD0000003801408B
:10352000E800002004300020CAFDBEDDD2E7B3F67B
:1035300000000000004400404431002000480040EA
:103540002DE9F843044690F839001F4616460D460B
:1035500020284CD1C5B1BEB194F83800012846D01E
:10356000012084F838004FF00008C4F83C80212086
:1035700084F83900FEF718FEA6848146E684A06828
:10358000B0F5805F03D004E00120BDE8F883206936
:1035900028B12E465FF0000584F838800EE0002642
:1035A000FAE78021204601F0AFFFA0B9AEB116F8CE
:1035B000010B21684860E08C401EE084E08C4B46A3
:1035C0004FF0000200970028EBD14FF04001204659
:1035D00001F09AFF30B10320D7E735F8020BC0F3B2
:1035E0000800E6E7202084F839000020CDE702201B
:1035F000CBE7704700B58DB0142102A8FCF715FE8B
:1036000007A8FEF7B7FA09980A21B0FBF1F147A025
:1036100003F0FAFA0898FCF777FF0022484BFCF712
:1036200004FF02460B4647A003F0EEFA0798FCF7AA
:103630006BFF0022484BFCF7F8FE02460B4647A002
:1036400003F0E2FA0B98FCF75FFF0022484BFCF70F
:10365000ECFE02460B4647A003F0D6FA9DF829007F
:1036600000285FD0002149A003F0CEFA9DF82A106F
:103670004CA003F0C9FA9DF828104FA003F0C4FA3B
:103680000998000E8DF808000998000C8DF80900C3
:103690000998000A8DF80A0009988DF80B0008981F
:1036A000000E8DF80C000898000C8DF80D0008989D
:1036B000000A8DF80E0008988DF80F000B98000E88
:1036C0008DF810000B98000C8DF811000B98000A73
:1036D0008DF812000B988DF813009DF8290018B38F
:1036E0005FF000008DF814009DF82A008DF8150099
:1036F000FF208DF816008DF8170010208DF81800A7
:1037000001208DF8190002A91220CDE900012F48EF
:10371000012302682E4801882E48007801F0DCF869
:103720000DB000BD01219EE70120DBE7C4BFC7B09B
:10373000B5E7D1B9A3BA25642076200A00000000BD
:1037400000408F40C4BFC7B0B5E7C1F7A3BA252E6C
:103750003366206D41200A0000002440C4BFC7B07A
:10376000B9A6C2CAA3BA252E31662077200A000066
:1037700000005940C4BFC7B0B5E7C1BFA3BA252EEA
:103780003166206B7768200A00000000C4BFC7B014
:10379000BCCCB5E7C6F7D7B4CCACA3BA2564200A35
:1037A00000000000C4BFC7B0B5F7B9E2D6B5A3BAF0
:1037B0002564200A00000000C4BFC7B0C9E8B1B842
:1037C000D7B4CCACA3BA2578200A0000840000202E
:1037D00082000020880000202DE9FC470446007884
:1037E0000E46AA285AD1B11E2046FDF73AFEA1196D
:1037F00031F8021C814251D1294F207A294D4FF0D6
:10380000000907F10408D8B3FF2847D10120287028
:10381000608808F1040A40BA68806068E17900BAFB
:1038200020F0FF000843686001222946504601F05D
:10383000CFFF01222946504602F004FD0222A91CB6
:10384000384601F0C5FF0222A91C384602F0FAFCF6
:103850000422291D4746404601F0BAFF0422291DD3
:10386000384602F0EFFCFF23CDE900946988002080
:103870006A6801F0AFF83146BDE8FC4701F06EBD63
:1038800008490222891C384602F0DCFC0549042262
:10389000091D404602F0D6FC0023E5E7BDE8FC87A1
:1038A00000FC00088000002010B50B4C0B48A178EC
:1038B00002780B48914201D9012200E000228021C8
:1038C000FEF76CFCA078401CC0B2A070642801D345
:1038D0000120A07010BD00008C000020044F0020CB
:1038E000000C0140F0B587B004A8FEF7C9F8BDF898
:1038F000100040F2E471884273D304A802F0C0FEC5
:10390000454E0746454CF0780025D0B92046FEF7D5
:10391000F1F9BDF81000ADF808009DF812008DF81F
:103920000A009DF813008DF80B0020788DF80D002B
:1039300060788DF80E008DF80F5002A802F0A0FEFE
:1039400070607268364833464FF40071974255D321
:103950000126DE70BA1A6788C7EB071CB2EB8C0F22
:1039600009D80022FEF71AFC8DF8046020798DF842
:1039700000002CA03FE0B4F805C0BC44CCEB0C1711
:10398000B2EB870F09D80022FEF708FC8DF804601F
:10399000E0798DF8000028A02DE027896744C7EB67
:1039A0000717B2EB870F09D80022FEF7F7FB8DF857
:1039B0000460A07A8DF8000024A01CE0B4F80B701D
:1039C0006744C7EB071C1F46B2EB8C0F0AD80022D6
:1039D000FEF7E4FB8DF80460607B8DF8000020A00A
:1039E00009E016E00122FEF7D9FB8DF804508DF8AE
:1039F0000050FD701FA003F007F906E00122FEF75A
:103A0000CDFB8DF804508DF80050694601A801F0F7
:103A100095FE07B0F0BD00008C000020F82C0020BF
:103A2000000C01400D0ACAB1BFD8C4A3CABDBDD79E
:103A3000B6CED2BB000000000D0ACAB1BFD8C4A3E5
:103A4000CABDBDD7B6CEB6FE000000000D0ACAB191
:103A5000BFD8C4A3CABDBDD7B6CEC8FD0000000004
:103A60000D0ACAB1BFD8C4A3CABDBDD7B6CECBC498
:103A7000000000000D0ACAB1BFD8C4A3CABDBDE191
:103A8000CAF80000002592B02C46FDF703FDDFF8D0
:103A900058A1DFF858B1564F06464FF032094FF0A3
:103AA0000A082EB14FF480415248FEF76FFB04E044
:103AB000012291034F48FEF771FB11A90020FEF788
:103AC00047F99DF84500012808D00122D103494853
:103AD000FEF764FB4FF4807147480CE0B4FBF8F14B
:103AE00008FB114048B9012211024348FEF756FB7A
:103AF0004FF400413F48FEF749FBB4FBF9F109FBE5
:103B0000114000B1CCB90CA8FDF7BAFF9DF8350003
:103B10009DF837209DF836108DE807009DF833306A
:103B20009DF83220BDF8301034A003F06DF803A8E2
:103B3000FDF7A6F903A801F0DBFD641CB4FBFAF164
:103B40000AFB114010B9FDF7A5FC0646002210A99A
:103B5000DBF8080004F040F8012823D1B8700025F4
:103B60002FA003F051F89DF84000012823D0012236
:103B700051022048FEF712FB2DA000BF03F044F8CD
:103B80009DF841102CA003F03FF803A8FDF778F949
:103B900003A801F0ADFD0DF1410110A801F0CEFD2B
:103BA000FDF7E4FDB87801280DD0B4FBF8F108FB6F
:103BB000114090B113E000224FF400710D48FEF760
:103BC000EDFA21A0DAE76D1CADB241F270708542CA
:103BD00005D30020B870054601E0FFF783FE64209E
:103BE00003F08AFC5DE70000002F0D008C00002030
:103BF000044F0020000C0140000801400D0A253050
:103C000032642D253032642D253032642020253059
:103C100032643A253032643A2530326420000000A4
:103C20000D0A6C6564D1DDCABEC4A3CABD00000024
:103C30000D0A20B9D8B5C6000D0A20C1C1B6C8B555
:103C4000F7D5FBA3BA2564000D0A20BFAAB5C600AC
:103C500010B5134C606A400102D512A001F020FF9C
:103C6000606A000102D516A001F01AFF606AC00068
:103C700002D518A001F014FF606A800001D519A0D8
:103C800008E0606A400001D51DA003E0606A0028DA
:103C900002DA21A001F004FF25490120086010BDCF
:103CA000001002400D0AB7A2C9FAC0B4D7D4204E02
:103CB00052535420D2FDBDC5B5C4B8B4CEBB00002C
:103CC0000D0AB7A2C9FA20504F522F50445220B8C3
:103CD000B4CEBB000D0AB7A2C9FAC8EDBCFEB8B499
:103CE000CEBB00000D0AB7A2C9FAC0B4D7D4B6C083
:103CF000C1A2BFB4C3C5B9B7B8B4CEBB0000000001
:103D00000D0AB7A2C9FAB4B0BFDABFB4C3C5B9B718
:103D1000B8B4CEBB000000000D0AB7A2C9FAB5CDF9
:103D2000B9A6BAC4B9DCC0EDB8B4CEBB000000007F
:103D3000E004424270B506460C46881C02F02EFF95
:103D400005460470200A687022463146A81CFCF71C
:103D500053FA0B4800231A462946006A03F0DEFE98
:103D6000012807D007A001F09BFE284602F03CFE88
:103D7000012070BD284602F037FE002070BD000013
:103D8000B40000200D0A78517565756553656E6441
:103D9000206572726F722C20475052535F52454318
:103DA000454956455F517565756500002DE9F04F31
:103DB00085B000245A4800940194029403948169C8
:103DC00041F010018161816901F010010491816964
:103DD00041F020018161816901F020010491816934
:103DE00041F004018161816901F00401049181695C
:103DF00041F0080181618069012200F00800DFF8CC
:103E000024B15702049039465846FEF7C7F90022FC
:103E100002215846FEF7C2F9002201215846FEF75A
:103E2000BDF94FF48078012241463F48FEF7B6F9CC
:103E30004FF48049012249465846FEF7AFF94FF446
:103E4000004A012251465846FEF7A8F90022802177
:103E50005846FEF7A3F9002220213348FEF79EF9C9
:103E60000226012500970396CDE90154694658467C
:103E7000FEF79CF8012239465846FEF78FF9CDE946
:103E80000065CDE9024669465846FEF78FF803966D
:103E90000095CDE9015469465846FEF787F8280396
:103EA000CDE90004694658460294FEF77FF80327DF
:103EB000CDF800800397CDE9015469461A48FEF712
:103EC00075F8CDF800900397CDE90154694658463E
:103ED000FEF76CF8CDF800A00397CDE901546946D0
:103EE0005846FEF763F88020CDE90005CDE902478A
:103EF00069465846FEF75AF81020CDE90004694695
:103F000009480294FEF752F82020CDE90005CDE9DA
:103F1000024669460448FEF749F805B0BDE8F08F4F
:103F200000100240000C014000080140094810B593
:103F3000074901600421416040F6FF718160FEF78E
:103F400039F9002803D0BDE81040FDF7A9BC10BD29
:103F500000300040C836002030B589B00024434806
:103F60000594414903940160611EC0E90114FEF704
:103F70001BFE08B1FDF794FC07A8FDF7D5FD012154
:103F80003A48FEF76DFDA0F5A041513921D08DF8DA
:103F9000144001258DF815408DF816502A4605A9C4
:103FA0003248FEF7CDFE08B1FDF77AFC8DF80C50D3
:103FB0008DF80D508DF80E408DF80F40012203A9A9
:103FC0002A48FEF75BFE002801D0FDF769FC09B026
:103FD00030BD002204A92548FEF779FD002206A97C
:103FE0002248FEF74DFD9DF810009DF812209DF827
:103FF00011108DE807009DF81B109DF81A309DF8F0
:1040000019201BA001F5FA6101F04AFD02211748B1
:10401000FEF726FD8DF80F0003211448FEF720FD62
:104020008DF80D0004211148FEF71AFD8DF80E00E1
:1040300005210E48FEF714FD8DF80C009DF81000C8
:104040009DF812209DF811108DE807009DF80F10C3
:104050009DF80E309DF80D2010A001F5FA6101F0D9
:104060001FFD0022ABE70000002800406C36002056
:104070000D0AC9CFB5E7CAB1BCE4A3BA2530326492
:104080002D253032642D25303264202025303264D5
:104090003A253032643A2530326420000D0AB1B836
:1040A000B7DDCAB1BCE4A3BA253032642D25303265
:1040B000642D253032642020253032643A25303298
:1040C000643A25303264200010B588B000241C21E9
:1040D0006846FCF7AAF8FEF7DDFA41000B480A4AE9
:1040E00002600B4AB1FBF2F1491EC0E901146321E1
:1040F000C0E9031480218161FEF797FE002801D0FA
:10410000FDF7CEFB08B010BD000400408036002053
:1041100040420F000C4810B50A4901604FF4E131EC
:104120004160002181600C22C160C0E904128161FC
:10413000C161FFF781F8002803D0BDE81040FDF70A
:10414000AFBB10BD00380140C42F00200C4810B593
:104150000A4901604FF496514160002181600C22B0
:10416000C160C0E904128161C161FFF765F80028F0
:1041700003D0BDE81040FDF793BB10BD00440040E4
:10418000043100200C4810B50A4901604FF4E131B8
:104190004160002181600C22C160C0E9041281618C
:1041A000C161FFF749F8002803D0BDE81040FDF7D2
:1041B00077BB10BD00480040C4310020FEE770B559
:1041C0000546002486B00E46012080F3108800F0DA
:1041D0001FF82846FDF7CAFC0020009002953046E3
:1041E000FDF7C4FC06462846FDF7C0FC301A401C0B
:1041F000039004A96846FDF727FE00B10124FDF7EE
:1042000077FE002080F3108806B0204670BD0000C5
:1042100010B5FDF7B7FE02493520C860002010BD7B
:10422000002002402DE9F05F174600258B468046AE
:104230002E46044600EB070A3AE000BFAAEB040052
:10424000012816D002281BD0032821D0A4EB080097
:104250001BF800205844D0F8010042EA00208146B3
:104260000246002321460220FDF74CFEC0B1012684
:1042700020E0A4EB08011BF8010060F0FF00EEE76E
:10428000A4EB080101EB0B000088A0F58030E6E705
:10429000A4EB080101EB0B00006840F07F40DEE773
:1042A00058F80510494501D0022603E0241D2D1DB4
:1042B000BD42C3D33046BDE8F09F00002DE9F8436E
:1042C0004C4E00224A49306A03F086FC01287DD119
:1042D000474C25880DB1802D05D92946BDE8F84306
:1042E00045A002F091BC294648A002F08DFC294669
:1042F000A01C01F033F8802002F062FF81460146E5
:104300000022F06903F068FC4FF6FF7701282FD0F8
:104310000E2343A22946A01C00F072FF4FF00008B4
:10432000B84243D00D2602232C2229462746A01C42
:10433000CDF80080FDF790FB0446281B401E81B29B
:104340003D19E81C01233246FDF786FBC6B2E81C86
:104350006A46314600F02AFF0098354A81B2A0191A
:104360003844401DFDF7E8F9314800F06DF938E0B8
:104370004846FBF771FFC3B24A462946A01C00F02D
:104380003FFFB8420DD035802A46A11C2848FBF7D4
:1043900033FF00231A461946D6F8180003F00EFB27
:1043A0001FE000231A464946F069F7E7102321A2CF
:1043B0002946A01C00F024FFB8420CD0694600201A
:1043C000FDF7C6FC8DF80180694600E00EE0012093
:1043D000FDF7BEFC05E035802A46A11C1448FBF71A
:1043E0000BFF4846BDE8F84303F01CB8BDE8F8836E
:1043F0002E2E0020B40000200D0A204E42B3A4B699
:10440000C8B4EDCEF33A2564000000000D0A415413
:10441000BDD3CAD52C206C656E3A2025640D0A00E8
:104420002B51495552433A2022726563762200008F
:104430002E2F00202B51495552433A2022636C6F96
:1044400073656422000000002DE9F0471D4C88468A
:10445000814600261D469246711E206903F058FCD5
:10446000802002F0ADFE07460021A06903F050FC59
:1044700000223946E06903F0AFFB384602F0D2FF74
:104480004146484600F07EFF00231A465146E06947
:1044900003F094FA012802D00BA002F0B5FB6420CF
:1044A00005FB00F1A06903F033FC012800D10126CF
:1044B00000231A461946206903F080FA3046BDE809
:1044C000F0870000B40000200D0A78205175657552
:1044D0006553656E64206572726F722C204E425F68
:1044E000434D445F51756575650000001CB500249F
:1044F000304D264627468DF8044000BF00F078F87E
:10450000FCF748FB2B490120891DEA68FCF7C6FA35
:1045100068B301208DF801006946FDF719FCFDF72D
:104520004FFB69460020FDF713FC9DF8010040B3E6
:104530004FF47A722049686A03F04EFB012824D0B8
:1045400002F07AFA801B43F69821884201D2002EAD
:10455000E7D102F071FA064618A002F055FB0121DE
:104560000DF10400FCF7E8FBC0B10024D9E78DF899
:1045700001706888401C81B2698016A001F078F94A
:10458000BCE70120FCF758FABCE702F055FA0646F2
:104590000948407A0C30C1B20748E3E7641CE4B232
:1045A000082CBED300248DF8017069460120FDF768
:1045B000CFFBB6E7B4000020AE2E0020B7A2CBCDD3
:1045C0002074637020B1A3BBEECAFDBEDDB0FC0D4C
:1045D0000A0000000D0AB5DA2564D6D8D0C2C1ACF5
:1045E000BDD3B7FECEF1C6F7000000007047000053
:1045F00010B5032310A2042110A0FFF725FF032309
:104600000DA204210DA0FFF71FFF0E4C0122114641
:104610002046FDF7C3FD4FF47A7002F06DFF0022D3
:1046200001212046FDF7BAFD0323BDE8104002A298
:10463000042102A0FFF708BF4F4B000041540D0AB0
:1046400000000000000C01402DE9F047044600780E
:104650008AB0AA2877D1617A20460C3102F0F6FAA6
:104660006088E27941BA60688B4D00BA20F0FF00A3
:1046700010432A88914266D1884E3168884262D1BF
:10468000607A0C30C7B2B91E2046FCF7EAFEE11989
:1046900031F8021C884256D1217A814F632004F1FF
:1046A0000A08A1290FD04FF00009A2294ED0A32952
:1046B0007ED0A4297DD0A5297CD0AF2943D1CDE9D6
:1046C0000094BF23A1E0A27ADFF8D8A104F10B0186
:1046D0004FF40079012A01D07AB11EE0E27A632A10
:1046E00000D9E072404601F029F8002249465046C0
:1046F000FDF754FDE17A6CA00DE0E27A632A00D95F
:10470000E072404601F01AF8012249465046FDF792
:1047100045FDE17A69A002F077FA0421CDE900189D
:10472000B12329883878326800F0D6F8A07A8DF85D
:104730000800E07A8DF80900654800231A4602A9AE
:10474000006803F03BF90AB0BDE8F087A17A8DF864
:104750000810E17A8DF80910A18949BAADF80A105C
:10476000A17B632900D9A073A17B8DF80C10B4F84C
:104770000F1049BAADF80D10617C632900D960743F
:10478000617C8DF80F10618A49BAADF81010217D57
:10479000632900D92075217D8DF81210B4F8151009
:1047A00049BAADF81310E17D632900D9E07502E044
:1047B00010E030E06BE0E07D8DF8150002A800F01D
:1047C000D9FF0E2202A9434801F002F8CDE9009872
:1047D000B2231AE002A8FDF78DFABDF80A0002A97B
:1047E00040BAADF80A00BDF80D0040BAADF80D00B2
:1047F000BDF8100040BAADF81000BDF8130040BA83
:10480000ADF813000E20B3233EE0298838783268D3
:1048100000F062F897E7CDF80890CDF80C9005A865
:10482000CDF81090FDF7A6F9079802A9000E8DF8B3
:1048300008000798000C8DF809000798000A8DF809
:104840000A0007988DF80B000698000E8DF80C00F2
:104850000698000C8DF80D000698000A8DF80E00E1
:1048600006988DF80F000998000E8DF81000099831
:10487000000C8DF811000998000A8DF812000998B3
:104880008DF813000C20B423CDE90001BDE70AB078
:10489000BDE8F047FEF7AEBE820000208400002095
:1048A00088000020000C01400D0A20BFAAB5C620D8
:1048B000C1C1B6C8A3BA2564000000000D0A20B922
:1048C000D8B5C620C1C1B6C8A3BA2564000000008F
:1048D0009400002010FC00087CB5401CDDE9064572
:1048E00000F03F00CDE9004500F002F87CBD00007B
:1048F0007CB5DDE90650CDE900500E48007800F0A7
:1049000069F804460CA002F07FF90C35A9B22046E4
:1049100002F09CF90B4800231A462146006803F078
:104920004DF8012804D0BDE87C4007A002F06CB926
:104930007CBD0000880000200D0A204E42207365D7
:104940006E643A00D80000200D0A78205175657514
:104950006553656E64206572726F722C204E425FE3
:1049600053454E445F5175657565000008B512A04A
:1049700001F096F8164C69460020FDF7E9F9FFF7BB
:104980009DFC9DF80100012811D102F055F86268E4
:10499000216802EB4203401AC3EBC212B0EBC20F14
:1049A00000D221B902F048F82060FEF723FE64200F
:1049B00002F0A2FDDFE700000D0A5374617274205B
:1049C000506C6174666F726D5F5461736B000000B0
:1049D000AC0000202DE9F04114464ABA21BADDE9C5
:1049E0000656124CAA2700F03F0027706070A27094
:1049F000100AE0702171080A6071080CA071080E9D
:104A0000E071237265722A46314604F10A00FBF711
:104A1000F3FB264605F10A013046FCF722FD611939
:104A20008872000AC8723046BDE8F0812E2D002041
:104A300010B5012002F04EFF4A490028086064D0FA
:104A4000012002F047FF48490028086061D001209A
:104A500002F040FF4549002808605ED00221002294
:104A6000084602F042FF42490028086059D003225C
:104A70000021012002F039FF3E490028086054D08F
:104A8000002103F045F903220021012002F02DFF4F
:104A90003949002808604CD0002103F039F9012081
:104AA00002F018FF35490028086046D0012002F0C6
:104AB00011FF33490028086043D0002280210320E1
:104AC00002F013FF2F49002808603ED00022822107
:104AD000032002F00AFF2C490028086039D0002288
:104AE0008221032002F001FF28490028086034D009
:104AF00000228021032002F0F8FE254900280860EA
:104B00002FD124A000F0CCFFFEE72AA000F0C8FFC0
:104B1000FEE72EA000F0C4FFFEE733A000F0C0FFC8
:104B2000FEE739A000F0BCFFFEE73EA002F06CF803
:104B3000FEE743A002F068F8FEE748A002F064F840
:104B4000FEE74CA002F060F8FEE751A000F0A8FFDD
:104B5000FEE755A000F0A4FFFEE75AA000F0A0FF7A
:104B6000FEE710BDF4000020980000209C0000200B
:104B700094000020CC000020E0000020C4000020B1
:104B8000C8000020D0000020D4000020D800002061
:104B9000E40000200D0A20424C3635323347585F7E
:104BA000524543454956455F5175657565206572A7
:104BB000726F72000D0A205072696E744D757465C3
:104BC00078206572726F720D0A0000000D0A205481
:104BD000696D65436F6E74726F6C4D757465782086
:104BE0006572726F720D0A000D0A20456C65637460
:104BF000726963446174614D757465782065727281
:104C00006F720D0A000000000D0A204C65645368A5
:104C10006F775F5175657565206572726F720D0AE9
:104C2000000000000D0A204E425F434D445F536573
:104C30006D6170686F7265206572726F720000003E
:104C40000D0A204E425F41434B5F53656D617068B2
:104C50006F7265206572726F720000000D0A204E3F
:104C6000425F434D445F4D75746578206572726F85
:104C7000720000000D0A204E425F535441545553B8
:104C80005F4D75746578206572726F720000000068
:104C90000D0A204E425F434D445F51756575652096
:104CA0006572726F720000000D0A204E425F52451D
:104CB00043454956455F5175657565206572726F4C
:104CC000720000000D0A204E425F53454E445F5172
:104CD00075657565206572726F720000010901EBE0
:104CE000810100F00F0000EB4100C0B270470021CD
:104CF00002E00A38C0B2491C0A28FAD2090740EA81
:104D0000116070472DE9F04104460025C07B627BAD
:104D1000A37B42E0012A16D0032A14D0052A12D020
:104D2000072A10D0082A0ED00A2A0CD00C2A0AD042
:104D3000042A10D0062A0ED0092A0CD00B2A0AD039
:104D4000022A0DD028E01F2B0CD30C2A05D10122FA
:104D50001346401C20E01E2B04D30123521C1BE0F1
:104D60001C2B02D203F1010316E011D183B29E077E
:104D700010D16426B3FBF6F706FB173636B94FF4AD
:104D8000C876B3FBF6F706FB17331BB91D2303E008
:104D90001D2B01D1032201236D1C8D42BAD3D1B248
:104DA000E0736173DAB2A27300F050F82073BDE8CB
:104DB000F08170B50446FDF7F7F905464FF47A76B1
:104DC00006E0FDF7F1F9401BB04201D9032070BDA8
:104DD000206840688006F4D52068416841F01001E1
:104DE0004160002070BD000070B504460068416855
:104DF00021F010014160FDF7D7F905464FF47A76AE
:104E000007E000BFFDF7D0F9401BB04201D90320F5
:104E100070BD206840688006F4D5002070BD016830
:104E2000086A496A89B241EA0040704700688169AE
:104E30008AB2C1698BB2816989B28A4203D0C069E2
:104E400061F31F40704743EA02407047F0B56424A5
:104E5000C1EBC1030927A500072603EB01130329B2
:104E6000B3FBF7F100F5FA60114401440AD2401E89
:104E7000B0FBF4F201EB9001B0FBF5F0891A0844A5
:104E8000001D08E0B0FBF4F201EB9001B0FBF5F07F
:104E9000891A0844801CB0FBF6F106FB1100C0B271
:104EA000F0BD70B50D4606460024FFF782FF48B9F5
:104EB0003168280C08623168A8B248623046FFF7B2
:104EC00093FF00B10124204670BD70B50D46064623
:104ED0000024FFF76EFF48B93168280C88613168FB
:104EE000A8B2C8613046FFF77FFF00B10124204619
:104EF00070BD00002DE9F04F8BB001225F49604882
:104F000001F0A0F95D4E00243078012859D03470AA
:104F100041F6032070807460DFF86891DFF86881E3
:104F2000DFF868A1D9F80010594F5A4D4FF0010B26
:104F3000414556D158A001F067FE397839702A787A
:104F40002A709AF800308AF80030FF2A01D06429CC
:104F500002D985F800B03C702A784FF400715148AE
:104F6000FDF71CF92878D8B300213A784EA001F05B
:104F70004BFE43480E2207A9083001F063F99DF863
:104F80001C106320182903D29DF81D103C2935D32D
:104F900012218DF81C108DF81D404FF4B4718DF85E
:104FA0002000ADF81E10ADF821103220ADF82440DD
:104FB0008DF823008DF82640ADF827408DF8294064
:104FC00034E02E492E480222891C083801F03AF9B3
:104FD0002A492B480422091D001F01F033F99BE7E1
:104FE0000AE038A001F010FEC9F8008085F800B092
:104FF0003C708AF80040AFE70121B6E79DF8201029
:10500000632901D98DF820009DF82310632901D967
:105010008DF823009DF82610632901D98DF826000C
:105020009DF82910632901D98DF8290007A800F0FF
:10503000A1FB718827A0726801F0E6FDBDF824008D
:1050400003AC9DF82930BDF827209DF8261084E890
:105050000F009DF820009DF82320BDF821108DE859
:105060000700BDF81E309DF81D209DF81C1020483B
:1050700001F0CAFD0BB0BDE8F08F000080000020F9
:1050800008FC0008004F0020CDAB3412064F002072
:10509000044F0020054F00200D0AC8EDB8B4CEBB68
:1050A00021212100000C01400D0A4C6564537461FC
:1050B0007475733A25642C4C656450776D3A256499
:1050C000000000000D0AC9CFB5E7B8B4CEBB21215E
:1050D000210000000D0AB2FAC6B7C0E0D0CD3A30C8
:1050E000782532582CC9E8B1B849443A2564000003
:1050F000148400087CB5054602F060F9164C288837
:105100002080AA78A270E978E1706B796371AB793D
:10511000A371EB79E371A0F5FA608DF803008DF8C7
:1051200001208DF8021001208DF800000022694650
:105130000A48FDF7A3FD60798DF80400A0798DF889
:105140000500E0798DF80600002201A90348FDF76B
:10515000F7FD02F053F97CBD300100206C360020D1
:1051600010B5FFF7C7FE0F4C0120207002F026F9A2
:105170002078012801D048B10CE0FCF7CFF9FCF70A
:1051800081FAFCF7FBF9FCF719FA03E0FCF7C6F922
:10519000FCF778FA0448406802F0D4F9BDE8104002
:1051A00002F02CB98000002000000020F0B5044679
:1051B000002318466FF02F060EE0255CA5F130079E
:1051C0000A2F02D300280AD008E003EB830306EB82
:1051D0004303401C2B44C0B28842EED31360F0BDA1
:1051E00030B5002307E0C45CCD5CAC4201D00020A8
:1051F00030BD5B1C9BB29342F5D3012030BD000053
:105200002DE9F0431E46914680464FF6FF778B42CC
:1052100012D800248D1B6D1C0CE000BF08EB0400AD
:1052200032464946FFF7DCFF10B12046BDE8F08367
:10523000641CA4B2A542F1DC3846F7E710B5502053
:1052400080F31188BFF34F8FBFF36F8F02F0C2FE60
:1052500018B104494FF080500860002080F3118895
:1052600010BD000004ED00E070B594B02821684640
:10527000FAF7DBFF14210AA8FAF7D7FF00250F95EC
:105280000D2000904FF4803001AA109511951295D1
:105290004100012482E81300049402260694CDE91B
:1052A00007604FF4601009906846FDF749FA0F2037
:1052B000CDE90A06A002CDE90C5002210AA80E95FC
:1052C000FDF732F92002CDE90F400FA8FDF7B6F83F
:1052D00014B070BD704700000148FDF71EBE00000D
:1052E0009C0300200148FDF718BE00008036002016
:1052F000F0B50268164B174C174D4FF08047984297
:1053000005D0B84203D0A04201D0A84203D122F078
:1053100070064A683243984205D0B84203D0A04292
:1053200001D0A84203D122F44074CA6822434C69D8
:1053300022F08002224302608A68C2620A688262A6
:10534000984201D10969016301214161F0BD00006A
:10535000002C014000040040000800400A460146BD
:105360004FF47A730148FEF7EBB80000C42F002019
:105370000A4601464FF47A730148FEF7E1B800008F
:10538000043100200A4601464FF47A730148FEF7C3
:10539000D7B80000C431002010B5406A0021C18593
:1053A000C184FDF79AFE10BD0168CA6822F49072AC
:1053B000CA6001684A6922F001024A61202180F82E
:1053C0003A10704710B590F83A10222901D0022007
:1053D00010BD82684FF480539A4201D1016921B116
:1053E000816A9A421BD04AB10AE00268816A526817
:1053F000C2F308020A80816A891C08E0026972B15E
:105400000268526802F07F020A70816A491C816258
:10541000C18D491E0904090CC18503D016E002683C
:105420005268F1E70168CA6822F02002CA60016888
:10543000CA6822F48072CA6001684A6922F00102D7
:105440004A61202180F83A10FEF700F8002010BDD4
:1054500070B5044600680169E26821F440511143C7
:1054600001612169A0680843616908432168CA682D
:1054700041F20C639A430243CA6020684169A26901
:1054800021F44071114341611E492068884202D1D4
:10549000FDF710F901E0FDF7FDF800EBC00101EBAD
:1054A0000012606864218000B2FBF0F3B3FBF1F3FB
:1054B0006FF018067343B2FBF0F5B2FBF0F605EBA4
:1054C0008305322303EB0515B5FBF1F5B6FBF1F6C9
:1054D00005F0F00505EB0615B2FBF0F6B2FBF0F0B7
:1054E000B0FBF1F06FF01802504306EB800003EBC5
:1054F0000010B0FBF1F0216800F00F002844886034
:1055000070BD0000003801402DE9F0419846174673
:105510000E460446069D1DE0681C1BD02DB1FCF70D
:1055200043FEA0EB0800A84214D92068C16821F40A
:10553000D071C1602068416921F0010141612020E2
:1055400084F8390084F83A00002084F838000320F9
:10555000BDE8F0812068006836EA000004D0002031
:10556000B842D9D00020F3E70120F9E70148FDF760
:10557000B5BD0000C42F00200148FDF7AFBD0000FD
:10558000043100200148FDF7A9BD0000C43100200E
:10559000FEF722B908B5042900D904210A460146BC
:1055A0006846FAF729FE064800231A46694600684D
:1055B00002F004FA012802D002A000F071FA08BD3E
:1055C000E40000200D0A78517565756553656E64B9
:1055D000206572726F722C20424C36353233475838
:1055E0005F524543454956455F51756575650000F5
:1055F00070B51448FE210278F02A05D2521CD2B2AE
:1056000002700A2A00D301700F480278F02A05D2EE
:10561000521CD2B202700A2A00D301700B4C2078BF
:10562000F0280ED2401CC0B220700A2809D3084DC1
:10563000217008482988FEF77DFB00202880F02093
:10564000207070BDE8000020E9000020EA00002082
:10565000F000002004320020DFF860A0184DDFF8D1
:1056600064B0194EDFF86490194F4FF00008F02431
:105670002878FE2808D1BAF8001021B11548FFF7A4
:1056800087FFAAF800802C703078FE2808D1BBF87C
:10569000001021B11048FFF77DFFABF80080347097
:1056A0003878FE2805D1B9F8001009B1A9F80080B2
:1056B0003C70642001F020FFDAE70000EC000020DD
:1056C000E8000020EE000020E9000020F0000020AB
:1056D000EA0000200430002044310020FEE70000F2
:1056E00002494AF6AA2008607047000000300040D6
:1056F00070B50F4D04464FF0FF31286902F008FBEA
:105700000C49A068002388600B4842784A730078EF
:105710008873206808602069086160684860207BA1
:1057200008732869BDE870401A46194602F046B968
:105730008C000020B02F0020044F002070B50C46D4
:10574000054601F03BFE094B2A784FF400715A7070
:105750002078187006480AB1002200E001225A7031
:10576000FCF71CFDBDE8704001F048BE044F00206E
:10577000000C014070B5144D04464FF0FF31E8684D
:1057800002F0C6FA11482178002301706178417057
:105790002179017161884180E179C171B4F8051006
:1057A000A0F80510A17A817221890181617B417382
:1057B000B4F80B10A0F80B10E868BDE870401A466A
:1057C000194602F0FBB800008C000020062D0020D6
:1057D0002DE9F047164680468719234889468742B7
:1057E00018D8A6B1404600F00BFD041E10D0522080
:1057F00001F0D4F905000DD0DFF870A00146522267
:10580000504600F01FFD1849002049420DE00020DD
:10581000BDE8F0870120FBE708EB00022A4419F8F5
:1058200000300A44401C82F80034B042F4D3022C09
:1058300003D139464046FEF7C2FC012080F31088B0
:10584000FEF7E6FC022C0BD0324649464FEA080030
:10585000FEF7E8FCFCF74CFB002080F31088D6E74D
:10586000522229465046F3E70000010800FC0008D8
:105870000FB4054B10B503A9044A029800F024F9AF
:1058800010BC5DF814FB0000D96900083801002045
:105890000FB4084B10B504A902AA039800F014F93C
:1058A000044602A9002000F0A6FC204610BC5DF8CA
:1058B00014FB0000F761000837B514460846064B94
:1058C0006A46214600F000F904466946002000F0CF
:1058D00092FC20463EBD0000F76100080907090E52
:1058E000002804DB00F1E02080F80014704700F08D
:1058F0000F0000F1E02080F8141D704702E008C896
:10590000121F08C1002AFAD170477047002001E039
:1059100001C1121F002AFBD1704700002DE9FF5F73
:1059200082B00021DDE90430020DDDF840B0034310
:1059300018D044F61050A2F2FF32424315141198C9
:1059400001281FD0A5EB0B00401C5FEA000A4FF0B6
:1059500000064E4FDFF83891B046504615D5CAF1D3
:10596000000413E0119801244AA3012801D16FEA31
:105970000B010298119AC0E90031C0E9024206B059
:10598000BDE8F09FCBF10000DFE704460021404A6C
:10599000491842EB0450CDE9001012E0E00707D0AF
:1059A00032463B4640464946FAF7CDFC804689469A
:1059B00032463B4610461946FAF7C5FC06460F46E6
:1059C0006410002CEAD1DDE90401DDE90023BAF11D
:1059D000000F06DAFAF7B7FC42464B46FAF7B3FC7B
:1059E00005E0FAF722FD42464B46FAF71EFD044653
:1059F0000E460022284BFAF771FF03D84FF0FF3014
:105A0000014607E00022254B20463146FAF7A7FE63
:105A1000FAF74CFF102409E0002C0ADB0A220023CD
:105A2000FAF7D8FD039B30321A55641E50EA010282
:105A3000F2D1641C039AC4F111031444119A012A8F
:105A400003D0012208430DD10AE0084304D000200E
:105A50004FF0110B119072E7A3EB0B056D1E0DE0DB
:105A60005B4504DD4FF0000205F1010504E003DAB7
:105A70004FF00002A5F10105002AECD0029811991F
:105A8000C0E90231C0E9004579E700000000144098
:105A90000000F03F300000000000F0430000E03F55
:105AA0000FB4084810B503AA0299FFF705FF05488F
:105AB000FAF7D2FB81B20348FFF750FC10BC5DF847
:105AC00014FB0000843200202DE9FF4F95B09B4667
:105AD0008946064600250FE2252877D1002427466F
